{
  "_format": "hh-sol-artifact-1",
  "contractName": "NftOnChainPayable7",
  "sourceName": "contracts/NftOnChainPayable7.sol",
  "abi": [
    {
      "inputs": [],
      "stateMutability": "nonpayable",
      "type": "constructor"
    },
    {
      "anonymous": false,
      "inputs": [
        {
          "indexed": true,
          "internalType": "address",
          "name": "owner",
          "type": "address"
        },
        {
          "indexed": true,
          "internalType": "address",
          "name": "approved",
          "type": "address"
        },
        {
          "indexed": true,
          "internalType": "uint256",
          "name": "tokenId",
          "type": "uint256"
        }
      ],
      "name": "Approval",
      "type": "event"
    },
    {
      "anonymous": false,
      "inputs": [
        {
          "indexed": true,
          "internalType": "address",
          "name": "owner",
          "type": "address"
        },
        {
          "indexed": true,
          "internalType": "address",
          "name": "operator",
          "type": "address"
        },
        {
          "indexed": false,
          "internalType": "bool",
          "name": "approved",
          "type": "bool"
        }
      ],
      "name": "ApprovalForAll",
      "type": "event"
    },
    {
      "anonymous": false,
      "inputs": [
        {
          "indexed": true,
          "internalType": "address",
          "name": "previousOwner",
          "type": "address"
        },
        {
          "indexed": true,
          "internalType": "address",
          "name": "newOwner",
          "type": "address"
        }
      ],
      "name": "OwnershipTransferred",
      "type": "event"
    },
    {
      "anonymous": false,
      "inputs": [
        {
          "indexed": true,
          "internalType": "address",
          "name": "from",
          "type": "address"
        },
        {
          "indexed": true,
          "internalType": "address",
          "name": "to",
          "type": "address"
        },
        {
          "indexed": true,
          "internalType": "uint256",
          "name": "tokenId",
          "type": "uint256"
        }
      ],
      "name": "Transfer",
      "type": "event"
    },
    {
      "inputs": [
        {
          "internalType": "address",
          "name": "to",
          "type": "address"
        },
        {
          "internalType": "uint256",
          "name": "tokenId",
          "type": "uint256"
        }
      ],
      "name": "approve",
      "outputs": [],
      "stateMutability": "nonpayable",
      "type": "function"
    },
    {
      "inputs": [
        {
          "internalType": "address",
          "name": "owner",
          "type": "address"
        }
      ],
      "name": "balanceOf",
      "outputs": [
        {
          "internalType": "uint256",
          "name": "",
          "type": "uint256"
        }
      ],
      "stateMutability": "view",
      "type": "function"
    },
    {
      "inputs": [],
      "name": "fees",
      "outputs": [
        {
          "internalType": "uint256",
          "name": "",
          "type": "uint256"
        }
      ],
      "stateMutability": "view",
      "type": "function"
    },
    {
      "inputs": [
        {
          "internalType": "uint256",
          "name": "tokenId",
          "type": "uint256"
        }
      ],
      "name": "getApproved",
      "outputs": [
        {
          "internalType": "address",
          "name": "",
          "type": "address"
        }
      ],
      "stateMutability": "view",
      "type": "function"
    },
    {
      "inputs": [
        {
          "internalType": "string",
          "name": "projectTitle",
          "type": "string"
        }
      ],
      "name": "getOwnerByProjectTitle",
      "outputs": [
        {
          "internalType": "address",
          "name": "",
          "type": "address"
        }
      ],
      "stateMutability": "view",
      "type": "function"
    },
    {
      "inputs": [
        {
          "internalType": "address",
          "name": "owner",
          "type": "address"
        }
      ],
      "name": "getProjectTitleByOwner",
      "outputs": [
        {
          "internalType": "string",
          "name": "",
          "type": "string"
        }
      ],
      "stateMutability": "view",
      "type": "function"
    },
    {
      "inputs": [
        {
          "internalType": "address",
          "name": "owner",
          "type": "address"
        },
        {
          "internalType": "address",
          "name": "operator",
          "type": "address"
        }
      ],
      "name": "isApprovedForAll",
      "outputs": [
        {
          "internalType": "bool",
          "name": "",
          "type": "bool"
        }
      ],
      "stateMutability": "view",
      "type": "function"
    },
    {
      "inputs": [],
      "name": "mintRate",
      "outputs": [
        {
          "internalType": "uint256",
          "name": "",
          "type": "uint256"
        }
      ],
      "stateMutability": "view",
      "type": "function"
    },
    {
      "inputs": [],
      "name": "name",
      "outputs": [
        {
          "internalType": "string",
          "name": "",
          "type": "string"
        }
      ],
      "stateMutability": "view",
      "type": "function"
    },
    {
      "inputs": [],
      "name": "owner",
      "outputs": [
        {
          "internalType": "address",
          "name": "",
          "type": "address"
        }
      ],
      "stateMutability": "view",
      "type": "function"
    },
    {
      "inputs": [
        {
          "internalType": "uint256",
          "name": "tokenId",
          "type": "uint256"
        }
      ],
      "name": "ownerOf",
      "outputs": [
        {
          "internalType": "address",
          "name": "",
          "type": "address"
        }
      ],
      "stateMutability": "view",
      "type": "function"
    },
    {
      "inputs": [
        {
          "internalType": "address",
          "name": "",
          "type": "address"
        }
      ],
      "name": "ownerToTokenId",
      "outputs": [
        {
          "internalType": "uint256",
          "name": "",
          "type": "uint256"
        }
      ],
      "stateMutability": "view",
      "type": "function"
    },
    {
      "inputs": [
        {
          "internalType": "uint256",
          "name": "tokenId",
          "type": "uint256"
        }
      ],
      "name": "payTokenOwner",
      "outputs": [],
      "stateMutability": "payable",
      "type": "function"
    },
    {
      "inputs": [
        {
          "internalType": "string",
          "name": "",
          "type": "string"
        }
      ],
      "name": "projectTitleToTokenId",
      "outputs": [
        {
          "internalType": "uint256",
          "name": "",
          "type": "uint256"
        }
      ],
      "stateMutability": "view",
      "type": "function"
    },
    {
      "inputs": [],
      "name": "renounceOwnership",
      "outputs": [],
      "stateMutability": "nonpayable",
      "type": "function"
    },
    {
      "inputs": [
        {
          "internalType": "address",
          "name": "to",
          "type": "address"
        },
        {
          "internalType": "string",
          "name": "uri",
          "type": "string"
        },
        {
          "internalType": "string",
          "name": "projectTitle",
          "type": "string"
        }
      ],
      "name": "safeMint",
      "outputs": [],
      "stateMutability": "payable",
      "type": "function"
    },
    {
      "inputs": [
        {
          "internalType": "address",
          "name": "from",
          "type": "address"
        },
        {
          "internalType": "address",
          "name": "to",
          "type": "address"
        },
        {
          "internalType": "uint256",
          "name": "tokenId",
          "type": "uint256"
        }
      ],
      "name": "safeTransferFrom",
      "outputs": [],
      "stateMutability": "nonpayable",
      "type": "function"
    },
    {
      "inputs": [
        {
          "internalType": "address",
          "name": "from",
          "type": "address"
        },
        {
          "internalType": "address",
          "name": "to",
          "type": "address"
        },
        {
          "internalType": "uint256",
          "name": "tokenId",
          "type": "uint256"
        },
        {
          "internalType": "bytes",
          "name": "data",
          "type": "bytes"
        }
      ],
      "name": "safeTransferFrom",
      "outputs": [],
      "stateMutability": "nonpayable",
      "type": "function"
    },
    {
      "inputs": [
        {
          "internalType": "address",
          "name": "operator",
          "type": "address"
        },
        {
          "internalType": "bool",
          "name": "approved",
          "type": "bool"
        }
      ],
      "name": "setApprovalForAll",
      "outputs": [],
      "stateMutability": "nonpayable",
      "type": "function"
    },
    {
      "inputs": [
        {
          "internalType": "bytes4",
          "name": "interfaceId",
          "type": "bytes4"
        }
      ],
      "name": "supportsInterface",
      "outputs": [
        {
          "internalType": "bool",
          "name": "",
          "type": "bool"
        }
      ],
      "stateMutability": "view",
      "type": "function"
    },
    {
      "inputs": [],
      "name": "symbol",
      "outputs": [
        {
          "internalType": "string",
          "name": "",
          "type": "string"
        }
      ],
      "stateMutability": "view",
      "type": "function"
    },
    {
      "inputs": [
        {
          "internalType": "uint256",
          "name": "",
          "type": "uint256"
        }
      ],
      "name": "tokenIdToOwner",
      "outputs": [
        {
          "internalType": "address",
          "name": "",
          "type": "address"
        }
      ],
      "stateMutability": "view",
      "type": "function"
    },
    {
      "inputs": [
        {
          "internalType": "uint256",
          "name": "",
          "type": "uint256"
        }
      ],
      "name": "tokenIdToProjectTitle",
      "outputs": [
        {
          "internalType": "string",
          "name": "",
          "type": "string"
        }
      ],
      "stateMutability": "view",
      "type": "function"
    },
    {
      "inputs": [
        {
          "internalType": "uint256",
          "name": "tokenId",
          "type": "uint256"
        }
      ],
      "name": "tokenURI",
      "outputs": [
        {
          "internalType": "string",
          "name": "",
          "type": "string"
        }
      ],
      "stateMutability": "view",
      "type": "function"
    },
    {
      "inputs": [
        {
          "internalType": "address",
          "name": "from",
          "type": "address"
        },
        {
          "internalType": "address",
          "name": "to",
          "type": "address"
        },
        {
          "internalType": "uint256",
          "name": "tokenId",
          "type": "uint256"
        }
      ],
      "name": "transferFrom",
      "outputs": [],
      "stateMutability": "nonpayable",
      "type": "function"
    },
    {
      "inputs": [
        {
          "internalType": "address",
          "name": "newOwner",
          "type": "address"
        }
      ],
      "name": "transferOwnership",
      "outputs": [],
      "stateMutability": "nonpayable",
      "type": "function"
    },
    {
      "inputs": [],
      "name": "withdraw",
      "outputs": [],
      "stateMutability": "nonpayable",
      "type": "function"
    }
  ],
  "bytecode": "0x60806040523480156200001157600080fd5b5060408051808201825260128152714e66744f6e436861696e50617961626c653760701b6020808301918252835180850190945260048452634e4f433760e01b9084015281519192916200006891600091620000fc565b5080516200007e906001906020840190620000fc565b5050506200009b62000095620000a660201b60201c565b620000aa565b6001600855620001de565b3390565b600780546001600160a01b038381166001600160a01b0319831681179093556040519116919082907f8be0079c531659141344cd1fd0a4f28419497f9722a3daafe3b4186f6b6457e090600090a35050565b8280546200010a90620001a2565b90600052602060002090601f0160209004810192826200012e576000855562000179565b82601f106200014957805160ff191683800117855562000179565b8280016001018555821562000179579182015b82811115620001795782518255916020019190600101906200015c565b50620001879291506200018b565b5090565b5b808211156200018757600081556001016200018c565b600181811c90821680620001b757607f821691505b602082108103620001d857634e487b7160e01b600052602260045260246000fd5b50919050565b611fac80620001ee6000396000f3fe60806040526004361061019c5760003560e01c8063715018a6116100ec578063b88d4fde1161008a578063cd99b01011610064578063cd99b010146104a4578063e985e9c5146104dc578063eca81d4214610525578063f2fde38b1461053857600080fd5b8063b88d4fde14610449578063c87b56dd14610469578063ca0dcf161461048957600080fd5b806395d89b41116100c657806395d89b41146103de5780639af1d35a146103f35780639f4a7c1014610409578063a22cb4651461042957600080fd5b8063715018a61461038b5780638da5cb5b146103a057806391f7e397146103be57600080fd5b80633ccfd60b116101595780635925b94c116101335780635925b94c146103025780636352211e146103155780636e9e48ef1461033557806370a082311461036b57600080fd5b80633ccfd60b1461029257806342842e0e146102a75780634814f035146102c757600080fd5b806301ffc9a7146101a157806306fdde03146101d6578063081812fc146101f8578063095ea7b31461023057806323b872dd146102525780632659458814610272575b600080fd5b3480156101ad57600080fd5b506101c16101bc3660046119ed565b610558565b60405190151581526020015b60405180910390f35b3480156101e257600080fd5b506101eb6105aa565b6040516101cd9190611a62565b34801561020457600080fd5b50610218610213366004611a75565b61063c565b6040516001600160a01b0390911681526020016101cd565b34801561023c57600080fd5b5061025061024b366004611aaa565b610663565b005b34801561025e57600080fd5b5061025061026d366004611ad4565b61077d565b34801561027e57600080fd5b506101eb61028d366004611b10565b6107ae565b34801561029e57600080fd5b50610250610885565b3480156102b357600080fd5b506102506102c2366004611ad4565b61091a565b3480156102d357600080fd5b506102f46102e2366004611b10565b600c6020526000908152604090205481565b6040519081526020016101cd565b610250610310366004611a75565b610935565b34801561032157600080fd5b50610218610330366004611a75565b610a89565b34801561034157600080fd5b50610218610350366004611a75565b600a602052600090815260409020546001600160a01b031681565b34801561037757600080fd5b506102f4610386366004611b10565b610ae9565b34801561039757600080fd5b50610250610b6f565b3480156103ac57600080fd5b506007546001600160a01b0316610218565b3480156103ca57600080fd5b506102186103d9366004611bd7565b610b83565b3480156103ea57600080fd5b506101eb610bd6565b3480156103ff57600080fd5b506102f4600d5481565b34801561041557600080fd5b506101eb610424366004611a75565b610be5565b34801561043557600080fd5b50610250610444366004611c0c565b610c7f565b34801561045557600080fd5b50610250610464366004611c48565b610c8e565b34801561047557600080fd5b506101eb610484366004611a75565b610cc0565b34801561049557600080fd5b506102f466b1a2bc2ec5000081565b3480156104b057600080fd5b506102f46104bf366004611bd7565b8051602081830181018051600b8252928201919093012091525481565b3480156104e857600080fd5b506101c16104f7366004611cc4565b6001600160a01b03918216600090815260056020908152604080832093909416825291909152205460ff1690565b610250610533366004611cf7565b610ccb565b34801561054457600080fd5b50610250610553366004611b10565b610e11565b60006001600160e01b031982166380ac58cd60e01b148061058957506001600160e01b03198216635b5e139f60e01b145b806105a457506301ffc9a760e01b6001600160e01b03198316145b92915050565b6060600080546105b990611d6b565b80601f01602080910402602001604051908101604052809291908181526020018280546105e590611d6b565b80156106325780601f1061060757610100808354040283529160200191610632565b820191906000526020600020905b81548152906001019060200180831161061557829003601f168201915b5050505050905090565b600061064782610e87565b506000908152600460205260409020546001600160a01b031690565b600061066e82610a89565b9050806001600160a01b0316836001600160a01b0316036106e05760405162461bcd60e51b815260206004820152602160248201527f4552433732313a20617070726f76616c20746f2063757272656e74206f776e656044820152603960f91b60648201526084015b60405180910390fd5b336001600160a01b03821614806106fc57506106fc81336104f7565b61076e5760405162461bcd60e51b815260206004820152603d60248201527f4552433732313a20617070726f76652063616c6c6572206973206e6f7420746f60448201527f6b656e206f776e6572206f7220617070726f76656420666f7220616c6c00000060648201526084016106d7565b6107788383610ee6565b505050565b6107873382610f54565b6107a35760405162461bcd60e51b81526004016106d790611da5565b610778838383610fd3565b6001600160a01b0381166000908152600c6020526040902054606090801561086f57600081815260096020526040902080546107e990611d6b565b80601f016020809104026020016040519081016040528092919081815260200182805461081590611d6b565b80156108625780601f1061083757610100808354040283529160200191610862565b820191906000526020600020905b81548152906001019060200180831161084557829003601f168201915b5050505050915050919050565b5050604080516020810190915260008152919050565b61088d611137565b604051600090339047908381818185875af1925050503d80600081146108cf576040519150601f19603f3d011682016040523d82523d6000602084013e6108d4565b606091505b50509050806109175760405162461bcd60e51b815260206004820152600f60248201526e151c985b9cd9995c8811985a5b1959608a1b60448201526064016106d7565b50565b61077883838360405180602001604052806000815250610c8e565b600061094082610a89565b90506001600160a01b03811661098f5760405162461bcd60e51b8152602060048201526014602482015273151bdad95b88191bd95cc81b9bdd08195e1a5cdd60621b60448201526064016106d7565b6001600160a01b03811633036109dd5760405162461bcd60e51b815260206004820152601360248201527221b0b73737ba103830bc903cb7bab939b2b63360691b60448201526064016106d7565b600082815260096020526040812080546109f690611d6b565b905011610a3d5760405162461bcd60e51b8152602060048201526015602482015274141c9bda9958dd081d1a5d1b19481b9bdd081cd95d605a1b60448201526064016106d7565b6000610a4a600234611df2565b6040519091506001600160a01b0383169082156108fc029083906000818181858888f19350505050158015610a83573d6000803e3d6000fd5b50505050565b6000818152600260205260408120546001600160a01b0316806105a45760405162461bcd60e51b8152602060048201526018602482015277115490cdcc8c4e881a5b9d985b1a59081d1bdad95b88125160421b60448201526064016106d7565b60006001600160a01b038216610b535760405162461bcd60e51b815260206004820152602960248201527f4552433732313a2061646472657373207a65726f206973206e6f7420612076616044820152683634b21037bbb732b960b91b60648201526084016106d7565b506001600160a01b031660009081526003602052604090205490565b610b77611137565b610b816000611191565b565b600080600b83604051610b969190611e14565b908152602001604051809103902054905080600014610bcd576000908152600a60205260409020546001600160a01b031692915050565b50600092915050565b6060600180546105b990611d6b565b60096020526000908152604090208054610bfe90611d6b565b80601f0160208091040260200160405190810160405280929190818152602001828054610c2a90611d6b565b8015610c775780601f10610c4c57610100808354040283529160200191610c77565b820191906000526020600020905b815481529060010190602001808311610c5a57829003601f168201915b505050505081565b610c8a3383836111e3565b5050565b610c983383610f54565b610cb45760405162461bcd60e51b81526004016106d790611da5565b610a83848484846112b1565b60606105a4826112e4565b66b1a2bc2ec50000600d54610ce09190611e30565b341015610d255760405162461bcd60e51b8152602060048201526013602482015272139bdd08195b9bdd59da08115512081cd95b9d606a1b60448201526064016106d7565b6000610d30600e5490565b9050610d40600e80546001019055565b610d4a84826113ec565b610d548184611406565b60008181526009602090815260409091208351610d739285019061193e565b506000818152600a60205260409081902080546001600160a01b0319166001600160a01b038716179055518190600b90610dae908590611e14565b9081526040805160209281900383018120939093556001600160a01b038781166000908152600c909352908220849055600754169166b1a2bc2ec500009082818181858883f19350505050158015610e0a573d6000803e3d6000fd5b5050505050565b610e19611137565b6001600160a01b038116610e7e5760405162461bcd60e51b815260206004820152602660248201527f4f776e61626c653a206e6577206f776e657220697320746865207a65726f206160448201526564647265737360d01b60648201526084016106d7565b61091781611191565b6000818152600260205260409020546001600160a01b03166109175760405162461bcd60e51b8152602060048201526018602482015277115490cdcc8c4e881a5b9d985b1a59081d1bdad95b88125160421b60448201526064016106d7565b600081815260046020526040902080546001600160a01b0319166001600160a01b0384169081179091558190610f1b82610a89565b6001600160a01b03167f8c5be1e5ebec7d5bd14f71427d1e84f3dd0314c0f7b2291e5b200ac8c7c3b92560405160405180910390a45050565b600080610f6083610a89565b9050806001600160a01b0316846001600160a01b03161480610fa757506001600160a01b0380821660009081526005602090815260408083209388168352929052205460ff165b80610fcb5750836001600160a01b0316610fc08461063c565b6001600160a01b0316145b949350505050565b826001600160a01b0316610fe682610a89565b6001600160a01b03161461100c5760405162461bcd60e51b81526004016106d790611e56565b6001600160a01b03821661106e5760405162461bcd60e51b8152602060048201526024808201527f4552433732313a207472616e7366657220746f20746865207a65726f206164646044820152637265737360e01b60648201526084016106d7565b826001600160a01b031661108182610a89565b6001600160a01b0316146110a75760405162461bcd60e51b81526004016106d790611e56565b600081815260046020908152604080832080546001600160a01b03199081169091556001600160a01b0387811680865260038552838620805460001901905590871680865283862080546001019055868652600290945282852080549092168417909155905184937fddf252ad1be2c89b69c2b068fc378daa952ba7f163c4a11628f55a4df523b3ef91a4505050565b6007546001600160a01b03163314610b815760405162461bcd60e51b815260206004820181905260248201527f4f776e61626c653a2063616c6c6572206973206e6f7420746865206f776e657260448201526064016106d7565b600780546001600160a01b038381166001600160a01b0319831681179093556040519116919082907f8be0079c531659141344cd1fd0a4f28419497f9722a3daafe3b4186f6b6457e090600090a35050565b816001600160a01b0316836001600160a01b0316036112445760405162461bcd60e51b815260206004820152601960248201527f4552433732313a20617070726f766520746f2063616c6c65720000000000000060448201526064016106d7565b6001600160a01b03838116600081815260056020908152604080832094871680845294825291829020805460ff191686151590811790915591519182527f17307eab39ab6107e8899845ad3d59bd9653f200f220920489ca2b5937696c31910160405180910390a3505050565b6112bc848484610fd3565b6112c8848484846114a0565b610a835760405162461bcd60e51b81526004016106d790611e9b565b60606112ef82610e87565b6000828152600660205260408120805461130890611d6b565b80601f016020809104026020016040519081016040528092919081815260200182805461133490611d6b565b80156113815780601f1061135657610100808354040283529160200191611381565b820191906000526020600020905b81548152906001019060200180831161136457829003601f168201915b50505050509050600061139f60408051602081019091526000815290565b905080516000036113b1575092915050565b8151156113e35780826040516020016113cb929190611eed565b60405160208183030381529060405292505050919050565b610fcb846115a1565b610c8a828260405180602001604052806000815250611615565b6000828152600260205260409020546001600160a01b03166114815760405162461bcd60e51b815260206004820152602e60248201527f45524337323155524953746f726167653a2055524920736574206f66206e6f6e60448201526d32bc34b9ba32b73a103a37b5b2b760911b60648201526084016106d7565b600082815260066020908152604090912082516107789284019061193e565b60006001600160a01b0384163b1561159657604051630a85bd0160e11b81526001600160a01b0385169063150b7a02906114e4903390899088908890600401611f1c565b6020604051808303816000875af192505050801561151f575060408051601f3d908101601f1916820190925261151c91810190611f59565b60015b61157c573d80801561154d576040519150601f19603f3d011682016040523d82523d6000602084013e611552565b606091505b5080516000036115745760405162461bcd60e51b81526004016106d790611e9b565b805181602001fd5b6001600160e01b031916630a85bd0160e11b149050610fcb565b506001949350505050565b60606115ac82610e87565b60006115c360408051602081019091526000815290565b905060008151116115e3576040518060200160405280600081525061160e565b806115ed84611648565b6040516020016115fe929190611eed565b6040516020818303038152906040525b9392505050565b61161f83836116db565b61162c60008484846114a0565b6107785760405162461bcd60e51b81526004016106d790611e9b565b6060600061165583611866565b600101905060008167ffffffffffffffff81111561167557611675611b2b565b6040519080825280601f01601f19166020018201604052801561169f576020820181803683370190505b5090508181016020015b600019016f181899199a1a9b1b9c1cb0b131b232b360811b600a86061a8153600a85049450846116a957509392505050565b6001600160a01b0382166117315760405162461bcd60e51b815260206004820181905260248201527f4552433732313a206d696e7420746f20746865207a65726f206164647265737360448201526064016106d7565b6000818152600260205260409020546001600160a01b0316156117965760405162461bcd60e51b815260206004820152601c60248201527f4552433732313a20746f6b656e20616c7265616479206d696e7465640000000060448201526064016106d7565b6000818152600260205260409020546001600160a01b0316156117fb5760405162461bcd60e51b815260206004820152601c60248201527f4552433732313a20746f6b656e20616c7265616479206d696e7465640000000060448201526064016106d7565b6001600160a01b038216600081815260036020908152604080832080546001019055848352600290915280822080546001600160a01b0319168417905551839291907fddf252ad1be2c89b69c2b068fc378daa952ba7f163c4a11628f55a4df523b3ef908290a45050565b60008072184f03e93ff9f4daa797ed6e38ed64bf6a1f0160401b83106118a55772184f03e93ff9f4daa797ed6e38ed64bf6a1f0160401b830492506040015b6d04ee2d6d415b85acef810000000083106118d1576d04ee2d6d415b85acef8100000000830492506020015b662386f26fc1000083106118ef57662386f26fc10000830492506010015b6305f5e1008310611907576305f5e100830492506008015b612710831061191b57612710830492506004015b6064831061192d576064830492506002015b600a83106105a45760010192915050565b82805461194a90611d6b565b90600052602060002090601f01602090048101928261196c57600085556119b2565b82601f1061198557805160ff19168380011785556119b2565b828001600101855582156119b2579182015b828111156119b2578251825591602001919060010190611997565b506119be9291506119c2565b5090565b5b808211156119be57600081556001016119c3565b6001600160e01b03198116811461091757600080fd5b6000602082840312156119ff57600080fd5b813561160e816119d7565b60005b83811015611a25578181015183820152602001611a0d565b83811115610a835750506000910152565b60008151808452611a4e816020860160208601611a0a565b601f01601f19169290920160200192915050565b60208152600061160e6020830184611a36565b600060208284031215611a8757600080fd5b5035919050565b80356001600160a01b0381168114611aa557600080fd5b919050565b60008060408385031215611abd57600080fd5b611ac683611a8e565b946020939093013593505050565b600080600060608486031215611ae957600080fd5b611af284611a8e565b9250611b0060208501611a8e565b9150604084013590509250925092565b600060208284031215611b2257600080fd5b61160e82611a8e565b634e487b7160e01b600052604160045260246000fd5b600067ffffffffffffffff80841115611b5c57611b5c611b2b565b604051601f8501601f19908116603f01168101908282118183101715611b8457611b84611b2b565b81604052809350858152868686011115611b9d57600080fd5b858560208301376000602087830101525050509392505050565b600082601f830112611bc857600080fd5b61160e83833560208501611b41565b600060208284031215611be957600080fd5b813567ffffffffffffffff811115611c0057600080fd5b610fcb84828501611bb7565b60008060408385031215611c1f57600080fd5b611c2883611a8e565b915060208301358015158114611c3d57600080fd5b809150509250929050565b60008060008060808587031215611c5e57600080fd5b611c6785611a8e565b9350611c7560208601611a8e565b925060408501359150606085013567ffffffffffffffff811115611c9857600080fd5b8501601f81018713611ca957600080fd5b611cb887823560208401611b41565b91505092959194509250565b60008060408385031215611cd757600080fd5b611ce083611a8e565b9150611cee60208401611a8e565b90509250929050565b600080600060608486031215611d0c57600080fd5b611d1584611a8e565b9250602084013567ffffffffffffffff80821115611d3257600080fd5b611d3e87838801611bb7565b93506040860135915080821115611d5457600080fd5b50611d6186828701611bb7565b9150509250925092565b600181811c90821680611d7f57607f821691505b602082108103611d9f57634e487b7160e01b600052602260045260246000fd5b50919050565b6020808252602d908201527f4552433732313a2063616c6c6572206973206e6f7420746f6b656e206f776e6560408201526c1c881bdc88185c1c1c9bdd9959609a1b606082015260800190565b600082611e0f57634e487b7160e01b600052601260045260246000fd5b500490565b60008251611e26818460208701611a0a565b9190910192915050565b60008219821115611e5157634e487b7160e01b600052601160045260246000fd5b500190565b60208082526025908201527f4552433732313a207472616e736665722066726f6d20696e636f72726563742060408201526437bbb732b960d91b606082015260800190565b60208082526032908201527f4552433732313a207472616e7366657220746f206e6f6e20455243373231526560408201527131b2b4bb32b91034b6b83632b6b2b73a32b960711b606082015260800190565b60008351611eff818460208801611a0a565b835190830190611f13818360208801611a0a565b01949350505050565b6001600160a01b0385811682528416602082015260408101839052608060608201819052600090611f4f90830184611a36565b9695505050505050565b600060208284031215611f6b57600080fd5b815161160e816119d756fea2646970667358221220a7b276435d10ce6de7fa5d12448ca5c7c366c5e2304ffdc4dc174771fca1924e64736f6c634300080d0033",
  "linkReferences": {},
  "deployedLinkReferences": {}
}