{
  "_format": "hh-sol-artifact-1",
  "contractName": "NftOnChainPayable9nRG",
  "sourceName": "contracts/NftOnChainPayable9nRG.sol",
  "abi": [
    {
      "inputs": [],
      "stateMutability": "nonpayable",
      "type": "constructor"
    },
    {
      "anonymous": false,
      "inputs": [
        {
          "indexed": true,
          "internalType": "address",
          "name": "owner",
          "type": "address"
        },
        {
          "indexed": true,
          "internalType": "address",
          "name": "approved",
          "type": "address"
        },
        {
          "indexed": true,
          "internalType": "uint256",
          "name": "tokenId",
          "type": "uint256"
        }
      ],
      "name": "Approval",
      "type": "event"
    },
    {
      "anonymous": false,
      "inputs": [
        {
          "indexed": true,
          "internalType": "address",
          "name": "owner",
          "type": "address"
        },
        {
          "indexed": true,
          "internalType": "address",
          "name": "operator",
          "type": "address"
        },
        {
          "indexed": false,
          "internalType": "bool",
          "name": "approved",
          "type": "bool"
        }
      ],
      "name": "ApprovalForAll",
      "type": "event"
    },
    {
      "anonymous": false,
      "inputs": [
        {
          "indexed": true,
          "internalType": "address",
          "name": "previousOwner",
          "type": "address"
        },
        {
          "indexed": true,
          "internalType": "address",
          "name": "newOwner",
          "type": "address"
        }
      ],
      "name": "OwnershipTransferred",
      "type": "event"
    },
    {
      "anonymous": false,
      "inputs": [
        {
          "indexed": true,
          "internalType": "address",
          "name": "from",
          "type": "address"
        },
        {
          "indexed": true,
          "internalType": "address",
          "name": "to",
          "type": "address"
        },
        {
          "indexed": true,
          "internalType": "uint256",
          "name": "tokenId",
          "type": "uint256"
        }
      ],
      "name": "Transfer",
      "type": "event"
    },
    {
      "inputs": [
        {
          "internalType": "address",
          "name": "to",
          "type": "address"
        },
        {
          "internalType": "uint256",
          "name": "tokenId",
          "type": "uint256"
        }
      ],
      "name": "approve",
      "outputs": [],
      "stateMutability": "nonpayable",
      "type": "function"
    },
    {
      "inputs": [
        {
          "internalType": "address",
          "name": "owner",
          "type": "address"
        }
      ],
      "name": "balanceOf",
      "outputs": [
        {
          "internalType": "uint256",
          "name": "",
          "type": "uint256"
        }
      ],
      "stateMutability": "view",
      "type": "function"
    },
    {
      "inputs": [],
      "name": "fees",
      "outputs": [
        {
          "internalType": "uint256",
          "name": "",
          "type": "uint256"
        }
      ],
      "stateMutability": "view",
      "type": "function"
    },
    {
      "inputs": [
        {
          "internalType": "uint256",
          "name": "tokenId",
          "type": "uint256"
        }
      ],
      "name": "getApproved",
      "outputs": [
        {
          "internalType": "address",
          "name": "",
          "type": "address"
        }
      ],
      "stateMutability": "view",
      "type": "function"
    },
    {
      "inputs": [
        {
          "internalType": "string",
          "name": "projectTitle",
          "type": "string"
        }
      ],
      "name": "getOwnerByProjectTitle",
      "outputs": [
        {
          "internalType": "address",
          "name": "",
          "type": "address"
        }
      ],
      "stateMutability": "view",
      "type": "function"
    },
    {
      "inputs": [
        {
          "internalType": "address",
          "name": "owner",
          "type": "address"
        }
      ],
      "name": "getProjectTitleByOwner",
      "outputs": [
        {
          "internalType": "string",
          "name": "",
          "type": "string"
        }
      ],
      "stateMutability": "view",
      "type": "function"
    },
    {
      "inputs": [
        {
          "internalType": "address",
          "name": "owner",
          "type": "address"
        },
        {
          "internalType": "address",
          "name": "operator",
          "type": "address"
        }
      ],
      "name": "isApprovedForAll",
      "outputs": [
        {
          "internalType": "bool",
          "name": "",
          "type": "bool"
        }
      ],
      "stateMutability": "view",
      "type": "function"
    },
    {
      "inputs": [],
      "name": "mintRate",
      "outputs": [
        {
          "internalType": "uint256",
          "name": "",
          "type": "uint256"
        }
      ],
      "stateMutability": "view",
      "type": "function"
    },
    {
      "inputs": [],
      "name": "name",
      "outputs": [
        {
          "internalType": "string",
          "name": "",
          "type": "string"
        }
      ],
      "stateMutability": "view",
      "type": "function"
    },
    {
      "inputs": [],
      "name": "owner",
      "outputs": [
        {
          "internalType": "address",
          "name": "",
          "type": "address"
        }
      ],
      "stateMutability": "view",
      "type": "function"
    },
    {
      "inputs": [
        {
          "internalType": "uint256",
          "name": "tokenId",
          "type": "uint256"
        }
      ],
      "name": "ownerOf",
      "outputs": [
        {
          "internalType": "address",
          "name": "",
          "type": "address"
        }
      ],
      "stateMutability": "view",
      "type": "function"
    },
    {
      "inputs": [
        {
          "internalType": "address",
          "name": "",
          "type": "address"
        }
      ],
      "name": "ownerToTokenId",
      "outputs": [
        {
          "internalType": "uint256",
          "name": "",
          "type": "uint256"
        }
      ],
      "stateMutability": "view",
      "type": "function"
    },
    {
      "inputs": [
        {
          "internalType": "uint256",
          "name": "tokenId",
          "type": "uint256"
        },
        {
          "internalType": "address",
          "name": "erc20Token",
          "type": "address"
        },
        {
          "internalType": "uint256",
          "name": "amount",
          "type": "uint256"
        }
      ],
      "name": "payTokenOwner",
      "outputs": [],
      "stateMutability": "payable",
      "type": "function"
    },
    {
      "inputs": [
        {
          "internalType": "string",
          "name": "",
          "type": "string"
        }
      ],
      "name": "projectTitleToTokenId",
      "outputs": [
        {
          "internalType": "uint256",
          "name": "",
          "type": "uint256"
        }
      ],
      "stateMutability": "view",
      "type": "function"
    },
    {
      "inputs": [],
      "name": "renounceOwnership",
      "outputs": [],
      "stateMutability": "nonpayable",
      "type": "function"
    },
    {
      "inputs": [
        {
          "internalType": "address",
          "name": "to",
          "type": "address"
        },
        {
          "internalType": "string",
          "name": "uri",
          "type": "string"
        },
        {
          "internalType": "string",
          "name": "projectTitle",
          "type": "string"
        }
      ],
      "name": "safeMint",
      "outputs": [],
      "stateMutability": "payable",
      "type": "function"
    },
    {
      "inputs": [
        {
          "internalType": "address",
          "name": "from",
          "type": "address"
        },
        {
          "internalType": "address",
          "name": "to",
          "type": "address"
        },
        {
          "internalType": "uint256",
          "name": "tokenId",
          "type": "uint256"
        }
      ],
      "name": "safeTransferFrom",
      "outputs": [],
      "stateMutability": "nonpayable",
      "type": "function"
    },
    {
      "inputs": [
        {
          "internalType": "address",
          "name": "from",
          "type": "address"
        },
        {
          "internalType": "address",
          "name": "to",
          "type": "address"
        },
        {
          "internalType": "uint256",
          "name": "tokenId",
          "type": "uint256"
        },
        {
          "internalType": "bytes",
          "name": "data",
          "type": "bytes"
        }
      ],
      "name": "safeTransferFrom",
      "outputs": [],
      "stateMutability": "nonpayable",
      "type": "function"
    },
    {
      "inputs": [
        {
          "internalType": "address",
          "name": "operator",
          "type": "address"
        },
        {
          "internalType": "bool",
          "name": "approved",
          "type": "bool"
        }
      ],
      "name": "setApprovalForAll",
      "outputs": [],
      "stateMutability": "nonpayable",
      "type": "function"
    },
    {
      "inputs": [
        {
          "internalType": "bytes4",
          "name": "interfaceId",
          "type": "bytes4"
        }
      ],
      "name": "supportsInterface",
      "outputs": [
        {
          "internalType": "bool",
          "name": "",
          "type": "bool"
        }
      ],
      "stateMutability": "view",
      "type": "function"
    },
    {
      "inputs": [],
      "name": "symbol",
      "outputs": [
        {
          "internalType": "string",
          "name": "",
          "type": "string"
        }
      ],
      "stateMutability": "view",
      "type": "function"
    },
    {
      "inputs": [
        {
          "internalType": "uint256",
          "name": "",
          "type": "uint256"
        }
      ],
      "name": "tokenIdToOwner",
      "outputs": [
        {
          "internalType": "address",
          "name": "",
          "type": "address"
        }
      ],
      "stateMutability": "view",
      "type": "function"
    },
    {
      "inputs": [
        {
          "internalType": "uint256",
          "name": "",
          "type": "uint256"
        }
      ],
      "name": "tokenIdToProjectTitle",
      "outputs": [
        {
          "internalType": "string",
          "name": "",
          "type": "string"
        }
      ],
      "stateMutability": "view",
      "type": "function"
    },
    {
      "inputs": [
        {
          "internalType": "uint256",
          "name": "tokenId",
          "type": "uint256"
        }
      ],
      "name": "tokenURI",
      "outputs": [
        {
          "internalType": "string",
          "name": "",
          "type": "string"
        }
      ],
      "stateMutability": "view",
      "type": "function"
    },
    {
      "inputs": [
        {
          "internalType": "address",
          "name": "from",
          "type": "address"
        },
        {
          "internalType": "address",
          "name": "to",
          "type": "address"
        },
        {
          "internalType": "uint256",
          "name": "tokenId",
          "type": "uint256"
        }
      ],
      "name": "transferFrom",
      "outputs": [],
      "stateMutability": "nonpayable",
      "type": "function"
    },
    {
      "inputs": [
        {
          "internalType": "address",
          "name": "newOwner",
          "type": "address"
        }
      ],
      "name": "transferOwnership",
      "outputs": [],
      "stateMutability": "nonpayable",
      "type": "function"
    },
    {
      "inputs": [],
      "name": "withdraw",
      "outputs": [],
      "stateMutability": "nonpayable",
      "type": "function"
    },
    {
      "inputs": [
        {
          "internalType": "address",
          "name": "erc20Token",
          "type": "address"
        },
        {
          "internalType": "uint256",
          "name": "amount",
          "type": "uint256"
        }
      ],
      "name": "withdrawToken",
      "outputs": [],
      "stateMutability": "nonpayable",
      "type": "function"
    }
  ],
  "bytecode": "0x60806040523480156200001157600080fd5b50604080518082018252601581527f4e66744f6e436861696e50617961626c65396e524700000000000000000000006020808301918252835180850190945260078452664e4f43396e524760c81b908401528151919291620000769160009162000105565b5080516200008c90600190602084019062000105565b505050620000a9620000a3620000af60201b60201c565b620000b3565b620001e7565b3390565b600780546001600160a01b038381166001600160a01b0319831681179093556040519116919082907f8be0079c531659141344cd1fd0a4f28419497f9722a3daafe3b4186f6b6457e090600090a35050565b8280546200011390620001ab565b90600052602060002090601f01602090048101928262000137576000855562000182565b82601f106200015257805160ff191683800117855562000182565b8280016001018555821562000182579182015b828111156200018257825182559160200191906001019062000165565b506200019092915062000194565b5090565b5b8082111562000190576000815560010162000195565b600181811c90821680620001c057607f821691505b602082108103620001e157634e487b7160e01b600052602260045260246000fd5b50919050565b6125d680620001f76000396000f3fe6080604052600436106101b75760003560e01c80638da5cb5b116100ec578063b88d4fde1161008a578063cd99b01011610064578063cd99b010146104df578063e985e9c514610517578063eca81d4214610560578063f2fde38b1461057357600080fd5b8063b88d4fde14610484578063c87b56dd146104a4578063ca0dcf16146104c457600080fd5b80639af1d35a116100c65780639af1d35a1461040e5780639e281a98146104245780639f4a7c1014610444578063a22cb4651461046457600080fd5b80638da5cb5b146103bb57806391f7e397146103d957806395d89b41146103f957600080fd5b80633ef636f9116101595780636352211e116101335780636352211e146103305780636e9e48ef1461035057806370a0823114610386578063715018a6146103a657600080fd5b80633ef636f9146102c257806342842e0e146102d55780634814f035146102f557600080fd5b8063095ea7b311610195578063095ea7b31461024b57806323b872dd1461026d578063265945881461028d5780633ccfd60b146102ad57600080fd5b806301ffc9a7146101bc57806306fdde03146101f1578063081812fc14610213575b600080fd5b3480156101c857600080fd5b506101dc6101d7366004611f75565b610593565b60405190151581526020015b60405180910390f35b3480156101fd57600080fd5b506102066105e5565b6040516101e89190611fea565b34801561021f57600080fd5b5061023361022e366004611ffd565b610677565b6040516001600160a01b0390911681526020016101e8565b34801561025757600080fd5b5061026b610266366004612032565b61069e565b005b34801561027957600080fd5b5061026b61028836600461205c565b6107b8565b34801561029957600080fd5b506102066102a8366004612098565b6107e9565b3480156102b957600080fd5b5061026b6108c0565b61026b6102d03660046120b3565b610955565b3480156102e157600080fd5b5061026b6102f036600461205c565b610dbc565b34801561030157600080fd5b50610322610310366004612098565b600b6020526000908152604090205481565b6040519081526020016101e8565b34801561033c57600080fd5b5061023361034b366004611ffd565b610dd7565b34801561035c57600080fd5b5061023361036b366004611ffd565b6009602052600090815260409020546001600160a01b031681565b34801561039257600080fd5b506103226103a1366004612098565b610e37565b3480156103b257600080fd5b5061026b610ebd565b3480156103c757600080fd5b506007546001600160a01b0316610233565b3480156103e557600080fd5b506102336103f4366004612184565b610ed1565b34801561040557600080fd5b50610206610f24565b34801561041a57600080fd5b50610322600c5481565b34801561043057600080fd5b5061026b61043f366004612032565b610f33565b34801561045057600080fd5b5061020661045f366004611ffd565b611100565b34801561047057600080fd5b5061026b61047f3660046121c7565b61119a565b34801561049057600080fd5b5061026b61049f3660046121fe565b6111a9565b3480156104b057600080fd5b506102066104bf366004611ffd565b6111e1565b3480156104d057600080fd5b5061032266b1a2bc2ec5000081565b3480156104eb57600080fd5b506103226104fa366004612184565b8051602081830181018051600a8252928201919093012091525481565b34801561052357600080fd5b506101dc61053236600461227a565b6001600160a01b03918216600090815260056020908152604080832093909416825291909152205460ff1690565b61026b61056e3660046122ad565b6111ec565b34801561057f57600080fd5b5061026b61058e366004612098565b611399565b60006001600160e01b031982166380ac58cd60e01b14806105c457506001600160e01b03198216635b5e139f60e01b145b806105df57506301ffc9a760e01b6001600160e01b03198316145b92915050565b6060600080546105f490612321565b80601f016020809104026020016040519081016040528092919081815260200182805461062090612321565b801561066d5780601f106106425761010080835404028352916020019161066d565b820191906000526020600020905b81548152906001019060200180831161065057829003601f168201915b5050505050905090565b60006106828261140f565b506000908152600460205260409020546001600160a01b031690565b60006106a982610dd7565b9050806001600160a01b0316836001600160a01b03160361071b5760405162461bcd60e51b815260206004820152602160248201527f4552433732313a20617070726f76616c20746f2063757272656e74206f776e656044820152603960f91b60648201526084015b60405180910390fd5b336001600160a01b038216148061073757506107378133610532565b6107a95760405162461bcd60e51b815260206004820152603d60248201527f4552433732313a20617070726f76652063616c6c6572206973206e6f7420746f60448201527f6b656e206f776e6572206f7220617070726f76656420666f7220616c6c0000006064820152608401610712565b6107b3838361146e565b505050565b6107c233826114dc565b6107de5760405162461bcd60e51b81526004016107129061235b565b6107b383838361155b565b6001600160a01b0381166000908152600b602052604090205460609080156108aa576000818152600860205260409020805461082490612321565b80601f016020809104026020016040519081016040528092919081815260200182805461085090612321565b801561089d5780601f106108725761010080835404028352916020019161089d565b820191906000526020600020905b81548152906001019060200180831161088057829003601f168201915b5050505050915050919050565b5050604080516020810190915260008152919050565b6108c86116bf565b604051600090339047908381818185875af1925050503d806000811461090a576040519150601f19603f3d011682016040523d82523d6000602084013e61090f565b606091505b50509050806109525760405162461bcd60e51b815260206004820152600f60248201526e151c985b9cd9995c8811985a5b1959608a1b6044820152606401610712565b50565b600061096084610dd7565b90506001600160a01b03811633036109b05760405162461bcd60e51b815260206004820152601360248201527221b0b73737ba103830bc903cb7bab939b2b63360691b6044820152606401610712565b600084815260086020526040812080546109c990612321565b905011610a105760405162461bcd60e51b8152602060048201526015602482015274141c9bda9958dd081d1a5d1b19481b9bdd081cd95d605a1b6044820152606401610712565b600034600003610ccf576001600160a01b038416610a705760405162461bcd60e51b815260206004820152601c60248201527f496e76616c6964204552432d323020746f6b656e2061646472657373000000006044820152606401610712565b604051636eb1769f60e11b8152336004820152306024820152849084906001600160a01b0383169063dd62ed3e90604401602060405180830381865afa158015610abe573d6000803e3d6000fd5b505050506040513d601f19601f82011682018060405250810190610ae291906123a8565b1015610b295760405162461bcd60e51b8152602060048201526016602482015275496e73756666696369656e7420616c6c6f77616e636560501b6044820152606401610712565b6040516370a0823160e01b815233600482015284906001600160a01b038316906370a0823190602401602060405180830381865afa158015610b6f573d6000803e3d6000fd5b505050506040513d601f19601f82011682018060405250810190610b9391906123a8565b1015610bd85760405162461bcd60e51b8152602060048201526014602482015273496e73756666696369656e742062616c616e636560601b6044820152606401610712565b6103e8610be685600f6123d7565b610bf091906123f6565b91506001600160a01b0381166323b872dd3385610c0d8689612418565b6040516001600160e01b031960e086901b1681526001600160a01b03938416600482015292909116602483015260448201526064016020604051808303816000875af1158015610c61573d6000803e3d6000fd5b505050506040513d601f19601f82011682018060405250810190610c85919061242f565b610cc95760405162461bcd60e51b8152602060048201526015602482015274151bdad95b881d1c985b9cd9995c8819985a5b1959605a1b6044820152606401610712565b50610d79565b6103e8610cdd34600f6123d7565b610ce791906123f6565b9050823414610d385760405162461bcd60e51b815260206004820152601c60248201527f496e636f727265637420455448207061796d656e7420616d6f756e74000000006044820152606401610712565b6001600160a01b0382166108fc610d4f8386612418565b6040518115909202916000818181858888f19350505050158015610d77573d6000803e3d6000fd5b505b6001600160a01b03841673301944751abb2f5000c71b050b139e31aeae472014610db55780600c6000828254610daf919061244c565b90915550505b5050505050565b6107b3838383604051806020016040528060008152506111a9565b6000818152600260205260408120546001600160a01b0316806105df5760405162461bcd60e51b8152602060048201526018602482015277115490cdcc8c4e881a5b9d985b1a59081d1bdad95b88125160421b6044820152606401610712565b60006001600160a01b038216610ea15760405162461bcd60e51b815260206004820152602960248201527f4552433732313a2061646472657373207a65726f206973206e6f7420612076616044820152683634b21037bbb732b960b91b6064820152608401610712565b506001600160a01b031660009081526003602052604090205490565b610ec56116bf565b610ecf6000611719565b565b600080600a83604051610ee49190612464565b908152602001604051809103902054905080600014610f1b576000908152600960205260409020546001600160a01b031692915050565b50600092915050565b6060600180546105f490612321565b610f3b6116bf565b6001600160a01b038216610f915760405162461bcd60e51b815260206004820152601c60248201527f496e76616c6964204552432d323020746f6b656e2061646472657373000000006044820152606401610712565b6040516370a0823160e01b8152306004820152829082906001600160a01b038316906370a0823190602401602060405180830381865afa158015610fd9573d6000803e3d6000fd5b505050506040513d601f19601f82011682018060405250810190610ffd91906123a8565b101561104b5760405162461bcd60e51b815260206004820152601a60248201527f496e73756666696369656e7420746f6b656e2062616c616e63650000000000006044820152606401610712565b60405163a9059cbb60e01b8152336004820152602481018390526001600160a01b0382169063a9059cbb906044016020604051808303816000875af1158015611098573d6000803e3d6000fd5b505050506040513d601f19601f820116820180604052508101906110bc919061242f565b6107b35760405162461bcd60e51b8152602060048201526015602482015274151bdad95b881d1c985b9cd9995c8819985a5b1959605a1b6044820152606401610712565b6008602052600090815260409020805461111990612321565b80601f016020809104026020016040519081016040528092919081815260200182805461114590612321565b80156111925780601f1061116757610100808354040283529160200191611192565b820191906000526020600020905b81548152906001019060200180831161117557829003601f168201915b505050505081565b6111a533838361176b565b5050565b6111b333836114dc565b6111cf5760405162461bcd60e51b81526004016107129061235b565b6111db84848484611839565b50505050565b60606105df8261186c565b66b1a2bc2ec50000600c54611201919061244c565b3410156112465760405162461bcd60e51b8152602060048201526013602482015272139bdd08195b9bdd59da08115512081cd95b9d606a1b6044820152606401610712565b600a816040516112569190612464565b9081526020016040518091039020546000146112b45760405162461bcd60e51b815260206004820152601c60248201527f50726f6a656374207469746c6520616c726561647920657869737473000000006044820152606401610712565b60006112bf600d5490565b90506112cf600d80546001019055565b6112d98482611974565b6112e3818461198e565b6000818152600860209081526040909120835161130292850190611ec6565b506000818152600960205260409081902080546001600160a01b0319166001600160a01b038716179055518190600a9061133d908590612464565b9081526040805160209281900383018120939093556001600160a01b038781166000908152600b909352908220849055600754169166b1a2bc2ec500009082818181858883f19350505050158015610db5573d6000803e3d6000fd5b6113a16116bf565b6001600160a01b0381166114065760405162461bcd60e51b815260206004820152602660248201527f4f776e61626c653a206e6577206f776e657220697320746865207a65726f206160448201526564647265737360d01b6064820152608401610712565b61095281611719565b6000818152600260205260409020546001600160a01b03166109525760405162461bcd60e51b8152602060048201526018602482015277115490cdcc8c4e881a5b9d985b1a59081d1bdad95b88125160421b6044820152606401610712565b600081815260046020526040902080546001600160a01b0319166001600160a01b03841690811790915581906114a382610dd7565b6001600160a01b03167f8c5be1e5ebec7d5bd14f71427d1e84f3dd0314c0f7b2291e5b200ac8c7c3b92560405160405180910390a45050565b6000806114e883610dd7565b9050806001600160a01b0316846001600160a01b0316148061152f57506001600160a01b0380821660009081526005602090815260408083209388168352929052205460ff165b806115535750836001600160a01b031661154884610677565b6001600160a01b0316145b949350505050565b826001600160a01b031661156e82610dd7565b6001600160a01b0316146115945760405162461bcd60e51b815260040161071290612480565b6001600160a01b0382166115f65760405162461bcd60e51b8152602060048201526024808201527f4552433732313a207472616e7366657220746f20746865207a65726f206164646044820152637265737360e01b6064820152608401610712565b826001600160a01b031661160982610dd7565b6001600160a01b03161461162f5760405162461bcd60e51b815260040161071290612480565b600081815260046020908152604080832080546001600160a01b03199081169091556001600160a01b0387811680865260038552838620805460001901905590871680865283862080546001019055868652600290945282852080549092168417909155905184937fddf252ad1be2c89b69c2b068fc378daa952ba7f163c4a11628f55a4df523b3ef91a4505050565b6007546001600160a01b03163314610ecf5760405162461bcd60e51b815260206004820181905260248201527f4f776e61626c653a2063616c6c6572206973206e6f7420746865206f776e65726044820152606401610712565b600780546001600160a01b038381166001600160a01b0319831681179093556040519116919082907f8be0079c531659141344cd1fd0a4f28419497f9722a3daafe3b4186f6b6457e090600090a35050565b816001600160a01b0316836001600160a01b0316036117cc5760405162461bcd60e51b815260206004820152601960248201527f4552433732313a20617070726f766520746f2063616c6c6572000000000000006044820152606401610712565b6001600160a01b03838116600081815260056020908152604080832094871680845294825291829020805460ff191686151590811790915591519182527f17307eab39ab6107e8899845ad3d59bd9653f200f220920489ca2b5937696c31910160405180910390a3505050565b61184484848461155b565b61185084848484611a28565b6111db5760405162461bcd60e51b8152600401610712906124c5565b60606118778261140f565b6000828152600660205260408120805461189090612321565b80601f01602080910402602001604051908101604052809291908181526020018280546118bc90612321565b80156119095780601f106118de57610100808354040283529160200191611909565b820191906000526020600020905b8154815290600101906020018083116118ec57829003601f168201915b50505050509050600061192760408051602081019091526000815290565b90508051600003611939575092915050565b81511561196b578082604051602001611953929190612517565b60405160208183030381529060405292505050919050565b61155384611b29565b6111a5828260405180602001604052806000815250611b9d565b6000828152600260205260409020546001600160a01b0316611a095760405162461bcd60e51b815260206004820152602e60248201527f45524337323155524953746f726167653a2055524920736574206f66206e6f6e60448201526d32bc34b9ba32b73a103a37b5b2b760911b6064820152608401610712565b600082815260066020908152604090912082516107b392840190611ec6565b60006001600160a01b0384163b15611b1e57604051630a85bd0160e11b81526001600160a01b0385169063150b7a0290611a6c903390899088908890600401612546565b6020604051808303816000875af1925050508015611aa7575060408051601f3d908101601f19168201909252611aa491810190612583565b60015b611b04573d808015611ad5576040519150601f19603f3d011682016040523d82523d6000602084013e611ada565b606091505b508051600003611afc5760405162461bcd60e51b8152600401610712906124c5565b805181602001fd5b6001600160e01b031916630a85bd0160e11b149050611553565b506001949350505050565b6060611b348261140f565b6000611b4b60408051602081019091526000815290565b90506000815111611b6b5760405180602001604052806000815250611b96565b80611b7584611bd0565b604051602001611b86929190612517565b6040516020818303038152906040525b9392505050565b611ba78383611c63565b611bb46000848484611a28565b6107b35760405162461bcd60e51b8152600401610712906124c5565b60606000611bdd83611dee565b600101905060008167ffffffffffffffff811115611bfd57611bfd6120d8565b6040519080825280601f01601f191660200182016040528015611c27576020820181803683370190505b5090508181016020015b600019016f181899199a1a9b1b9c1cb0b131b232b360811b600a86061a8153600a8504945084611c3157509392505050565b6001600160a01b038216611cb95760405162461bcd60e51b815260206004820181905260248201527f4552433732313a206d696e7420746f20746865207a65726f20616464726573736044820152606401610712565b6000818152600260205260409020546001600160a01b031615611d1e5760405162461bcd60e51b815260206004820152601c60248201527f4552433732313a20746f6b656e20616c7265616479206d696e746564000000006044820152606401610712565b6000818152600260205260409020546001600160a01b031615611d835760405162461bcd60e51b815260206004820152601c60248201527f4552433732313a20746f6b656e20616c7265616479206d696e746564000000006044820152606401610712565b6001600160a01b038216600081815260036020908152604080832080546001019055848352600290915280822080546001600160a01b0319168417905551839291907fddf252ad1be2c89b69c2b068fc378daa952ba7f163c4a11628f55a4df523b3ef908290a45050565b60008072184f03e93ff9f4daa797ed6e38ed64bf6a1f0160401b8310611e2d5772184f03e93ff9f4daa797ed6e38ed64bf6a1f0160401b830492506040015b6d04ee2d6d415b85acef81000000008310611e59576d04ee2d6d415b85acef8100000000830492506020015b662386f26fc100008310611e7757662386f26fc10000830492506010015b6305f5e1008310611e8f576305f5e100830492506008015b6127108310611ea357612710830492506004015b60648310611eb5576064830492506002015b600a83106105df5760010192915050565b828054611ed290612321565b90600052602060002090601f016020900481019282611ef45760008555611f3a565b82601f10611f0d57805160ff1916838001178555611f3a565b82800160010185558215611f3a579182015b82811115611f3a578251825591602001919060010190611f1f565b50611f46929150611f4a565b5090565b5b80821115611f465760008155600101611f4b565b6001600160e01b03198116811461095257600080fd5b600060208284031215611f8757600080fd5b8135611b9681611f5f565b60005b83811015611fad578181015183820152602001611f95565b838111156111db5750506000910152565b60008151808452611fd6816020860160208601611f92565b601f01601f19169290920160200192915050565b602081526000611b966020830184611fbe565b60006020828403121561200f57600080fd5b5035919050565b80356001600160a01b038116811461202d57600080fd5b919050565b6000806040838503121561204557600080fd5b61204e83612016565b946020939093013593505050565b60008060006060848603121561207157600080fd5b61207a84612016565b925061208860208501612016565b9150604084013590509250925092565b6000602082840312156120aa57600080fd5b611b9682612016565b6000806000606084860312156120c857600080fd5b8335925061208860208501612016565b634e487b7160e01b600052604160045260246000fd5b600067ffffffffffffffff80841115612109576121096120d8565b604051601f8501601f19908116603f01168101908282118183101715612131576121316120d8565b8160405280935085815286868601111561214a57600080fd5b858560208301376000602087830101525050509392505050565b600082601f83011261217557600080fd5b611b96838335602085016120ee565b60006020828403121561219657600080fd5b813567ffffffffffffffff8111156121ad57600080fd5b61155384828501612164565b801515811461095257600080fd5b600080604083850312156121da57600080fd5b6121e383612016565b915060208301356121f3816121b9565b809150509250929050565b6000806000806080858703121561221457600080fd5b61221d85612016565b935061222b60208601612016565b925060408501359150606085013567ffffffffffffffff81111561224e57600080fd5b8501601f8101871361225f57600080fd5b61226e878235602084016120ee565b91505092959194509250565b6000806040838503121561228d57600080fd5b61229683612016565b91506122a460208401612016565b90509250929050565b6000806000606084860312156122c257600080fd5b6122cb84612016565b9250602084013567ffffffffffffffff808211156122e857600080fd5b6122f487838801612164565b9350604086013591508082111561230a57600080fd5b5061231786828701612164565b9150509250925092565b600181811c9082168061233557607f821691505b60208210810361235557634e487b7160e01b600052602260045260246000fd5b50919050565b6020808252602d908201527f4552433732313a2063616c6c6572206973206e6f7420746f6b656e206f776e6560408201526c1c881bdc88185c1c1c9bdd9959609a1b606082015260800190565b6000602082840312156123ba57600080fd5b5051919050565b634e487b7160e01b600052601160045260246000fd5b60008160001904831182151516156123f1576123f16123c1565b500290565b60008261241357634e487b7160e01b600052601260045260246000fd5b500490565b60008282101561242a5761242a6123c1565b500390565b60006020828403121561244157600080fd5b8151611b96816121b9565b6000821982111561245f5761245f6123c1565b500190565b60008251612476818460208701611f92565b9190910192915050565b60208082526025908201527f4552433732313a207472616e736665722066726f6d20696e636f72726563742060408201526437bbb732b960d91b606082015260800190565b60208082526032908201527f4552433732313a207472616e7366657220746f206e6f6e20455243373231526560408201527131b2b4bb32b91034b6b83632b6b2b73a32b960711b606082015260800190565b60008351612529818460208801611f92565b83519083019061253d818360208801611f92565b01949350505050565b6001600160a01b038581168252841660208201526040810183905260806060820181905260009061257990830184611fbe565b9695505050505050565b60006020828403121561259557600080fd5b8151611b9681611f5f56fea2646970667358221220d665472e72b1180556239dc41311072eadf0951ce39ee6f2bcf849c0e32a00cb64736f6c634300080d0033",
  "linkReferences": {},
  "deployedLinkReferences": {}
}