{
  "_format": "hh-sol-artifact-1",
  "contractName": "BatchNFTs",
  "sourceName": "contracts/BatchNFTs.sol",
  "abi": [
    {
      "inputs": [
        {
          "internalType": "uint256",
          "name": "_startTime",
          "type": "uint256"
        },
        {
          "internalType": "bool",
          "name": "_paused",
          "type": "bool"
        }
      ],
      "stateMutability": "nonpayable",
      "type": "constructor"
    },
    {
      "inputs": [],
      "name": "ApprovalCallerNotOwnerNorApproved",
      "type": "error"
    },
    {
      "inputs": [],
      "name": "ApprovalQueryForNonexistentToken",
      "type": "error"
    },
    {
      "inputs": [],
      "name": "BalanceQueryForZeroAddress",
      "type": "error"
    },
    {
      "inputs": [],
      "name": "MintERC2309QuantityExceedsLimit",
      "type": "error"
    },
    {
      "inputs": [],
      "name": "MintToZeroAddress",
      "type": "error"
    },
    {
      "inputs": [],
      "name": "MintZeroQuantity",
      "type": "error"
    },
    {
      "inputs": [],
      "name": "OwnerQueryForNonexistentToken",
      "type": "error"
    },
    {
      "inputs": [],
      "name": "OwnershipNotInitializedForExtraData",
      "type": "error"
    },
    {
      "inputs": [],
      "name": "TransferCallerNotOwnerNorApproved",
      "type": "error"
    },
    {
      "inputs": [],
      "name": "TransferFromIncorrectOwner",
      "type": "error"
    },
    {
      "inputs": [],
      "name": "TransferToNonERC721ReceiverImplementer",
      "type": "error"
    },
    {
      "inputs": [],
      "name": "TransferToZeroAddress",
      "type": "error"
    },
    {
      "inputs": [],
      "name": "URIQueryForNonexistentToken",
      "type": "error"
    },
    {
      "anonymous": false,
      "inputs": [
        {
          "indexed": true,
          "internalType": "address",
          "name": "owner",
          "type": "address"
        },
        {
          "indexed": true,
          "internalType": "address",
          "name": "approved",
          "type": "address"
        },
        {
          "indexed": true,
          "internalType": "uint256",
          "name": "tokenId",
          "type": "uint256"
        }
      ],
      "name": "Approval",
      "type": "event"
    },
    {
      "anonymous": false,
      "inputs": [
        {
          "indexed": true,
          "internalType": "address",
          "name": "owner",
          "type": "address"
        },
        {
          "indexed": true,
          "internalType": "address",
          "name": "operator",
          "type": "address"
        },
        {
          "indexed": false,
          "internalType": "bool",
          "name": "approved",
          "type": "bool"
        }
      ],
      "name": "ApprovalForAll",
      "type": "event"
    },
    {
      "anonymous": false,
      "inputs": [
        {
          "indexed": true,
          "internalType": "uint256",
          "name": "fromTokenId",
          "type": "uint256"
        },
        {
          "indexed": false,
          "internalType": "uint256",
          "name": "toTokenId",
          "type": "uint256"
        },
        {
          "indexed": true,
          "internalType": "address",
          "name": "from",
          "type": "address"
        },
        {
          "indexed": true,
          "internalType": "address",
          "name": "to",
          "type": "address"
        }
      ],
      "name": "ConsecutiveTransfer",
      "type": "event"
    },
    {
      "anonymous": false,
      "inputs": [
        {
          "indexed": true,
          "internalType": "address",
          "name": "previousOwner",
          "type": "address"
        },
        {
          "indexed": true,
          "internalType": "address",
          "name": "newOwner",
          "type": "address"
        }
      ],
      "name": "OwnershipTransferred",
      "type": "event"
    },
    {
      "anonymous": false,
      "inputs": [
        {
          "indexed": true,
          "internalType": "address",
          "name": "from",
          "type": "address"
        },
        {
          "indexed": true,
          "internalType": "address",
          "name": "to",
          "type": "address"
        },
        {
          "indexed": true,
          "internalType": "uint256",
          "name": "tokenId",
          "type": "uint256"
        }
      ],
      "name": "Transfer",
      "type": "event"
    },
    {
      "inputs": [],
      "name": "MAX_SUPPLY",
      "outputs": [
        {
          "internalType": "uint256",
          "name": "",
          "type": "uint256"
        }
      ],
      "stateMutability": "view",
      "type": "function"
    },
    {
      "inputs": [],
      "name": "START_TIME",
      "outputs": [
        {
          "internalType": "uint256",
          "name": "",
          "type": "uint256"
        }
      ],
      "stateMutability": "view",
      "type": "function"
    },
    {
      "inputs": [
        {
          "internalType": "address",
          "name": "to",
          "type": "address"
        },
        {
          "internalType": "uint256",
          "name": "tokenId",
          "type": "uint256"
        }
      ],
      "name": "approve",
      "outputs": [],
      "stateMutability": "payable",
      "type": "function"
    },
    {
      "inputs": [
        {
          "internalType": "address",
          "name": "owner",
          "type": "address"
        }
      ],
      "name": "balanceOf",
      "outputs": [
        {
          "internalType": "uint256",
          "name": "",
          "type": "uint256"
        }
      ],
      "stateMutability": "view",
      "type": "function"
    },
    {
      "inputs": [
        {
          "internalType": "uint256",
          "name": "tokenId",
          "type": "uint256"
        }
      ],
      "name": "getApproved",
      "outputs": [
        {
          "internalType": "address",
          "name": "",
          "type": "address"
        }
      ],
      "stateMutability": "view",
      "type": "function"
    },
    {
      "inputs": [
        {
          "internalType": "address",
          "name": "owner",
          "type": "address"
        },
        {
          "internalType": "address",
          "name": "operator",
          "type": "address"
        }
      ],
      "name": "isApprovedForAll",
      "outputs": [
        {
          "internalType": "bool",
          "name": "",
          "type": "bool"
        }
      ],
      "stateMutability": "view",
      "type": "function"
    },
    {
      "inputs": [
        {
          "internalType": "address",
          "name": "to",
          "type": "address"
        },
        {
          "internalType": "uint256",
          "name": "quantity",
          "type": "uint256"
        }
      ],
      "name": "mint",
      "outputs": [],
      "stateMutability": "payable",
      "type": "function"
    },
    {
      "inputs": [],
      "name": "mintPaused",
      "outputs": [
        {
          "internalType": "bool",
          "name": "",
          "type": "bool"
        }
      ],
      "stateMutability": "view",
      "type": "function"
    },
    {
      "inputs": [],
      "name": "mintRate",
      "outputs": [
        {
          "internalType": "uint256",
          "name": "",
          "type": "uint256"
        }
      ],
      "stateMutability": "view",
      "type": "function"
    },
    {
      "inputs": [],
      "name": "name",
      "outputs": [
        {
          "internalType": "string",
          "name": "",
          "type": "string"
        }
      ],
      "stateMutability": "view",
      "type": "function"
    },
    {
      "inputs": [],
      "name": "owner",
      "outputs": [
        {
          "internalType": "address",
          "name": "",
          "type": "address"
        }
      ],
      "stateMutability": "view",
      "type": "function"
    },
    {
      "inputs": [
        {
          "internalType": "uint256",
          "name": "tokenId",
          "type": "uint256"
        }
      ],
      "name": "ownerOf",
      "outputs": [
        {
          "internalType": "address",
          "name": "",
          "type": "address"
        }
      ],
      "stateMutability": "view",
      "type": "function"
    },
    {
      "inputs": [
        {
          "internalType": "bool",
          "name": "_paused",
          "type": "bool"
        }
      ],
      "name": "pauseMint",
      "outputs": [],
      "stateMutability": "nonpayable",
      "type": "function"
    },
    {
      "inputs": [],
      "name": "renounceOwnership",
      "outputs": [],
      "stateMutability": "nonpayable",
      "type": "function"
    },
    {
      "inputs": [
        {
          "internalType": "address",
          "name": "from",
          "type": "address"
        },
        {
          "internalType": "address",
          "name": "to",
          "type": "address"
        },
        {
          "internalType": "uint256",
          "name": "tokenId",
          "type": "uint256"
        }
      ],
      "name": "safeTransferFrom",
      "outputs": [],
      "stateMutability": "payable",
      "type": "function"
    },
    {
      "inputs": [
        {
          "internalType": "address",
          "name": "from",
          "type": "address"
        },
        {
          "internalType": "address",
          "name": "to",
          "type": "address"
        },
        {
          "internalType": "uint256",
          "name": "tokenId",
          "type": "uint256"
        },
        {
          "internalType": "bytes",
          "name": "_data",
          "type": "bytes"
        }
      ],
      "name": "safeTransferFrom",
      "outputs": [],
      "stateMutability": "payable",
      "type": "function"
    },
    {
      "inputs": [
        {
          "internalType": "address",
          "name": "operator",
          "type": "address"
        },
        {
          "internalType": "bool",
          "name": "approved",
          "type": "bool"
        }
      ],
      "name": "setApprovalForAll",
      "outputs": [],
      "stateMutability": "nonpayable",
      "type": "function"
    },
    {
      "inputs": [
        {
          "internalType": "string",
          "name": "baseURI",
          "type": "string"
        }
      ],
      "name": "setBaseURI",
      "outputs": [],
      "stateMutability": "nonpayable",
      "type": "function"
    },
    {
      "inputs": [
        {
          "internalType": "string",
          "name": "_uriSuffix",
          "type": "string"
        }
      ],
      "name": "setUriSuffix",
      "outputs": [],
      "stateMutability": "nonpayable",
      "type": "function"
    },
    {
      "inputs": [
        {
          "internalType": "bytes4",
          "name": "interfaceId",
          "type": "bytes4"
        }
      ],
      "name": "supportsInterface",
      "outputs": [
        {
          "internalType": "bool",
          "name": "",
          "type": "bool"
        }
      ],
      "stateMutability": "view",
      "type": "function"
    },
    {
      "inputs": [],
      "name": "symbol",
      "outputs": [
        {
          "internalType": "string",
          "name": "",
          "type": "string"
        }
      ],
      "stateMutability": "view",
      "type": "function"
    },
    {
      "inputs": [
        {
          "internalType": "uint256",
          "name": "tokenId",
          "type": "uint256"
        }
      ],
      "name": "tokenURI",
      "outputs": [
        {
          "internalType": "string",
          "name": "",
          "type": "string"
        }
      ],
      "stateMutability": "view",
      "type": "function"
    },
    {
      "inputs": [],
      "name": "totalSupply",
      "outputs": [
        {
          "internalType": "uint256",
          "name": "",
          "type": "uint256"
        }
      ],
      "stateMutability": "view",
      "type": "function"
    },
    {
      "inputs": [
        {
          "internalType": "address",
          "name": "from",
          "type": "address"
        },
        {
          "internalType": "address",
          "name": "to",
          "type": "address"
        },
        {
          "internalType": "uint256",
          "name": "tokenId",
          "type": "uint256"
        }
      ],
      "name": "transferFrom",
      "outputs": [],
      "stateMutability": "payable",
      "type": "function"
    },
    {
      "inputs": [
        {
          "internalType": "address",
          "name": "newOwner",
          "type": "address"
        }
      ],
      "name": "transferOwnership",
      "outputs": [],
      "stateMutability": "nonpayable",
      "type": "function"
    },
    {
      "inputs": [],
      "name": "uriSuffix",
      "outputs": [
        {
          "internalType": "string",
          "name": "",
          "type": "string"
        }
      ],
      "stateMutability": "view",
      "type": "function"
    },
    {
      "inputs": [],
      "name": "withdraw",
      "outputs": [],
      "stateMutability": "nonpayable",
      "type": "function"
    }
  ],
  "bytecode": "0x60e0604052600560a081905264173539b7b760d91b60c09081526200002891600b91906200015a565b503480156200003657600080fd5b5060405162001a4638038062001a46833981016040819052620000599162000200565b6040518060400160405280600d81526020016c22a9219b9918a0902a37b5b2b760991b815250604051806040016040528060048152602001633732314160e01b815250620000b6620000b06200010660201b60201c565b6200010a565b8151620000cb9060039060208501906200015a565b508051620000e19060049060208401906200015a565b50600060015550506080919091526009805460ff191691151591909117905562000273565b3390565b600080546001600160a01b038381166001600160a01b0319831681178455604051919092169283917f8be0079c531659141344cd1fd0a4f28419497f9722a3daafe3b4186f6b6457e09190a35050565b828054620001689062000237565b90600052602060002090601f0160209004810192826200018c5760008555620001d7565b82601f10620001a757805160ff1916838001178555620001d7565b82800160010185558215620001d7579182015b82811115620001d7578251825591602001919060010190620001ba565b50620001e5929150620001e9565b5090565b5b80821115620001e55760008155600101620001ea565b600080604083850312156200021457600080fd5b82519150602083015180151581146200022c57600080fd5b809150509250929050565b600181811c908216806200024c57607f821691505b6020821081036200026d57634e487b7160e01b600052602260045260246000fd5b50919050565b6080516117b06200029660003960008181610442015261094c01526117b06000f3fe60806040526004361061019c5760003560e01c80636352211e116100ec578063b88d4fde1161008a578063ddaa26ad11610064578063ddaa26ad14610430578063e985e9c514610464578063f2fde38b146104ad578063f30e6e77146104cd57600080fd5b8063b88d4fde146103e2578063c87b56dd146103f5578063ca0dcf161461041557600080fd5b80637e4831d3116100c65780637e4831d3146103755780638da5cb5b1461038f57806395d89b41146103ad578063a22cb465146103c257600080fd5b80636352211e1461032057806370a0823114610340578063715018a61461036057600080fd5b806323b872dd1161015957806340c10f191161013357806340c10f19146102c557806342842e0e146102d85780635503a0e8146102eb57806355f804b31461030057600080fd5b806323b872dd1461028857806332cb6b0c1461029b5780633ccfd60b146102b057600080fd5b806301ffc9a7146101a157806306fdde03146101d6578063081812fc146101f8578063095ea7b31461023057806316ba10e01461024557806318160ddd14610265575b600080fd5b3480156101ad57600080fd5b506101c16101bc36600461124d565b6104ed565b60405190151581526020015b60405180910390f35b3480156101e257600080fd5b506101eb61053f565b6040516101cd91906112c2565b34801561020457600080fd5b506102186102133660046112d5565b6105d1565b6040516001600160a01b0390911681526020016101cd565b61024361023e36600461130a565b610615565b005b34801561025157600080fd5b506102436102603660046113c0565b6106b5565b34801561027157600080fd5b50600254600154035b6040519081526020016101cd565b610243610296366004611409565b6106d4565b3480156102a757600080fd5b5061027a606481565b3480156102bc57600080fd5b5061024361086c565b6102436102d336600461130a565b610906565b6102436102e6366004611409565b610a61565b3480156102f757600080fd5b506101eb610a81565b34801561030c57600080fd5b5061024361031b366004611445565b610b0f565b34801561032c57600080fd5b5061021861033b3660046112d5565b610b23565b34801561034c57600080fd5b5061027a61035b3660046114b7565b610b2e565b34801561036c57600080fd5b50610243610b7d565b34801561038157600080fd5b506009546101c19060ff1681565b34801561039b57600080fd5b506000546001600160a01b0316610218565b3480156103b957600080fd5b506101eb610b91565b3480156103ce57600080fd5b506102436103dd3660046114e2565b610ba0565b6102436103f0366004611515565b610c0c565b34801561040157600080fd5b506101eb6104103660046112d5565b610c56565b34801561042157600080fd5b5061027a66038d7ea4c6800081565b34801561043c57600080fd5b5061027a7f000000000000000000000000000000000000000000000000000000000000000081565b34801561047057600080fd5b506101c161047f366004611591565b6001600160a01b03918216600090815260086020908152604080832093909416825291909152205460ff1690565b3480156104b957600080fd5b506102436104c83660046114b7565b610cdd565b3480156104d957600080fd5b506102436104e83660046115bb565b610d53565b60006301ffc9a760e01b6001600160e01b03198316148061051e57506380ac58cd60e01b6001600160e01b03198316145b806105395750635b5e139f60e01b6001600160e01b03198316145b92915050565b60606003805461054e906115d6565b80601f016020809104026020016040519081016040528092919081815260200182805461057a906115d6565b80156105c75780601f1061059c576101008083540402835291602001916105c7565b820191906000526020600020905b8154815290600101906020018083116105aa57829003601f168201915b5050505050905090565b60006105dc82610db4565b6105f9576040516333d1c03960e21b815260040160405180910390fd5b506000908152600760205260409020546001600160a01b031690565b600061062082610b23565b9050336001600160a01b038216146106595761063c813361047f565b610659576040516367d9dca160e11b815260040160405180910390fd5b60008281526007602052604080822080546001600160a01b0319166001600160a01b0387811691821790925591518593918516917f8c5be1e5ebec7d5bd14f71427d1e84f3dd0314c0f7b2291e5b200ac8c7c3b92591a4505050565b6106bd610ddc565b80516106d090600b90602084019061112a565b5050565b60006106df82610e36565b9050836001600160a01b0316816001600160a01b0316146107125760405162a1148160e81b815260040160405180910390fd5b60008281526007602052604090208054338082146001600160a01b0388169091141761075f57610742863361047f565b61075f57604051632ce44b5f60e11b815260040160405180910390fd5b6001600160a01b03851661078657604051633a954ecd60e21b815260040160405180910390fd5b801561079157600082555b6001600160a01b038681166000908152600660205260408082208054600019019055918716808252919020805460010190554260a01b17600160e11b17600085815260056020526040812091909155600160e11b84169003610823576001840160008181526005602052604081205490036108215760015481146108215760008181526005602052604090208490555b505b83856001600160a01b0316876001600160a01b03167fddf252ad1be2c89b69c2b068fc378daa952ba7f163c4a11628f55a4df523b3ef60405160405180910390a4505050505050565b610874610ddc565b604051600090339047908381818185875af1925050503d80600081146108b6576040519150601f19603f3d011682016040523d82523d6000602084013e6108bb565b606091505b50509050806109035760405162461bcd60e51b815260206004820152600f60248201526e151c985b9cd9995c8811985a5b1959608a1b60448201526064015b60405180910390fd5b50565b60095460ff161561094a5760405162461bcd60e51b815260206004820152600e60248201526d135a5b9d081a5cc81c185d5cd95960921b60448201526064016108fa565b7f00000000000000000000000000000000000000000000000000000000000000004210156109ad5760405162461bcd60e51b815260206004820152601060248201526f14d85b19481b9bdd081cdd185c9d195960821b60448201526064016108fa565b6064816109b960015490565b6109c39190611626565b1115610a025760405162461bcd60e51b815260206004820152600e60248201526d13585e0814dd5c1c1b1e48121a5d60921b60448201526064016108fa565b610a1366038d7ea4c680008261163e565b341015610a575760405162461bcd60e51b8152602060048201526012602482015271496e73756666696369656e742046756e647360701b60448201526064016108fa565b6106d08282610e9d565b610a7c83838360405180602001604052806000815250610c0c565b505050565b600b8054610a8e906115d6565b80601f0160208091040260200160405190810160405280929190818152602001828054610aba906115d6565b8015610b075780601f10610adc57610100808354040283529160200191610b07565b820191906000526020600020905b815481529060010190602001808311610aea57829003601f168201915b505050505081565b610b17610ddc565b610a7c600a83836111ae565b600061053982610e36565b60006001600160a01b038216610b57576040516323d3ad8160e21b815260040160405180910390fd5b506001600160a01b031660009081526006602052604090205467ffffffffffffffff1690565b610b85610ddc565b610b8f6000610f9b565b565b60606004805461054e906115d6565b3360008181526008602090815260408083206001600160a01b03871680855290835292819020805460ff191686151590811790915590519081529192917f17307eab39ab6107e8899845ad3d59bd9653f200f220920489ca2b5937696c31910160405180910390a35050565b610c178484846106d4565b6001600160a01b0383163b15610c5057610c3384848484610feb565b610c50576040516368d2bf6b60e11b815260040160405180910390fd5b50505050565b6060610c6182610db4565b610c7e57604051630a14c4b560e41b815260040160405180910390fd5b6000610c886110d7565b90508051600003610ca85760405180602001604052806000815250610cd6565b80610cb2846110e6565b600b604051602001610cc69392919061165d565b6040516020818303038152906040525b9392505050565b610ce5610ddc565b6001600160a01b038116610d4a5760405162461bcd60e51b815260206004820152602660248201527f4f776e61626c653a206e6577206f776e657220697320746865207a65726f206160448201526564647265737360d01b60648201526084016108fa565b61090381610f9b565b610d5b610ddc565b60095460ff1615610da15760405162461bcd60e51b815260206004820152601060248201526f21b7b73a3930b1ba103830bab9b2b21760811b60448201526064016108fa565b6009805460ff1916911515919091179055565b600060015482108015610539575050600090815260056020526040902054600160e01b161590565b6000546001600160a01b03163314610b8f5760405162461bcd60e51b815260206004820181905260248201527f4f776e61626c653a2063616c6c6572206973206e6f7420746865206f776e657260448201526064016108fa565b600081600154811015610e845760008181526005602052604081205490600160e01b82169003610e82575b80600003610cd6575060001901600081815260056020526040902054610e61565b505b604051636f96cda160e11b815260040160405180910390fd5b6001546000829003610ec25760405163b562e8dd60e01b815260040160405180910390fd5b6001600160a01b03831660008181526006602090815260408083208054680100000000000000018802019055848352600590915281206001851460e11b4260a01b178317905582840190839083907fddf252ad1be2c89b69c2b068fc378daa952ba7f163c4a11628f55a4df523b3ef8180a4600183015b818114610f7157808360007fddf252ad1be2c89b69c2b068fc378daa952ba7f163c4a11628f55a4df523b3ef600080a4600101610f39565b5081600003610f9257604051622e076360e81b815260040160405180910390fd5b60015550505050565b600080546001600160a01b038381166001600160a01b0319831681178455604051919092169283917f8be0079c531659141344cd1fd0a4f28419497f9722a3daafe3b4186f6b6457e09190a35050565b604051630a85bd0160e11b81526000906001600160a01b0385169063150b7a0290611020903390899088908890600401611720565b6020604051808303816000875af192505050801561105b575060408051601f3d908101601f191682019092526110589181019061175d565b60015b6110b9573d808015611089576040519150601f19603f3d011682016040523d82523d6000602084013e61108e565b606091505b5080516000036110b1576040516368d2bf6b60e11b815260040160405180910390fd5b805181602001fd5b6001600160e01b031916630a85bd0160e11b1490505b949350505050565b6060600a805461054e906115d6565b606060a06040510180604052602081039150506000815280825b600183039250600a81066030018353600a9004806111005750819003601f19909101908152919050565b828054611136906115d6565b90600052602060002090601f016020900481019282611158576000855561119e565b82601f1061117157805160ff191683800117855561119e565b8280016001018555821561119e579182015b8281111561119e578251825591602001919060010190611183565b506111aa929150611222565b5090565b8280546111ba906115d6565b90600052602060002090601f0160209004810192826111dc576000855561119e565b82601f106111f55782800160ff1982351617855561119e565b8280016001018555821561119e579182015b8281111561119e578235825591602001919060010190611207565b5b808211156111aa5760008155600101611223565b6001600160e01b03198116811461090357600080fd5b60006020828403121561125f57600080fd5b8135610cd681611237565b60005b8381101561128557818101518382015260200161126d565b83811115610c505750506000910152565b600081518084526112ae81602086016020860161126a565b601f01601f19169290920160200192915050565b602081526000610cd66020830184611296565b6000602082840312156112e757600080fd5b5035919050565b80356001600160a01b038116811461130557600080fd5b919050565b6000806040838503121561131d57600080fd5b611326836112ee565b946020939093013593505050565b634e487b7160e01b600052604160045260246000fd5b600067ffffffffffffffff8084111561136557611365611334565b604051601f8501601f19908116603f0116810190828211818310171561138d5761138d611334565b816040528093508581528686860111156113a657600080fd5b858560208301376000602087830101525050509392505050565b6000602082840312156113d257600080fd5b813567ffffffffffffffff8111156113e957600080fd5b8201601f810184136113fa57600080fd5b6110cf8482356020840161134a565b60008060006060848603121561141e57600080fd5b611427846112ee565b9250611435602085016112ee565b9150604084013590509250925092565b6000806020838503121561145857600080fd5b823567ffffffffffffffff8082111561147057600080fd5b818501915085601f83011261148457600080fd5b81358181111561149357600080fd5b8660208285010111156114a557600080fd5b60209290920196919550909350505050565b6000602082840312156114c957600080fd5b610cd6826112ee565b8035801515811461130557600080fd5b600080604083850312156114f557600080fd5b6114fe836112ee565b915061150c602084016114d2565b90509250929050565b6000806000806080858703121561152b57600080fd5b611534856112ee565b9350611542602086016112ee565b925060408501359150606085013567ffffffffffffffff81111561156557600080fd5b8501601f8101871361157657600080fd5b6115858782356020840161134a565b91505092959194509250565b600080604083850312156115a457600080fd5b6115ad836112ee565b915061150c602084016112ee565b6000602082840312156115cd57600080fd5b610cd6826114d2565b600181811c908216806115ea57607f821691505b60208210810361160a57634e487b7160e01b600052602260045260246000fd5b50919050565b634e487b7160e01b600052601160045260246000fd5b6000821982111561163957611639611610565b500190565b600081600019048311821515161561165857611658611610565b500290565b6000845160206116708285838a0161126a565b8551918401916116838184848a0161126a565b8554920191600090600181811c90808316806116a057607f831692505b85831081036116bd57634e487b7160e01b85526022600452602485fd5b8080156116d157600181146116e25761170f565b60ff1985168852838801955061170f565b60008b81526020902060005b858110156117075781548a8201529084019088016116ee565b505083880195505b50939b9a5050505050505050505050565b6001600160a01b038581168252841660208201526040810183905260806060820181905260009061175390830184611296565b9695505050505050565b60006020828403121561176f57600080fd5b8151610cd68161123756fea2646970667358221220bf565f03fe9b37d21707d7d6d974affa07f254164902e9c5479c9db70238274864736f6c634300080d0033",
  "linkReferences": {},
  "deployedLinkReferences": {}
}