{
  "_format": "hh-sol-artifact-1",
  "contractName": "NftOnChainPayable9",
  "sourceName": "contracts/NftOnChainPayable9.sol",
  "abi": [
    {
      "inputs": [],
      "stateMutability": "nonpayable",
      "type": "constructor"
    },
    {
      "anonymous": false,
      "inputs": [
        {
          "indexed": true,
          "internalType": "address",
          "name": "owner",
          "type": "address"
        },
        {
          "indexed": true,
          "internalType": "address",
          "name": "approved",
          "type": "address"
        },
        {
          "indexed": true,
          "internalType": "uint256",
          "name": "tokenId",
          "type": "uint256"
        }
      ],
      "name": "Approval",
      "type": "event"
    },
    {
      "anonymous": false,
      "inputs": [
        {
          "indexed": true,
          "internalType": "address",
          "name": "owner",
          "type": "address"
        },
        {
          "indexed": true,
          "internalType": "address",
          "name": "operator",
          "type": "address"
        },
        {
          "indexed": false,
          "internalType": "bool",
          "name": "approved",
          "type": "bool"
        }
      ],
      "name": "ApprovalForAll",
      "type": "event"
    },
    {
      "anonymous": false,
      "inputs": [
        {
          "indexed": true,
          "internalType": "address",
          "name": "previousOwner",
          "type": "address"
        },
        {
          "indexed": true,
          "internalType": "address",
          "name": "newOwner",
          "type": "address"
        }
      ],
      "name": "OwnershipTransferred",
      "type": "event"
    },
    {
      "anonymous": false,
      "inputs": [
        {
          "indexed": true,
          "internalType": "address",
          "name": "from",
          "type": "address"
        },
        {
          "indexed": true,
          "internalType": "address",
          "name": "to",
          "type": "address"
        },
        {
          "indexed": true,
          "internalType": "uint256",
          "name": "tokenId",
          "type": "uint256"
        }
      ],
      "name": "Transfer",
      "type": "event"
    },
    {
      "inputs": [
        {
          "internalType": "address",
          "name": "to",
          "type": "address"
        },
        {
          "internalType": "uint256",
          "name": "tokenId",
          "type": "uint256"
        }
      ],
      "name": "approve",
      "outputs": [],
      "stateMutability": "nonpayable",
      "type": "function"
    },
    {
      "inputs": [
        {
          "internalType": "address",
          "name": "owner",
          "type": "address"
        }
      ],
      "name": "balanceOf",
      "outputs": [
        {
          "internalType": "uint256",
          "name": "",
          "type": "uint256"
        }
      ],
      "stateMutability": "view",
      "type": "function"
    },
    {
      "inputs": [],
      "name": "fees",
      "outputs": [
        {
          "internalType": "uint256",
          "name": "",
          "type": "uint256"
        }
      ],
      "stateMutability": "view",
      "type": "function"
    },
    {
      "inputs": [
        {
          "internalType": "uint256",
          "name": "tokenId",
          "type": "uint256"
        }
      ],
      "name": "getApproved",
      "outputs": [
        {
          "internalType": "address",
          "name": "",
          "type": "address"
        }
      ],
      "stateMutability": "view",
      "type": "function"
    },
    {
      "inputs": [
        {
          "internalType": "string",
          "name": "projectTitle",
          "type": "string"
        }
      ],
      "name": "getOwnerByProjectTitle",
      "outputs": [
        {
          "internalType": "address",
          "name": "",
          "type": "address"
        }
      ],
      "stateMutability": "view",
      "type": "function"
    },
    {
      "inputs": [
        {
          "internalType": "address",
          "name": "owner",
          "type": "address"
        }
      ],
      "name": "getProjectTitleByOwner",
      "outputs": [
        {
          "internalType": "string",
          "name": "",
          "type": "string"
        }
      ],
      "stateMutability": "view",
      "type": "function"
    },
    {
      "inputs": [
        {
          "internalType": "address",
          "name": "owner",
          "type": "address"
        },
        {
          "internalType": "address",
          "name": "operator",
          "type": "address"
        }
      ],
      "name": "isApprovedForAll",
      "outputs": [
        {
          "internalType": "bool",
          "name": "",
          "type": "bool"
        }
      ],
      "stateMutability": "view",
      "type": "function"
    },
    {
      "inputs": [],
      "name": "mintRate",
      "outputs": [
        {
          "internalType": "uint256",
          "name": "",
          "type": "uint256"
        }
      ],
      "stateMutability": "view",
      "type": "function"
    },
    {
      "inputs": [],
      "name": "name",
      "outputs": [
        {
          "internalType": "string",
          "name": "",
          "type": "string"
        }
      ],
      "stateMutability": "view",
      "type": "function"
    },
    {
      "inputs": [],
      "name": "owner",
      "outputs": [
        {
          "internalType": "address",
          "name": "",
          "type": "address"
        }
      ],
      "stateMutability": "view",
      "type": "function"
    },
    {
      "inputs": [
        {
          "internalType": "uint256",
          "name": "tokenId",
          "type": "uint256"
        }
      ],
      "name": "ownerOf",
      "outputs": [
        {
          "internalType": "address",
          "name": "",
          "type": "address"
        }
      ],
      "stateMutability": "view",
      "type": "function"
    },
    {
      "inputs": [
        {
          "internalType": "address",
          "name": "",
          "type": "address"
        }
      ],
      "name": "ownerToTokenId",
      "outputs": [
        {
          "internalType": "uint256",
          "name": "",
          "type": "uint256"
        }
      ],
      "stateMutability": "view",
      "type": "function"
    },
    {
      "inputs": [
        {
          "internalType": "uint256",
          "name": "tokenId",
          "type": "uint256"
        },
        {
          "internalType": "address",
          "name": "erc20Token",
          "type": "address"
        },
        {
          "internalType": "uint256",
          "name": "amount",
          "type": "uint256"
        }
      ],
      "name": "payTokenOwner",
      "outputs": [],
      "stateMutability": "payable",
      "type": "function"
    },
    {
      "inputs": [
        {
          "internalType": "string",
          "name": "",
          "type": "string"
        }
      ],
      "name": "projectTitleToTokenId",
      "outputs": [
        {
          "internalType": "uint256",
          "name": "",
          "type": "uint256"
        }
      ],
      "stateMutability": "view",
      "type": "function"
    },
    {
      "inputs": [],
      "name": "renounceOwnership",
      "outputs": [],
      "stateMutability": "nonpayable",
      "type": "function"
    },
    {
      "inputs": [
        {
          "internalType": "address",
          "name": "to",
          "type": "address"
        },
        {
          "internalType": "string",
          "name": "uri",
          "type": "string"
        },
        {
          "internalType": "string",
          "name": "projectTitle",
          "type": "string"
        }
      ],
      "name": "safeMint",
      "outputs": [],
      "stateMutability": "payable",
      "type": "function"
    },
    {
      "inputs": [
        {
          "internalType": "address",
          "name": "from",
          "type": "address"
        },
        {
          "internalType": "address",
          "name": "to",
          "type": "address"
        },
        {
          "internalType": "uint256",
          "name": "tokenId",
          "type": "uint256"
        }
      ],
      "name": "safeTransferFrom",
      "outputs": [],
      "stateMutability": "nonpayable",
      "type": "function"
    },
    {
      "inputs": [
        {
          "internalType": "address",
          "name": "from",
          "type": "address"
        },
        {
          "internalType": "address",
          "name": "to",
          "type": "address"
        },
        {
          "internalType": "uint256",
          "name": "tokenId",
          "type": "uint256"
        },
        {
          "internalType": "bytes",
          "name": "data",
          "type": "bytes"
        }
      ],
      "name": "safeTransferFrom",
      "outputs": [],
      "stateMutability": "nonpayable",
      "type": "function"
    },
    {
      "inputs": [
        {
          "internalType": "address",
          "name": "operator",
          "type": "address"
        },
        {
          "internalType": "bool",
          "name": "approved",
          "type": "bool"
        }
      ],
      "name": "setApprovalForAll",
      "outputs": [],
      "stateMutability": "nonpayable",
      "type": "function"
    },
    {
      "inputs": [
        {
          "internalType": "bytes4",
          "name": "interfaceId",
          "type": "bytes4"
        }
      ],
      "name": "supportsInterface",
      "outputs": [
        {
          "internalType": "bool",
          "name": "",
          "type": "bool"
        }
      ],
      "stateMutability": "view",
      "type": "function"
    },
    {
      "inputs": [],
      "name": "symbol",
      "outputs": [
        {
          "internalType": "string",
          "name": "",
          "type": "string"
        }
      ],
      "stateMutability": "view",
      "type": "function"
    },
    {
      "inputs": [
        {
          "internalType": "uint256",
          "name": "",
          "type": "uint256"
        }
      ],
      "name": "tokenIdToOwner",
      "outputs": [
        {
          "internalType": "address",
          "name": "",
          "type": "address"
        }
      ],
      "stateMutability": "view",
      "type": "function"
    },
    {
      "inputs": [
        {
          "internalType": "uint256",
          "name": "",
          "type": "uint256"
        }
      ],
      "name": "tokenIdToProjectTitle",
      "outputs": [
        {
          "internalType": "string",
          "name": "",
          "type": "string"
        }
      ],
      "stateMutability": "view",
      "type": "function"
    },
    {
      "inputs": [
        {
          "internalType": "uint256",
          "name": "tokenId",
          "type": "uint256"
        }
      ],
      "name": "tokenURI",
      "outputs": [
        {
          "internalType": "string",
          "name": "",
          "type": "string"
        }
      ],
      "stateMutability": "view",
      "type": "function"
    },
    {
      "inputs": [
        {
          "internalType": "address",
          "name": "from",
          "type": "address"
        },
        {
          "internalType": "address",
          "name": "to",
          "type": "address"
        },
        {
          "internalType": "uint256",
          "name": "tokenId",
          "type": "uint256"
        }
      ],
      "name": "transferFrom",
      "outputs": [],
      "stateMutability": "nonpayable",
      "type": "function"
    },
    {
      "inputs": [
        {
          "internalType": "address",
          "name": "newOwner",
          "type": "address"
        }
      ],
      "name": "transferOwnership",
      "outputs": [],
      "stateMutability": "nonpayable",
      "type": "function"
    },
    {
      "inputs": [],
      "name": "withdraw",
      "outputs": [],
      "stateMutability": "nonpayable",
      "type": "function"
    },
    {
      "inputs": [
        {
          "internalType": "address",
          "name": "erc20Token",
          "type": "address"
        },
        {
          "internalType": "uint256",
          "name": "amount",
          "type": "uint256"
        }
      ],
      "name": "withdrawToken",
      "outputs": [],
      "stateMutability": "nonpayable",
      "type": "function"
    }
  ],
  "bytecode": "0x60806040523480156200001157600080fd5b5060408051808201825260128152714e66744f6e436861696e50617961626c653960701b6020808301918252835180850190945260048452634e4f433960e01b9084015281519192916200006891600091620000fc565b5080516200007e906001906020840190620000fc565b5050506200009b62000095620000a660201b60201c565b620000aa565b6001600855620001de565b3390565b600780546001600160a01b038381166001600160a01b0319831681179093556040519116919082907f8be0079c531659141344cd1fd0a4f28419497f9722a3daafe3b4186f6b6457e090600090a35050565b8280546200010a90620001a2565b90600052602060002090601f0160209004810192826200012e576000855562000179565b82601f106200014957805160ff191683800117855562000179565b8280016001018555821562000179579182015b82811115620001795782518255916020019190600101906200015c565b50620001879291506200018b565b5090565b5b808211156200018757600081556001016200018c565b600181811c90821680620001b757607f821691505b602082108103620001d857634e487b7160e01b600052602260045260246000fd5b50919050565b61267180620001ee6000396000f3fe6080604052600436106101b75760003560e01c80638da5cb5b116100ec578063b88d4fde1161008a578063cd99b01011610064578063cd99b010146104df578063e985e9c514610517578063eca81d4214610560578063f2fde38b1461057357600080fd5b8063b88d4fde14610484578063c87b56dd146104a4578063ca0dcf16146104c457600080fd5b80639af1d35a116100c65780639af1d35a1461040e5780639e281a98146104245780639f4a7c1014610444578063a22cb4651461046457600080fd5b80638da5cb5b146103bb57806391f7e397146103d957806395d89b41146103f957600080fd5b80633ef636f9116101595780636352211e116101335780636352211e146103305780636e9e48ef1461035057806370a0823114610386578063715018a6146103a657600080fd5b80633ef636f9146102c257806342842e0e146102d55780634814f035146102f557600080fd5b8063095ea7b311610195578063095ea7b31461024b57806323b872dd1461026d578063265945881461028d5780633ccfd60b146102ad57600080fd5b806301ffc9a7146101bc57806306fdde03146101f1578063081812fc14610213575b600080fd5b3480156101c857600080fd5b506101dc6101d7366004612010565b610593565b60405190151581526020015b60405180910390f35b3480156101fd57600080fd5b506102066105e5565b6040516101e89190612085565b34801561021f57600080fd5b5061023361022e366004612098565b610677565b6040516001600160a01b0390911681526020016101e8565b34801561025757600080fd5b5061026b6102663660046120cd565b61069e565b005b34801561027957600080fd5b5061026b6102883660046120f7565b6107b8565b34801561029957600080fd5b506102066102a8366004612133565b6107e9565b3480156102b957600080fd5b5061026b6108c0565b61026b6102d036600461214e565b610955565b3480156102e157600080fd5b5061026b6102f03660046120f7565b610df7565b34801561030157600080fd5b50610322610310366004612133565b600c6020526000908152604090205481565b6040519081526020016101e8565b34801561033c57600080fd5b5061023361034b366004612098565b610e12565b34801561035c57600080fd5b5061023361036b366004612098565b600a602052600090815260409020546001600160a01b031681565b34801561039257600080fd5b506103226103a1366004612133565b610e72565b3480156103b257600080fd5b5061026b610ef8565b3480156103c757600080fd5b506007546001600160a01b0316610233565b3480156103e557600080fd5b506102336103f436600461221f565b610f0c565b34801561040557600080fd5b50610206610f5f565b34801561041a57600080fd5b50610322600d5481565b34801561043057600080fd5b5061026b61043f3660046120cd565b610f6e565b34801561045057600080fd5b5061020661045f366004612098565b61113b565b34801561047057600080fd5b5061026b61047f366004612262565b6111d5565b34801561049057600080fd5b5061026b61049f366004612299565b6111e4565b3480156104b057600080fd5b506102066104bf366004612098565b61121c565b3480156104d057600080fd5b5061032266b1a2bc2ec5000081565b3480156104eb57600080fd5b506103226104fa36600461221f565b8051602081830181018051600b8252928201919093012091525481565b34801561052357600080fd5b506101dc610532366004612315565b6001600160a01b03918216600090815260056020908152604080832093909416825291909152205460ff1690565b61026b61056e366004612348565b611227565b34801561057f57600080fd5b5061026b61058e366004612133565b6113db565b60006001600160e01b031982166380ac58cd60e01b14806105c457506001600160e01b03198216635b5e139f60e01b145b806105df57506301ffc9a760e01b6001600160e01b03198316145b92915050565b6060600080546105f4906123bc565b80601f0160208091040260200160405190810160405280929190818152602001828054610620906123bc565b801561066d5780601f106106425761010080835404028352916020019161066d565b820191906000526020600020905b81548152906001019060200180831161065057829003601f168201915b5050505050905090565b600061068282611451565b506000908152600460205260409020546001600160a01b031690565b60006106a982610e12565b9050806001600160a01b0316836001600160a01b03160361071b5760405162461bcd60e51b815260206004820152602160248201527f4552433732313a20617070726f76616c20746f2063757272656e74206f776e656044820152603960f91b60648201526084015b60405180910390fd5b336001600160a01b038216148061073757506107378133610532565b6107a95760405162461bcd60e51b815260206004820152603d60248201527f4552433732313a20617070726f76652063616c6c6572206973206e6f7420746f60448201527f6b656e206f776e6572206f7220617070726f76656420666f7220616c6c0000006064820152608401610712565b6107b383836114b0565b505050565b6107c2338261151e565b6107de5760405162461bcd60e51b8152600401610712906123f6565b6107b383838361159d565b6001600160a01b0381166000908152600c602052604090205460609080156108aa5760008181526009602052604090208054610824906123bc565b80601f0160208091040260200160405190810160405280929190818152602001828054610850906123bc565b801561089d5780601f106108725761010080835404028352916020019161089d565b820191906000526020600020905b81548152906001019060200180831161088057829003601f168201915b5050505050915050919050565b5050604080516020810190915260008152919050565b6108c8611701565b604051600090339047908381818185875af1925050503d806000811461090a576040519150601f19603f3d011682016040523d82523d6000602084013e61090f565b606091505b50509050806109525760405162461bcd60e51b815260206004820152600f60248201526e151c985b9cd9995c8811985a5b1959608a1b6044820152606401610712565b50565b61095d61175b565b600061096884610e12565b90506001600160a01b03811633036109b85760405162461bcd60e51b815260206004820152601360248201527221b0b73737ba103830bc903cb7bab939b2b63360691b6044820152606401610712565b600084815260096020526040812080546109d1906123bc565b905011610a185760405162461bcd60e51b8152602060048201526015602482015274141c9bda9958dd081d1a5d1b19481b9bdd081cd95d605a1b6044820152606401610712565b600034600003610cd7576001600160a01b038416610a785760405162461bcd60e51b815260206004820152601c60248201527f496e76616c6964204552432d323020746f6b656e2061646472657373000000006044820152606401610712565b604051636eb1769f60e11b8152336004820152306024820152849084906001600160a01b0383169063dd62ed3e90604401602060405180830381865afa158015610ac6573d6000803e3d6000fd5b505050506040513d601f19601f82011682018060405250810190610aea9190612443565b1015610b315760405162461bcd60e51b8152602060048201526016602482015275496e73756666696369656e7420616c6c6f77616e636560501b6044820152606401610712565b6040516370a0823160e01b815233600482015284906001600160a01b038316906370a0823190602401602060405180830381865afa158015610b77573d6000803e3d6000fd5b505050506040513d601f19601f82011682018060405250810190610b9b9190612443565b1015610be05760405162461bcd60e51b8152602060048201526014602482015273496e73756666696369656e742062616c616e636560601b6044820152606401610712565b6103e8610bee85600f612472565b610bf89190612491565b91506001600160a01b0381166323b872dd3385610c1586896124b3565b6040516001600160e01b031960e086901b1681526001600160a01b03938416600482015292909116602483015260448201526064016020604051808303816000875af1158015610c69573d6000803e3d6000fd5b505050506040513d601f19601f82011682018060405250810190610c8d91906124ca565b610cd15760405162461bcd60e51b8152602060048201526015602482015274151bdad95b881d1c985b9cd9995c8819985a5b1959605a1b6044820152606401610712565b50610d81565b6103e8610ce534600f612472565b610cef9190612491565b9050823414610d405760405162461bcd60e51b815260206004820152601c60248201527f496e636f727265637420455448207061796d656e7420616d6f756e74000000006044820152606401610712565b6001600160a01b0382166108fc610d5783866124b3565b6040518115909202916000818181858888f19350505050158015610d7f573d6000803e3d6000fd5b505b6001600160a01b03841673301944751abb2f5000c71b050b139e31aeae472014610deb5780600d6000828254610db791906124e7565b9091555050604051309082156108fc029083906000818181858888f19350505050158015610de9573d6000803e3d6000fd5b505b50506107b36001600855565b6107b3838383604051806020016040528060008152506111e4565b6000818152600260205260408120546001600160a01b0316806105df5760405162461bcd60e51b8152602060048201526018602482015277115490cdcc8c4e881a5b9d985b1a59081d1bdad95b88125160421b6044820152606401610712565b60006001600160a01b038216610edc5760405162461bcd60e51b815260206004820152602960248201527f4552433732313a2061646472657373207a65726f206973206e6f7420612076616044820152683634b21037bbb732b960b91b6064820152608401610712565b506001600160a01b031660009081526003602052604090205490565b610f00611701565b610f0a60006117b4565b565b600080600b83604051610f1f91906124ff565b908152602001604051809103902054905080600014610f56576000908152600a60205260409020546001600160a01b031692915050565b50600092915050565b6060600180546105f4906123bc565b610f76611701565b6001600160a01b038216610fcc5760405162461bcd60e51b815260206004820152601c60248201527f496e76616c6964204552432d323020746f6b656e2061646472657373000000006044820152606401610712565b6040516370a0823160e01b8152306004820152829082906001600160a01b038316906370a0823190602401602060405180830381865afa158015611014573d6000803e3d6000fd5b505050506040513d601f19601f820116820180604052508101906110389190612443565b10156110865760405162461bcd60e51b815260206004820152601a60248201527f496e73756666696369656e7420746f6b656e2062616c616e63650000000000006044820152606401610712565b60405163a9059cbb60e01b8152336004820152602481018390526001600160a01b0382169063a9059cbb906044016020604051808303816000875af11580156110d3573d6000803e3d6000fd5b505050506040513d601f19601f820116820180604052508101906110f791906124ca565b6107b35760405162461bcd60e51b8152602060048201526015602482015274151bdad95b881d1c985b9cd9995c8819985a5b1959605a1b6044820152606401610712565b60096020526000908152604090208054611154906123bc565b80601f0160208091040260200160405190810160405280929190818152602001828054611180906123bc565b80156111cd5780601f106111a2576101008083540402835291602001916111cd565b820191906000526020600020905b8154815290600101906020018083116111b057829003601f168201915b505050505081565b6111e0338383611806565b5050565b6111ee338361151e565b61120a5760405162461bcd60e51b8152600401610712906123f6565b611216848484846118d4565b50505050565b60606105df82611907565b66b1a2bc2ec50000600d5461123c91906124e7565b3410156112815760405162461bcd60e51b8152602060048201526013602482015272139bdd08195b9bdd59da08115512081cd95b9d606a1b6044820152606401610712565b600b8160405161129191906124ff565b9081526020016040518091039020546000146112ef5760405162461bcd60e51b815260206004820152601c60248201527f50726f6a656374207469746c6520616c726561647920657869737473000000006044820152606401610712565b60006112fa600e5490565b905061130a600e80546001019055565b6113148482611a0f565b61131e8184611a29565b6000818152600960209081526040909120835161133d92850190611f61565b506000818152600a60205260409081902080546001600160a01b0319166001600160a01b038716179055518190600b906113789085906124ff565b9081526040805160209281900383018120939093556001600160a01b038781166000908152600c909352908220849055600754169166b1a2bc2ec500009082818181858883f193505050501580156113d4573d6000803e3d6000fd5b5050505050565b6113e3611701565b6001600160a01b0381166114485760405162461bcd60e51b815260206004820152602660248201527f4f776e61626c653a206e6577206f776e657220697320746865207a65726f206160448201526564647265737360d01b6064820152608401610712565b610952816117b4565b6000818152600260205260409020546001600160a01b03166109525760405162461bcd60e51b8152602060048201526018602482015277115490cdcc8c4e881a5b9d985b1a59081d1bdad95b88125160421b6044820152606401610712565b600081815260046020526040902080546001600160a01b0319166001600160a01b03841690811790915581906114e582610e12565b6001600160a01b03167f8c5be1e5ebec7d5bd14f71427d1e84f3dd0314c0f7b2291e5b200ac8c7c3b92560405160405180910390a45050565b60008061152a83610e12565b9050806001600160a01b0316846001600160a01b0316148061157157506001600160a01b0380821660009081526005602090815260408083209388168352929052205460ff165b806115955750836001600160a01b031661158a84610677565b6001600160a01b0316145b949350505050565b826001600160a01b03166115b082610e12565b6001600160a01b0316146115d65760405162461bcd60e51b81526004016107129061251b565b6001600160a01b0382166116385760405162461bcd60e51b8152602060048201526024808201527f4552433732313a207472616e7366657220746f20746865207a65726f206164646044820152637265737360e01b6064820152608401610712565b826001600160a01b031661164b82610e12565b6001600160a01b0316146116715760405162461bcd60e51b81526004016107129061251b565b600081815260046020908152604080832080546001600160a01b03199081169091556001600160a01b0387811680865260038552838620805460001901905590871680865283862080546001019055868652600290945282852080549092168417909155905184937fddf252ad1be2c89b69c2b068fc378daa952ba7f163c4a11628f55a4df523b3ef91a4505050565b6007546001600160a01b03163314610f0a5760405162461bcd60e51b815260206004820181905260248201527f4f776e61626c653a2063616c6c6572206973206e6f7420746865206f776e65726044820152606401610712565b6002600854036117ad5760405162461bcd60e51b815260206004820152601f60248201527f5265656e7472616e637947756172643a207265656e7472616e742063616c6c006044820152606401610712565b6002600855565b600780546001600160a01b038381166001600160a01b0319831681179093556040519116919082907f8be0079c531659141344cd1fd0a4f28419497f9722a3daafe3b4186f6b6457e090600090a35050565b816001600160a01b0316836001600160a01b0316036118675760405162461bcd60e51b815260206004820152601960248201527f4552433732313a20617070726f766520746f2063616c6c6572000000000000006044820152606401610712565b6001600160a01b03838116600081815260056020908152604080832094871680845294825291829020805460ff191686151590811790915591519182527f17307eab39ab6107e8899845ad3d59bd9653f200f220920489ca2b5937696c31910160405180910390a3505050565b6118df84848461159d565b6118eb84848484611ac3565b6112165760405162461bcd60e51b815260040161071290612560565b606061191282611451565b6000828152600660205260408120805461192b906123bc565b80601f0160208091040260200160405190810160405280929190818152602001828054611957906123bc565b80156119a45780601f10611979576101008083540402835291602001916119a4565b820191906000526020600020905b81548152906001019060200180831161198757829003601f168201915b5050505050905060006119c260408051602081019091526000815290565b905080516000036119d4575092915050565b815115611a065780826040516020016119ee9291906125b2565b60405160208183030381529060405292505050919050565b61159584611bc4565b6111e0828260405180602001604052806000815250611c38565b6000828152600260205260409020546001600160a01b0316611aa45760405162461bcd60e51b815260206004820152602e60248201527f45524337323155524953746f726167653a2055524920736574206f66206e6f6e60448201526d32bc34b9ba32b73a103a37b5b2b760911b6064820152608401610712565b600082815260066020908152604090912082516107b392840190611f61565b60006001600160a01b0384163b15611bb957604051630a85bd0160e11b81526001600160a01b0385169063150b7a0290611b079033908990889088906004016125e1565b6020604051808303816000875af1925050508015611b42575060408051601f3d908101601f19168201909252611b3f9181019061261e565b60015b611b9f573d808015611b70576040519150601f19603f3d011682016040523d82523d6000602084013e611b75565b606091505b508051600003611b975760405162461bcd60e51b815260040161071290612560565b805181602001fd5b6001600160e01b031916630a85bd0160e11b149050611595565b506001949350505050565b6060611bcf82611451565b6000611be660408051602081019091526000815290565b90506000815111611c065760405180602001604052806000815250611c31565b80611c1084611c6b565b604051602001611c219291906125b2565b6040516020818303038152906040525b9392505050565b611c428383611cfe565b611c4f6000848484611ac3565b6107b35760405162461bcd60e51b815260040161071290612560565b60606000611c7883611e89565b600101905060008167ffffffffffffffff811115611c9857611c98612173565b6040519080825280601f01601f191660200182016040528015611cc2576020820181803683370190505b5090508181016020015b600019016f181899199a1a9b1b9c1cb0b131b232b360811b600a86061a8153600a8504945084611ccc57509392505050565b6001600160a01b038216611d545760405162461bcd60e51b815260206004820181905260248201527f4552433732313a206d696e7420746f20746865207a65726f20616464726573736044820152606401610712565b6000818152600260205260409020546001600160a01b031615611db95760405162461bcd60e51b815260206004820152601c60248201527f4552433732313a20746f6b656e20616c7265616479206d696e746564000000006044820152606401610712565b6000818152600260205260409020546001600160a01b031615611e1e5760405162461bcd60e51b815260206004820152601c60248201527f4552433732313a20746f6b656e20616c7265616479206d696e746564000000006044820152606401610712565b6001600160a01b038216600081815260036020908152604080832080546001019055848352600290915280822080546001600160a01b0319168417905551839291907fddf252ad1be2c89b69c2b068fc378daa952ba7f163c4a11628f55a4df523b3ef908290a45050565b60008072184f03e93ff9f4daa797ed6e38ed64bf6a1f0160401b8310611ec85772184f03e93ff9f4daa797ed6e38ed64bf6a1f0160401b830492506040015b6d04ee2d6d415b85acef81000000008310611ef4576d04ee2d6d415b85acef8100000000830492506020015b662386f26fc100008310611f1257662386f26fc10000830492506010015b6305f5e1008310611f2a576305f5e100830492506008015b6127108310611f3e57612710830492506004015b60648310611f50576064830492506002015b600a83106105df5760010192915050565b828054611f6d906123bc565b90600052602060002090601f016020900481019282611f8f5760008555611fd5565b82601f10611fa857805160ff1916838001178555611fd5565b82800160010185558215611fd5579182015b82811115611fd5578251825591602001919060010190611fba565b50611fe1929150611fe5565b5090565b5b80821115611fe15760008155600101611fe6565b6001600160e01b03198116811461095257600080fd5b60006020828403121561202257600080fd5b8135611c3181611ffa565b60005b83811015612048578181015183820152602001612030565b838111156112165750506000910152565b6000815180845261207181602086016020860161202d565b601f01601f19169290920160200192915050565b602081526000611c316020830184612059565b6000602082840312156120aa57600080fd5b5035919050565b80356001600160a01b03811681146120c857600080fd5b919050565b600080604083850312156120e057600080fd5b6120e9836120b1565b946020939093013593505050565b60008060006060848603121561210c57600080fd5b612115846120b1565b9250612123602085016120b1565b9150604084013590509250925092565b60006020828403121561214557600080fd5b611c31826120b1565b60008060006060848603121561216357600080fd5b83359250612123602085016120b1565b634e487b7160e01b600052604160045260246000fd5b600067ffffffffffffffff808411156121a4576121a4612173565b604051601f8501601f19908116603f011681019082821181831017156121cc576121cc612173565b816040528093508581528686860111156121e557600080fd5b858560208301376000602087830101525050509392505050565b600082601f83011261221057600080fd5b611c3183833560208501612189565b60006020828403121561223157600080fd5b813567ffffffffffffffff81111561224857600080fd5b611595848285016121ff565b801515811461095257600080fd5b6000806040838503121561227557600080fd5b61227e836120b1565b9150602083013561228e81612254565b809150509250929050565b600080600080608085870312156122af57600080fd5b6122b8856120b1565b93506122c6602086016120b1565b925060408501359150606085013567ffffffffffffffff8111156122e957600080fd5b8501601f810187136122fa57600080fd5b61230987823560208401612189565b91505092959194509250565b6000806040838503121561232857600080fd5b612331836120b1565b915061233f602084016120b1565b90509250929050565b60008060006060848603121561235d57600080fd5b612366846120b1565b9250602084013567ffffffffffffffff8082111561238357600080fd5b61238f878388016121ff565b935060408601359150808211156123a557600080fd5b506123b2868287016121ff565b9150509250925092565b600181811c908216806123d057607f821691505b6020821081036123f057634e487b7160e01b600052602260045260246000fd5b50919050565b6020808252602d908201527f4552433732313a2063616c6c6572206973206e6f7420746f6b656e206f776e6560408201526c1c881bdc88185c1c1c9bdd9959609a1b606082015260800190565b60006020828403121561245557600080fd5b5051919050565b634e487b7160e01b600052601160045260246000fd5b600081600019048311821515161561248c5761248c61245c565b500290565b6000826124ae57634e487b7160e01b600052601260045260246000fd5b500490565b6000828210156124c5576124c561245c565b500390565b6000602082840312156124dc57600080fd5b8151611c3181612254565b600082198211156124fa576124fa61245c565b500190565b6000825161251181846020870161202d565b9190910192915050565b60208082526025908201527f4552433732313a207472616e736665722066726f6d20696e636f72726563742060408201526437bbb732b960d91b606082015260800190565b60208082526032908201527f4552433732313a207472616e7366657220746f206e6f6e20455243373231526560408201527131b2b4bb32b91034b6b83632b6b2b73a32b960711b606082015260800190565b600083516125c481846020880161202d565b8351908301906125d881836020880161202d565b01949350505050565b6001600160a01b038581168252841660208201526040810183905260806060820181905260009061261490830184612059565b9695505050505050565b60006020828403121561263057600080fd5b8151611c3181611ffa56fea2646970667358221220a4547b2d3376063c7bd0bbda01362aaf0ed6a1472920edd06cf382e567dac72e64736f6c634300080d0033",
  "linkReferences": {},
  "deployedLinkReferences": {}
}