{
  "_format": "hh-sol-artifact-1",
  "contractName": "NftOnChainPayable13",
  "sourceName": "contracts/NftOnChainPayable13.sol",
  "abi": [
    {
      "inputs": [],
      "stateMutability": "nonpayable",
      "type": "constructor"
    },
    {
      "anonymous": false,
      "inputs": [
        {
          "indexed": true,
          "internalType": "address",
          "name": "owner",
          "type": "address"
        },
        {
          "indexed": true,
          "internalType": "address",
          "name": "approved",
          "type": "address"
        },
        {
          "indexed": true,
          "internalType": "uint256",
          "name": "tokenId",
          "type": "uint256"
        }
      ],
      "name": "Approval",
      "type": "event"
    },
    {
      "anonymous": false,
      "inputs": [
        {
          "indexed": true,
          "internalType": "address",
          "name": "owner",
          "type": "address"
        },
        {
          "indexed": true,
          "internalType": "address",
          "name": "operator",
          "type": "address"
        },
        {
          "indexed": false,
          "internalType": "bool",
          "name": "approved",
          "type": "bool"
        }
      ],
      "name": "ApprovalForAll",
      "type": "event"
    },
    {
      "anonymous": false,
      "inputs": [
        {
          "indexed": true,
          "internalType": "address",
          "name": "previousOwner",
          "type": "address"
        },
        {
          "indexed": true,
          "internalType": "address",
          "name": "newOwner",
          "type": "address"
        }
      ],
      "name": "OwnershipTransferred",
      "type": "event"
    },
    {
      "anonymous": false,
      "inputs": [
        {
          "indexed": true,
          "internalType": "address",
          "name": "from",
          "type": "address"
        },
        {
          "indexed": true,
          "internalType": "address",
          "name": "to",
          "type": "address"
        },
        {
          "indexed": true,
          "internalType": "uint256",
          "name": "tokenId",
          "type": "uint256"
        }
      ],
      "name": "Transfer",
      "type": "event"
    },
    {
      "inputs": [
        {
          "internalType": "address",
          "name": "to",
          "type": "address"
        },
        {
          "internalType": "uint256",
          "name": "tokenId",
          "type": "uint256"
        }
      ],
      "name": "approve",
      "outputs": [],
      "stateMutability": "nonpayable",
      "type": "function"
    },
    {
      "inputs": [
        {
          "internalType": "address",
          "name": "owner",
          "type": "address"
        }
      ],
      "name": "balanceOf",
      "outputs": [
        {
          "internalType": "uint256",
          "name": "",
          "type": "uint256"
        }
      ],
      "stateMutability": "view",
      "type": "function"
    },
    {
      "inputs": [],
      "name": "fees",
      "outputs": [
        {
          "internalType": "uint256",
          "name": "",
          "type": "uint256"
        }
      ],
      "stateMutability": "view",
      "type": "function"
    },
    {
      "inputs": [
        {
          "internalType": "uint256",
          "name": "tokenId",
          "type": "uint256"
        }
      ],
      "name": "getApproved",
      "outputs": [
        {
          "internalType": "address",
          "name": "",
          "type": "address"
        }
      ],
      "stateMutability": "view",
      "type": "function"
    },
    {
      "inputs": [
        {
          "internalType": "string",
          "name": "projectTitle",
          "type": "string"
        }
      ],
      "name": "getOwnerByProjectTitle",
      "outputs": [
        {
          "internalType": "address",
          "name": "",
          "type": "address"
        }
      ],
      "stateMutability": "view",
      "type": "function"
    },
    {
      "inputs": [],
      "name": "getPercentage",
      "outputs": [
        {
          "internalType": "uint256",
          "name": "",
          "type": "uint256"
        }
      ],
      "stateMutability": "view",
      "type": "function"
    },
    {
      "inputs": [
        {
          "internalType": "address",
          "name": "owner",
          "type": "address"
        }
      ],
      "name": "getProjectTitleByOwner",
      "outputs": [
        {
          "internalType": "string",
          "name": "",
          "type": "string"
        }
      ],
      "stateMutability": "view",
      "type": "function"
    },
    {
      "inputs": [
        {
          "internalType": "uint256",
          "name": "tokenId",
          "type": "uint256"
        },
        {
          "internalType": "address",
          "name": "erc20Token",
          "type": "address"
        }
      ],
      "name": "getTokenBalance",
      "outputs": [
        {
          "internalType": "uint256",
          "name": "",
          "type": "uint256"
        }
      ],
      "stateMutability": "view",
      "type": "function"
    },
    {
      "inputs": [
        {
          "internalType": "address",
          "name": "owner",
          "type": "address"
        },
        {
          "internalType": "address",
          "name": "operator",
          "type": "address"
        }
      ],
      "name": "isApprovedForAll",
      "outputs": [
        {
          "internalType": "bool",
          "name": "",
          "type": "bool"
        }
      ],
      "stateMutability": "view",
      "type": "function"
    },
    {
      "inputs": [],
      "name": "mintRate",
      "outputs": [
        {
          "internalType": "uint256",
          "name": "",
          "type": "uint256"
        }
      ],
      "stateMutability": "view",
      "type": "function"
    },
    {
      "inputs": [],
      "name": "name",
      "outputs": [
        {
          "internalType": "string",
          "name": "",
          "type": "string"
        }
      ],
      "stateMutability": "view",
      "type": "function"
    },
    {
      "inputs": [],
      "name": "owner",
      "outputs": [
        {
          "internalType": "address",
          "name": "",
          "type": "address"
        }
      ],
      "stateMutability": "view",
      "type": "function"
    },
    {
      "inputs": [
        {
          "internalType": "uint256",
          "name": "tokenId",
          "type": "uint256"
        }
      ],
      "name": "ownerOf",
      "outputs": [
        {
          "internalType": "address",
          "name": "",
          "type": "address"
        }
      ],
      "stateMutability": "view",
      "type": "function"
    },
    {
      "inputs": [
        {
          "internalType": "address",
          "name": "",
          "type": "address"
        }
      ],
      "name": "ownerToTokenId",
      "outputs": [
        {
          "internalType": "uint256",
          "name": "",
          "type": "uint256"
        }
      ],
      "stateMutability": "view",
      "type": "function"
    },
    {
      "inputs": [
        {
          "internalType": "uint256",
          "name": "tokenId",
          "type": "uint256"
        },
        {
          "internalType": "address",
          "name": "erc20Token",
          "type": "address"
        },
        {
          "internalType": "uint256",
          "name": "amount",
          "type": "uint256"
        }
      ],
      "name": "payTokenOwner",
      "outputs": [],
      "stateMutability": "payable",
      "type": "function"
    },
    {
      "inputs": [
        {
          "internalType": "string",
          "name": "",
          "type": "string"
        }
      ],
      "name": "projectTitleToTokenId",
      "outputs": [
        {
          "internalType": "uint256",
          "name": "",
          "type": "uint256"
        }
      ],
      "stateMutability": "view",
      "type": "function"
    },
    {
      "inputs": [],
      "name": "renounceOwnership",
      "outputs": [],
      "stateMutability": "nonpayable",
      "type": "function"
    },
    {
      "inputs": [
        {
          "internalType": "address",
          "name": "to",
          "type": "address"
        },
        {
          "internalType": "string",
          "name": "uri",
          "type": "string"
        },
        {
          "internalType": "string",
          "name": "projectTitle",
          "type": "string"
        }
      ],
      "name": "safeMint",
      "outputs": [],
      "stateMutability": "payable",
      "type": "function"
    },
    {
      "inputs": [
        {
          "internalType": "address",
          "name": "from",
          "type": "address"
        },
        {
          "internalType": "address",
          "name": "to",
          "type": "address"
        },
        {
          "internalType": "uint256",
          "name": "tokenId",
          "type": "uint256"
        }
      ],
      "name": "safeTransferFrom",
      "outputs": [],
      "stateMutability": "nonpayable",
      "type": "function"
    },
    {
      "inputs": [
        {
          "internalType": "address",
          "name": "from",
          "type": "address"
        },
        {
          "internalType": "address",
          "name": "to",
          "type": "address"
        },
        {
          "internalType": "uint256",
          "name": "tokenId",
          "type": "uint256"
        },
        {
          "internalType": "bytes",
          "name": "data",
          "type": "bytes"
        }
      ],
      "name": "safeTransferFrom",
      "outputs": [],
      "stateMutability": "nonpayable",
      "type": "function"
    },
    {
      "inputs": [
        {
          "internalType": "address",
          "name": "operator",
          "type": "address"
        },
        {
          "internalType": "bool",
          "name": "approved",
          "type": "bool"
        }
      ],
      "name": "setApprovalForAll",
      "outputs": [],
      "stateMutability": "nonpayable",
      "type": "function"
    },
    {
      "inputs": [
        {
          "internalType": "uint256",
          "name": "tax",
          "type": "uint256"
        }
      ],
      "name": "setTaxPercentage",
      "outputs": [],
      "stateMutability": "nonpayable",
      "type": "function"
    },
    {
      "inputs": [
        {
          "internalType": "bytes4",
          "name": "interfaceId",
          "type": "bytes4"
        }
      ],
      "name": "supportsInterface",
      "outputs": [
        {
          "internalType": "bool",
          "name": "",
          "type": "bool"
        }
      ],
      "stateMutability": "view",
      "type": "function"
    },
    {
      "inputs": [],
      "name": "symbol",
      "outputs": [
        {
          "internalType": "string",
          "name": "",
          "type": "string"
        }
      ],
      "stateMutability": "view",
      "type": "function"
    },
    {
      "inputs": [],
      "name": "taxPercentage",
      "outputs": [
        {
          "internalType": "uint256",
          "name": "",
          "type": "uint256"
        }
      ],
      "stateMutability": "view",
      "type": "function"
    },
    {
      "inputs": [
        {
          "internalType": "uint256",
          "name": "",
          "type": "uint256"
        },
        {
          "internalType": "address",
          "name": "",
          "type": "address"
        }
      ],
      "name": "tokenBalances",
      "outputs": [
        {
          "internalType": "uint256",
          "name": "",
          "type": "uint256"
        }
      ],
      "stateMutability": "view",
      "type": "function"
    },
    {
      "inputs": [
        {
          "internalType": "uint256",
          "name": "",
          "type": "uint256"
        }
      ],
      "name": "tokenIdToOwner",
      "outputs": [
        {
          "internalType": "address",
          "name": "",
          "type": "address"
        }
      ],
      "stateMutability": "view",
      "type": "function"
    },
    {
      "inputs": [
        {
          "internalType": "uint256",
          "name": "",
          "type": "uint256"
        }
      ],
      "name": "tokenIdToProjectTitle",
      "outputs": [
        {
          "internalType": "string",
          "name": "",
          "type": "string"
        }
      ],
      "stateMutability": "view",
      "type": "function"
    },
    {
      "inputs": [
        {
          "internalType": "uint256",
          "name": "tokenId",
          "type": "uint256"
        }
      ],
      "name": "tokenURI",
      "outputs": [
        {
          "internalType": "string",
          "name": "",
          "type": "string"
        }
      ],
      "stateMutability": "view",
      "type": "function"
    },
    {
      "inputs": [
        {
          "internalType": "address",
          "name": "from",
          "type": "address"
        },
        {
          "internalType": "address",
          "name": "to",
          "type": "address"
        },
        {
          "internalType": "uint256",
          "name": "tokenId",
          "type": "uint256"
        }
      ],
      "name": "transferFrom",
      "outputs": [],
      "stateMutability": "nonpayable",
      "type": "function"
    },
    {
      "inputs": [
        {
          "internalType": "address",
          "name": "newOwner",
          "type": "address"
        }
      ],
      "name": "transferOwnership",
      "outputs": [],
      "stateMutability": "nonpayable",
      "type": "function"
    },
    {
      "inputs": [],
      "name": "withdraw",
      "outputs": [],
      "stateMutability": "nonpayable",
      "type": "function"
    },
    {
      "inputs": [
        {
          "internalType": "address",
          "name": "erc20Token",
          "type": "address"
        },
        {
          "internalType": "uint256",
          "name": "amount",
          "type": "uint256"
        }
      ],
      "name": "withdrawToken",
      "outputs": [],
      "stateMutability": "nonpayable",
      "type": "function"
    }
  ],
  "bytecode": "0x60806040523480156200001157600080fd5b50604080518082018252601381527f4e66744f6e436861696e50617961626c653133000000000000000000000000006020808301918252835180850190945260058452642727a1989960d91b908401528151919291620000749160009162000108565b5080516200008a90600190602084019062000108565b505050620000a7620000a1620000b260201b60201c565b620000b6565b6001600855620001ea565b3390565b600780546001600160a01b038381166001600160a01b0319831681179093556040519116919082907f8be0079c531659141344cd1fd0a4f28419497f9722a3daafe3b4186f6b6457e090600090a35050565b8280546200011690620001ae565b90600052602060002090601f0160209004810192826200013a576000855562000185565b82601f106200015557805160ff191683800117855562000185565b8280016001018555821562000185579182015b828111156200018557825182559160200191906001019062000168565b506200019392915062000197565b5090565b5b8082111562000193576000815560010162000198565b600181811c90821680620001c357607f821691505b602082108103620001e457634e487b7160e01b600052602260045260246000fd5b50919050565b61282980620001fa6000396000f3fe6080604052600436106101ee5760003560e01c8063715018a61161010d578063ae7b6d16116100a0578063cd99b0101161006f578063cd99b01014610595578063e985e9c5146105cd578063eca81d4214610616578063ef57e2d214610629578063f2fde38b1461066c57600080fd5b8063ae7b6d1614610524578063b88d4fde1461053a578063c87b56dd1461055a578063ca0dcf161461057a57600080fd5b80639af1d35a116100dc5780639af1d35a146104ae5780639e281a98146104c45780639f4a7c10146104e4578063a22cb4651461050457600080fd5b8063715018a6146104465780638da5cb5b1461045b57806391f7e3971461047957806395d89b411461049957600080fd5b80633ef636f911610185578063661d49b011610154578063661d49b014610398578063699abb3c146103d05780636e9e48ef146103f057806370a082311461042657600080fd5b80633ef636f91461031857806342842e0e1461032b5780634814f0351461034b5780636352211e1461037857600080fd5b80630b2accb2116101c15780630b2accb2146102a457806323b872dd146102c357806326594588146102e35780633ccfd60b1461030357600080fd5b806301ffc9a7146101f357806306fdde0314610228578063081812fc1461024a578063095ea7b314610282575b600080fd5b3480156101ff57600080fd5b5061021361020e3660046121a5565b61068c565b60405190151581526020015b60405180910390f35b34801561023457600080fd5b5061023d6106de565b60405161021f919061221a565b34801561025657600080fd5b5061026a61026536600461222d565b610770565b6040516001600160a01b03909116815260200161021f565b34801561028e57600080fd5b506102a261029d366004612262565b610797565b005b3480156102b057600080fd5b506009545b60405190815260200161021f565b3480156102cf57600080fd5b506102a26102de36600461228c565b6108b1565b3480156102ef57600080fd5b5061023d6102fe3660046122c8565b6108e2565b34801561030f57600080fd5b506102a26109b9565b6102a26103263660046122e3565b610a4e565b34801561033757600080fd5b506102a261034636600461228c565b610f3a565b34801561035757600080fd5b506102b56103663660046122c8565b600e6020526000908152604090205481565b34801561038457600080fd5b5061026a61039336600461222d565b610f55565b3480156103a457600080fd5b506102b56103b3366004612308565b600a60209081526000928352604080842090915290825290205481565b3480156103dc57600080fd5b506102a26103eb36600461222d565b610fb5565b3480156103fc57600080fd5b5061026a61040b36600461222d565b600c602052600090815260409020546001600160a01b031681565b34801561043257600080fd5b506102b56104413660046122c8565b610fc2565b34801561045257600080fd5b506102a2611048565b34801561046757600080fd5b506007546001600160a01b031661026a565b34801561048557600080fd5b5061026a6104943660046123e0565b61105c565b3480156104a557600080fd5b5061023d6110af565b3480156104ba57600080fd5b506102b5600f5481565b3480156104d057600080fd5b506102a26104df366004612262565b6110be565b3480156104f057600080fd5b5061023d6104ff36600461222d565b61128b565b34801561051057600080fd5b506102a261051f366004612423565b611325565b34801561053057600080fd5b506102b560095481565b34801561054657600080fd5b506102a261055536600461245a565b611334565b34801561056657600080fd5b5061023d61057536600461222d565b61136c565b34801561058657600080fd5b506102b5662386f26fc1000081565b3480156105a157600080fd5b506102b56105b03660046123e0565b8051602081830181018051600d8252928201919093012091525481565b3480156105d957600080fd5b506102136105e83660046124d6565b6001600160a01b03918216600090815260056020908152604080832093909416825291909152205460ff1690565b6102a2610624366004612500565b611377565b34801561063557600080fd5b506102b5610644366004612308565b6000918252600a602090815260408084206001600160a01b0393909316845291905290205490565b34801561067857600080fd5b506102a26106873660046122c8565b6115c9565b60006001600160e01b031982166380ac58cd60e01b14806106bd57506001600160e01b03198216635b5e139f60e01b145b806106d857506301ffc9a760e01b6001600160e01b03198316145b92915050565b6060600080546106ed90612574565b80601f016020809104026020016040519081016040528092919081815260200182805461071990612574565b80156107665780601f1061073b57610100808354040283529160200191610766565b820191906000526020600020905b81548152906001019060200180831161074957829003601f168201915b5050505050905090565b600061077b8261163f565b506000908152600460205260409020546001600160a01b031690565b60006107a282610f55565b9050806001600160a01b0316836001600160a01b0316036108145760405162461bcd60e51b815260206004820152602160248201527f4552433732313a20617070726f76616c20746f2063757272656e74206f776e656044820152603960f91b60648201526084015b60405180910390fd5b336001600160a01b0382161480610830575061083081336105e8565b6108a25760405162461bcd60e51b815260206004820152603d60248201527f4552433732313a20617070726f76652063616c6c6572206973206e6f7420746f60448201527f6b656e206f776e6572206f7220617070726f76656420666f7220616c6c000000606482015260840161080b565b6108ac838361169e565b505050565b6108bb338261170c565b6108d75760405162461bcd60e51b815260040161080b906125ae565b6108ac83838361178b565b6001600160a01b0381166000908152600e602052604090205460609080156109a3576000818152600b60205260409020805461091d90612574565b80601f016020809104026020016040519081016040528092919081815260200182805461094990612574565b80156109965780601f1061096b57610100808354040283529160200191610996565b820191906000526020600020905b81548152906001019060200180831161097957829003601f168201915b5050505050915050919050565b5050604080516020810190915260008152919050565b6109c16118ef565b604051600090339047908381818185875af1925050503d8060008114610a03576040519150601f19603f3d011682016040523d82523d6000602084013e610a08565b606091505b5050905080610a4b5760405162461bcd60e51b815260206004820152600f60248201526e151c985b9cd9995c8811985a5b1959608a1b604482015260640161080b565b50565b6000610a5984610f55565b90506001600160a01b0381163303610aa95760405162461bcd60e51b815260206004820152601360248201527221b0b73737ba103830bc903cb7bab939b2b63360691b604482015260640161080b565b6000806103e860095485610abd9190612611565b610ac79190612630565b90506001600160a01b038516610b1f5760405162461bcd60e51b815260206004820152601c60248201527f496e76616c6964204552432d323020746f6b656e206164647265737300000000604482015260640161080b565b846001600160a01b038116739707be4129f68b767af550fe1c631bf1779623cb14610d8357610b4e8286612652565b604051636eb1769f60e11b815233600482015230602482015290935085906001600160a01b0383169063dd62ed3e90604401602060405180830381865afa158015610b9d573d6000803e3d6000fd5b505050506040513d601f19601f82011682018060405250810190610bc19190612669565b1015610c085760405162461bcd60e51b8152602060048201526016602482015275496e73756666696369656e7420616c6c6f77616e636560501b604482015260640161080b565b6040516323b872dd60e01b8152336004820152306024820152604481018390526001600160a01b038216906323b872dd906064016020604051808303816000875af1158015610c5b573d6000803e3d6000fd5b505050506040513d601f19601f82011682018060405250810190610c7f9190612682565b610cc15760405162461bcd60e51b8152602060048201526013602482015272151c985b9cd9995c881d185e0819985a5b1959606a1b604482015260640161080b565b6040516323b872dd60e01b81523360048201526001600160a01b038581166024830152604482018590528216906323b872dd906064016020604051808303816000875af1158015610d16573d6000803e3d6000fd5b505050506040513d601f19601f82011682018060405250810190610d3a9190612682565b610d7e5760405162461bcd60e51b8152602060048201526015602482015274151c985b9cd9995c881d1bdd185b0819985a5b1959605a1b604482015260640161080b565b610efa565b604051636eb1769f60e11b815233600482015230602482015285935083906001600160a01b0383169063dd62ed3e90604401602060405180830381865afa158015610dd2573d6000803e3d6000fd5b505050506040513d601f19601f82011682018060405250810190610df69190612669565b1015610e3d5760405162461bcd60e51b8152602060048201526016602482015275496e73756666696369656e7420616c6c6f77616e636560501b604482015260640161080b565b6040516323b872dd60e01b81523360048201526001600160a01b038581166024830152604482018590528216906323b872dd906064016020604051808303816000875af1158015610e92573d6000803e3d6000fd5b505050506040513d601f19601f82011682018060405250810190610eb69190612682565b610efa5760405162461bcd60e51b8152602060048201526015602482015274151c985b9cd9995c881d1bdd185b0819985a5b1959605a1b604482015260640161080b565b6000878152600a602090815260408083206001600160a01b038a16845290915281208054859290610f2c90849061269f565b909155505050505050505050565b6108ac83838360405180602001604052806000815250611334565b6000818152600260205260408120546001600160a01b0316806106d85760405162461bcd60e51b8152602060048201526018602482015277115490cdcc8c4e881a5b9d985b1a59081d1bdad95b88125160421b604482015260640161080b565b610fbd6118ef565b600955565b60006001600160a01b03821661102c5760405162461bcd60e51b815260206004820152602960248201527f4552433732313a2061646472657373207a65726f206973206e6f7420612076616044820152683634b21037bbb732b960b91b606482015260840161080b565b506001600160a01b031660009081526003602052604090205490565b6110506118ef565b61105a6000611949565b565b600080600d8360405161106f91906126b7565b9081526020016040518091039020549050806000146110a6576000908152600c60205260409020546001600160a01b031692915050565b50600092915050565b6060600180546106ed90612574565b6110c66118ef565b6001600160a01b03821661111c5760405162461bcd60e51b815260206004820152601c60248201527f496e76616c6964204552432d323020746f6b656e206164647265737300000000604482015260640161080b565b6040516370a0823160e01b8152306004820152829082906001600160a01b038316906370a0823190602401602060405180830381865afa158015611164573d6000803e3d6000fd5b505050506040513d601f19601f820116820180604052508101906111889190612669565b10156111d65760405162461bcd60e51b815260206004820152601a60248201527f496e73756666696369656e7420746f6b656e2062616c616e6365000000000000604482015260640161080b565b60405163a9059cbb60e01b8152336004820152602481018390526001600160a01b0382169063a9059cbb906044016020604051808303816000875af1158015611223573d6000803e3d6000fd5b505050506040513d601f19601f820116820180604052508101906112479190612682565b6108ac5760405162461bcd60e51b8152602060048201526015602482015274151bdad95b881d1c985b9cd9995c8819985a5b1959605a1b604482015260640161080b565b600b60205260009081526040902080546112a490612574565b80601f01602080910402602001604051908101604052809291908181526020018280546112d090612574565b801561131d5780601f106112f25761010080835404028352916020019161131d565b820191906000526020600020905b81548152906001019060200180831161130057829003601f168201915b505050505081565b61133033838361199b565b5050565b61133e338361170c565b61135a5760405162461bcd60e51b815260040161080b906125ae565b61136684848484611a69565b50505050565b60606106d882611a9c565b662386f26fc10000600f5461138c919061269f565b3410156113d15760405162461bcd60e51b8152602060048201526013602482015272139bdd08195b9bdd59da08115512081cd95b9d606a1b604482015260640161080b565b600d816040516113e191906126b7565b90815260200160405180910390205460001461143f5760405162461bcd60e51b815260206004820152601c60248201527f50726f6a656374207469746c6520616c72656164792065786973747300000000604482015260640161080b565b336000908152600e6020526040902054156114dd5760405162461bcd60e51b815260206004820152605260248201527f4572726f723a2046756e6461626c65207061676520616c726561647920666f7560448201527f6e642e204f6e6c79206f6e652070616765206973207065726d6974746564207060648201527132b9103bb0b63632ba1030b2323932b9b99760711b608482015260a40161080b565b60006114e860105490565b90506114f8601080546001019055565b6115028482611ba4565b61150c8184611bbe565b6000818152600b60209081526040909120835161152b928501906120f6565b506000818152600c60205260409081902080546001600160a01b0319166001600160a01b038716179055518190600d906115669085906126b7565b9081526040805160209281900383018120939093556001600160a01b038781166000908152600e9093529082208490556007541691662386f26fc100009082818181858883f193505050501580156115c2573d6000803e3d6000fd5b5050505050565b6115d16118ef565b6001600160a01b0381166116365760405162461bcd60e51b815260206004820152602660248201527f4f776e61626c653a206e6577206f776e657220697320746865207a65726f206160448201526564647265737360d01b606482015260840161080b565b610a4b81611949565b6000818152600260205260409020546001600160a01b0316610a4b5760405162461bcd60e51b8152602060048201526018602482015277115490cdcc8c4e881a5b9d985b1a59081d1bdad95b88125160421b604482015260640161080b565b600081815260046020526040902080546001600160a01b0319166001600160a01b03841690811790915581906116d382610f55565b6001600160a01b03167f8c5be1e5ebec7d5bd14f71427d1e84f3dd0314c0f7b2291e5b200ac8c7c3b92560405160405180910390a45050565b60008061171883610f55565b9050806001600160a01b0316846001600160a01b0316148061175f57506001600160a01b0380821660009081526005602090815260408083209388168352929052205460ff165b806117835750836001600160a01b031661177884610770565b6001600160a01b0316145b949350505050565b826001600160a01b031661179e82610f55565b6001600160a01b0316146117c45760405162461bcd60e51b815260040161080b906126d3565b6001600160a01b0382166118265760405162461bcd60e51b8152602060048201526024808201527f4552433732313a207472616e7366657220746f20746865207a65726f206164646044820152637265737360e01b606482015260840161080b565b826001600160a01b031661183982610f55565b6001600160a01b03161461185f5760405162461bcd60e51b815260040161080b906126d3565b600081815260046020908152604080832080546001600160a01b03199081169091556001600160a01b0387811680865260038552838620805460001901905590871680865283862080546001019055868652600290945282852080549092168417909155905184937fddf252ad1be2c89b69c2b068fc378daa952ba7f163c4a11628f55a4df523b3ef91a4505050565b6007546001600160a01b0316331461105a5760405162461bcd60e51b815260206004820181905260248201527f4f776e61626c653a2063616c6c6572206973206e6f7420746865206f776e6572604482015260640161080b565b600780546001600160a01b038381166001600160a01b0319831681179093556040519116919082907f8be0079c531659141344cd1fd0a4f28419497f9722a3daafe3b4186f6b6457e090600090a35050565b816001600160a01b0316836001600160a01b0316036119fc5760405162461bcd60e51b815260206004820152601960248201527f4552433732313a20617070726f766520746f2063616c6c657200000000000000604482015260640161080b565b6001600160a01b03838116600081815260056020908152604080832094871680845294825291829020805460ff191686151590811790915591519182527f17307eab39ab6107e8899845ad3d59bd9653f200f220920489ca2b5937696c31910160405180910390a3505050565b611a7484848461178b565b611a8084848484611c58565b6113665760405162461bcd60e51b815260040161080b90612718565b6060611aa78261163f565b60008281526006602052604081208054611ac090612574565b80601f0160208091040260200160405190810160405280929190818152602001828054611aec90612574565b8015611b395780601f10611b0e57610100808354040283529160200191611b39565b820191906000526020600020905b815481529060010190602001808311611b1c57829003601f168201915b505050505090506000611b5760408051602081019091526000815290565b90508051600003611b69575092915050565b815115611b9b578082604051602001611b8392919061276a565b60405160208183030381529060405292505050919050565b61178384611d59565b611330828260405180602001604052806000815250611dcd565b6000828152600260205260409020546001600160a01b0316611c395760405162461bcd60e51b815260206004820152602e60248201527f45524337323155524953746f726167653a2055524920736574206f66206e6f6e60448201526d32bc34b9ba32b73a103a37b5b2b760911b606482015260840161080b565b600082815260066020908152604090912082516108ac928401906120f6565b60006001600160a01b0384163b15611d4e57604051630a85bd0160e11b81526001600160a01b0385169063150b7a0290611c9c903390899088908890600401612799565b6020604051808303816000875af1925050508015611cd7575060408051601f3d908101601f19168201909252611cd4918101906127d6565b60015b611d34573d808015611d05576040519150601f19603f3d011682016040523d82523d6000602084013e611d0a565b606091505b508051600003611d2c5760405162461bcd60e51b815260040161080b90612718565b805181602001fd5b6001600160e01b031916630a85bd0160e11b149050611783565b506001949350505050565b6060611d648261163f565b6000611d7b60408051602081019091526000815290565b90506000815111611d9b5760405180602001604052806000815250611dc6565b80611da584611e00565b604051602001611db692919061276a565b6040516020818303038152906040525b9392505050565b611dd78383611e93565b611de46000848484611c58565b6108ac5760405162461bcd60e51b815260040161080b90612718565b60606000611e0d8361201e565b600101905060008167ffffffffffffffff811115611e2d57611e2d612334565b6040519080825280601f01601f191660200182016040528015611e57576020820181803683370190505b5090508181016020015b600019016f181899199a1a9b1b9c1cb0b131b232b360811b600a86061a8153600a8504945084611e6157509392505050565b6001600160a01b038216611ee95760405162461bcd60e51b815260206004820181905260248201527f4552433732313a206d696e7420746f20746865207a65726f2061646472657373604482015260640161080b565b6000818152600260205260409020546001600160a01b031615611f4e5760405162461bcd60e51b815260206004820152601c60248201527f4552433732313a20746f6b656e20616c7265616479206d696e74656400000000604482015260640161080b565b6000818152600260205260409020546001600160a01b031615611fb35760405162461bcd60e51b815260206004820152601c60248201527f4552433732313a20746f6b656e20616c7265616479206d696e74656400000000604482015260640161080b565b6001600160a01b038216600081815260036020908152604080832080546001019055848352600290915280822080546001600160a01b0319168417905551839291907fddf252ad1be2c89b69c2b068fc378daa952ba7f163c4a11628f55a4df523b3ef908290a45050565b60008072184f03e93ff9f4daa797ed6e38ed64bf6a1f0160401b831061205d5772184f03e93ff9f4daa797ed6e38ed64bf6a1f0160401b830492506040015b6d04ee2d6d415b85acef81000000008310612089576d04ee2d6d415b85acef8100000000830492506020015b662386f26fc1000083106120a757662386f26fc10000830492506010015b6305f5e10083106120bf576305f5e100830492506008015b61271083106120d357612710830492506004015b606483106120e5576064830492506002015b600a83106106d85760010192915050565b82805461210290612574565b90600052602060002090601f016020900481019282612124576000855561216a565b82601f1061213d57805160ff191683800117855561216a565b8280016001018555821561216a579182015b8281111561216a57825182559160200191906001019061214f565b5061217692915061217a565b5090565b5b80821115612176576000815560010161217b565b6001600160e01b031981168114610a4b57600080fd5b6000602082840312156121b757600080fd5b8135611dc68161218f565b60005b838110156121dd5781810151838201526020016121c5565b838111156113665750506000910152565b600081518084526122068160208601602086016121c2565b601f01601f19169290920160200192915050565b602081526000611dc660208301846121ee565b60006020828403121561223f57600080fd5b5035919050565b80356001600160a01b038116811461225d57600080fd5b919050565b6000806040838503121561227557600080fd5b61227e83612246565b946020939093013593505050565b6000806000606084860312156122a157600080fd5b6122aa84612246565b92506122b860208501612246565b9150604084013590509250925092565b6000602082840312156122da57600080fd5b611dc682612246565b6000806000606084860312156122f857600080fd5b833592506122b860208501612246565b6000806040838503121561231b57600080fd5b8235915061232b60208401612246565b90509250929050565b634e487b7160e01b600052604160045260246000fd5b600067ffffffffffffffff8084111561236557612365612334565b604051601f8501601f19908116603f0116810190828211818310171561238d5761238d612334565b816040528093508581528686860111156123a657600080fd5b858560208301376000602087830101525050509392505050565b600082601f8301126123d157600080fd5b611dc68383356020850161234a565b6000602082840312156123f257600080fd5b813567ffffffffffffffff81111561240957600080fd5b611783848285016123c0565b8015158114610a4b57600080fd5b6000806040838503121561243657600080fd5b61243f83612246565b9150602083013561244f81612415565b809150509250929050565b6000806000806080858703121561247057600080fd5b61247985612246565b935061248760208601612246565b925060408501359150606085013567ffffffffffffffff8111156124aa57600080fd5b8501601f810187136124bb57600080fd5b6124ca8782356020840161234a565b91505092959194509250565b600080604083850312156124e957600080fd5b6124f283612246565b915061232b60208401612246565b60008060006060848603121561251557600080fd5b61251e84612246565b9250602084013567ffffffffffffffff8082111561253b57600080fd5b612547878388016123c0565b9350604086013591508082111561255d57600080fd5b5061256a868287016123c0565b9150509250925092565b600181811c9082168061258857607f821691505b6020821081036125a857634e487b7160e01b600052602260045260246000fd5b50919050565b6020808252602d908201527f4552433732313a2063616c6c6572206973206e6f7420746f6b656e206f776e6560408201526c1c881bdc88185c1c1c9bdd9959609a1b606082015260800190565b634e487b7160e01b600052601160045260246000fd5b600081600019048311821515161561262b5761262b6125fb565b500290565b60008261264d57634e487b7160e01b600052601260045260246000fd5b500490565b600082821015612664576126646125fb565b500390565b60006020828403121561267b57600080fd5b5051919050565b60006020828403121561269457600080fd5b8151611dc681612415565b600082198211156126b2576126b26125fb565b500190565b600082516126c98184602087016121c2565b9190910192915050565b60208082526025908201527f4552433732313a207472616e736665722066726f6d20696e636f72726563742060408201526437bbb732b960d91b606082015260800190565b60208082526032908201527f4552433732313a207472616e7366657220746f206e6f6e20455243373231526560408201527131b2b4bb32b91034b6b83632b6b2b73a32b960711b606082015260800190565b6000835161277c8184602088016121c2565b8351908301906127908183602088016121c2565b01949350505050565b6001600160a01b03858116825284166020820152604081018390526080606082018190526000906127cc908301846121ee565b9695505050505050565b6000602082840312156127e857600080fd5b8151611dc68161218f56fea26469706673582212207a37da28e240e8055f76ef3be83edc435f488b5c59df9b0126a843755903c7f464736f6c634300080d0033",
  "linkReferences": {},
  "deployedLinkReferences": {}
}