{
  "_format": "hh-sol-artifact-1",
  "contractName": "NftOnChainPayable6",
  "sourceName": "contracts/NftOnChainPayable6.sol",
  "abi": [
    {
      "inputs": [],
      "stateMutability": "nonpayable",
      "type": "constructor"
    },
    {
      "anonymous": false,
      "inputs": [
        {
          "indexed": true,
          "internalType": "address",
          "name": "owner",
          "type": "address"
        },
        {
          "indexed": true,
          "internalType": "address",
          "name": "approved",
          "type": "address"
        },
        {
          "indexed": true,
          "internalType": "uint256",
          "name": "tokenId",
          "type": "uint256"
        }
      ],
      "name": "Approval",
      "type": "event"
    },
    {
      "anonymous": false,
      "inputs": [
        {
          "indexed": true,
          "internalType": "address",
          "name": "owner",
          "type": "address"
        },
        {
          "indexed": true,
          "internalType": "address",
          "name": "operator",
          "type": "address"
        },
        {
          "indexed": false,
          "internalType": "bool",
          "name": "approved",
          "type": "bool"
        }
      ],
      "name": "ApprovalForAll",
      "type": "event"
    },
    {
      "anonymous": false,
      "inputs": [
        {
          "indexed": true,
          "internalType": "address",
          "name": "previousOwner",
          "type": "address"
        },
        {
          "indexed": true,
          "internalType": "address",
          "name": "newOwner",
          "type": "address"
        }
      ],
      "name": "OwnershipTransferred",
      "type": "event"
    },
    {
      "anonymous": false,
      "inputs": [
        {
          "indexed": true,
          "internalType": "address",
          "name": "from",
          "type": "address"
        },
        {
          "indexed": true,
          "internalType": "address",
          "name": "to",
          "type": "address"
        },
        {
          "indexed": true,
          "internalType": "uint256",
          "name": "tokenId",
          "type": "uint256"
        }
      ],
      "name": "Transfer",
      "type": "event"
    },
    {
      "inputs": [
        {
          "internalType": "address",
          "name": "to",
          "type": "address"
        },
        {
          "internalType": "uint256",
          "name": "tokenId",
          "type": "uint256"
        }
      ],
      "name": "approve",
      "outputs": [],
      "stateMutability": "nonpayable",
      "type": "function"
    },
    {
      "inputs": [
        {
          "internalType": "address",
          "name": "owner",
          "type": "address"
        }
      ],
      "name": "balanceOf",
      "outputs": [
        {
          "internalType": "uint256",
          "name": "",
          "type": "uint256"
        }
      ],
      "stateMutability": "view",
      "type": "function"
    },
    {
      "inputs": [],
      "name": "fees",
      "outputs": [
        {
          "internalType": "uint256",
          "name": "",
          "type": "uint256"
        }
      ],
      "stateMutability": "view",
      "type": "function"
    },
    {
      "inputs": [
        {
          "internalType": "uint256",
          "name": "tokenId",
          "type": "uint256"
        }
      ],
      "name": "getApproved",
      "outputs": [
        {
          "internalType": "address",
          "name": "",
          "type": "address"
        }
      ],
      "stateMutability": "view",
      "type": "function"
    },
    {
      "inputs": [
        {
          "internalType": "string",
          "name": "projectTitle",
          "type": "string"
        }
      ],
      "name": "getOwnerByProjectTitle",
      "outputs": [
        {
          "internalType": "address",
          "name": "",
          "type": "address"
        }
      ],
      "stateMutability": "view",
      "type": "function"
    },
    {
      "inputs": [
        {
          "internalType": "address",
          "name": "owner",
          "type": "address"
        },
        {
          "internalType": "address",
          "name": "operator",
          "type": "address"
        }
      ],
      "name": "isApprovedForAll",
      "outputs": [
        {
          "internalType": "bool",
          "name": "",
          "type": "bool"
        }
      ],
      "stateMutability": "view",
      "type": "function"
    },
    {
      "inputs": [],
      "name": "mintRate",
      "outputs": [
        {
          "internalType": "uint256",
          "name": "",
          "type": "uint256"
        }
      ],
      "stateMutability": "view",
      "type": "function"
    },
    {
      "inputs": [],
      "name": "name",
      "outputs": [
        {
          "internalType": "string",
          "name": "",
          "type": "string"
        }
      ],
      "stateMutability": "view",
      "type": "function"
    },
    {
      "inputs": [],
      "name": "owner",
      "outputs": [
        {
          "internalType": "address",
          "name": "",
          "type": "address"
        }
      ],
      "stateMutability": "view",
      "type": "function"
    },
    {
      "inputs": [
        {
          "internalType": "uint256",
          "name": "tokenId",
          "type": "uint256"
        }
      ],
      "name": "ownerOf",
      "outputs": [
        {
          "internalType": "address",
          "name": "",
          "type": "address"
        }
      ],
      "stateMutability": "view",
      "type": "function"
    },
    {
      "inputs": [
        {
          "internalType": "uint256",
          "name": "tokenId",
          "type": "uint256"
        }
      ],
      "name": "payTokenOwner",
      "outputs": [],
      "stateMutability": "payable",
      "type": "function"
    },
    {
      "inputs": [],
      "name": "renounceOwnership",
      "outputs": [],
      "stateMutability": "nonpayable",
      "type": "function"
    },
    {
      "inputs": [
        {
          "internalType": "address",
          "name": "to",
          "type": "address"
        },
        {
          "internalType": "string",
          "name": "uri",
          "type": "string"
        },
        {
          "internalType": "string",
          "name": "projectTitle",
          "type": "string"
        }
      ],
      "name": "safeMint",
      "outputs": [],
      "stateMutability": "payable",
      "type": "function"
    },
    {
      "inputs": [
        {
          "internalType": "address",
          "name": "from",
          "type": "address"
        },
        {
          "internalType": "address",
          "name": "to",
          "type": "address"
        },
        {
          "internalType": "uint256",
          "name": "tokenId",
          "type": "uint256"
        }
      ],
      "name": "safeTransferFrom",
      "outputs": [],
      "stateMutability": "nonpayable",
      "type": "function"
    },
    {
      "inputs": [
        {
          "internalType": "address",
          "name": "from",
          "type": "address"
        },
        {
          "internalType": "address",
          "name": "to",
          "type": "address"
        },
        {
          "internalType": "uint256",
          "name": "tokenId",
          "type": "uint256"
        },
        {
          "internalType": "bytes",
          "name": "data",
          "type": "bytes"
        }
      ],
      "name": "safeTransferFrom",
      "outputs": [],
      "stateMutability": "nonpayable",
      "type": "function"
    },
    {
      "inputs": [
        {
          "internalType": "address",
          "name": "operator",
          "type": "address"
        },
        {
          "internalType": "bool",
          "name": "approved",
          "type": "bool"
        }
      ],
      "name": "setApprovalForAll",
      "outputs": [],
      "stateMutability": "nonpayable",
      "type": "function"
    },
    {
      "inputs": [
        {
          "internalType": "bytes4",
          "name": "interfaceId",
          "type": "bytes4"
        }
      ],
      "name": "supportsInterface",
      "outputs": [
        {
          "internalType": "bool",
          "name": "",
          "type": "bool"
        }
      ],
      "stateMutability": "view",
      "type": "function"
    },
    {
      "inputs": [],
      "name": "symbol",
      "outputs": [
        {
          "internalType": "string",
          "name": "",
          "type": "string"
        }
      ],
      "stateMutability": "view",
      "type": "function"
    },
    {
      "inputs": [
        {
          "internalType": "uint256",
          "name": "",
          "type": "uint256"
        }
      ],
      "name": "tokenIdToOwner",
      "outputs": [
        {
          "internalType": "address",
          "name": "",
          "type": "address"
        }
      ],
      "stateMutability": "view",
      "type": "function"
    },
    {
      "inputs": [
        {
          "internalType": "uint256",
          "name": "",
          "type": "uint256"
        }
      ],
      "name": "tokenIdToProjectTitle",
      "outputs": [
        {
          "internalType": "string",
          "name": "",
          "type": "string"
        }
      ],
      "stateMutability": "view",
      "type": "function"
    },
    {
      "inputs": [
        {
          "internalType": "uint256",
          "name": "tokenId",
          "type": "uint256"
        }
      ],
      "name": "tokenURI",
      "outputs": [
        {
          "internalType": "string",
          "name": "",
          "type": "string"
        }
      ],
      "stateMutability": "view",
      "type": "function"
    },
    {
      "inputs": [
        {
          "internalType": "address",
          "name": "from",
          "type": "address"
        },
        {
          "internalType": "address",
          "name": "to",
          "type": "address"
        },
        {
          "internalType": "uint256",
          "name": "tokenId",
          "type": "uint256"
        }
      ],
      "name": "transferFrom",
      "outputs": [],
      "stateMutability": "nonpayable",
      "type": "function"
    },
    {
      "inputs": [
        {
          "internalType": "address",
          "name": "newOwner",
          "type": "address"
        }
      ],
      "name": "transferOwnership",
      "outputs": [],
      "stateMutability": "nonpayable",
      "type": "function"
    },
    {
      "inputs": [],
      "name": "withdraw",
      "outputs": [],
      "stateMutability": "nonpayable",
      "type": "function"
    }
  ],
  "bytecode": "0x60806040523480156200001157600080fd5b50604080518082018252601281527127333a27b721b430b4b72830bcb0b136329b60711b6020808301918252835180850190945260048452632727a19b60e11b9084015281519192916200006891600091620000f7565b5080516200007e906001906020840190620000f7565b5050506200009b62000095620000a160201b60201c565b620000a5565b620001d9565b3390565b600780546001600160a01b038381166001600160a01b0319831681179093556040519116919082907f8be0079c531659141344cd1fd0a4f28419497f9722a3daafe3b4186f6b6457e090600090a35050565b82805462000105906200019d565b90600052602060002090601f01602090048101928262000129576000855562000174565b82601f106200014457805160ff191683800117855562000174565b8280016001018555821562000174579182015b828111156200017457825182559160200191906001019062000157565b506200018292915062000186565b5090565b5b8082111562000182576000815560010162000187565b600181811c90821680620001b257607f821691505b602082108103620001d357634e487b7160e01b600052602260045260246000fd5b50919050565b611eec80620001e96000396000f3fe60806040526004361061014b5760003560e01c80638da5cb5b116100b6578063b88d4fde1161006f578063b88d4fde146103ab578063c87b56dd146103cb578063ca0dcf16146103eb578063e985e9c514610406578063eca81d421461044f578063f2fde38b1461046257600080fd5b80638da5cb5b1461030257806391f7e3971461032057806395d89b41146103405780639af1d35a146103555780639f4a7c101461036b578063a22cb4651461038b57600080fd5b806342842e0e1161010857806342842e0e146102365780635925b94c146102565780636352211e146102695780636e9e48ef1461028957806370a08231146102bf578063715018a6146102ed57600080fd5b806301ffc9a71461015057806306fdde0314610185578063081812fc146101a7578063095ea7b3146101df57806323b872dd146102015780633ccfd60b14610221575b600080fd5b34801561015c57600080fd5b5061017061016b366004611871565b610482565b60405190151581526020015b60405180910390f35b34801561019157600080fd5b5061019a6104d4565b60405161017c91906118e6565b3480156101b357600080fd5b506101c76101c23660046118f9565b610566565b6040516001600160a01b03909116815260200161017c565b3480156101eb57600080fd5b506101ff6101fa36600461192e565b61058d565b005b34801561020d57600080fd5b506101ff61021c366004611958565b6106a7565b34801561022d57600080fd5b506101ff6106d8565b34801561024257600080fd5b506101ff610251366004611958565b61076d565b6101ff6102643660046118f9565b610788565b34801561027557600080fd5b506101c76102843660046118f9565b6108dc565b34801561029557600080fd5b506101c76102a43660046118f9565b6009602052600090815260409020546001600160a01b031681565b3480156102cb57600080fd5b506102df6102da366004611994565b61093c565b60405190815260200161017c565b3480156102f957600080fd5b506101ff6109c2565b34801561030e57600080fd5b506007546001600160a01b03166101c7565b34801561032c57600080fd5b506101c761033b366004611a5b565b6109d6565b34801561034c57600080fd5b5061019a610a7b565b34801561036157600080fd5b506102df600a5481565b34801561037757600080fd5b5061019a6103863660046118f9565b610a8a565b34801561039757600080fd5b506101ff6103a6366004611a90565b610b24565b3480156103b757600080fd5b506101ff6103c6366004611acc565b610b33565b3480156103d757600080fd5b5061019a6103e63660046118f9565b610b65565b3480156103f757600080fd5b506102df66b1a2bc2ec5000081565b34801561041257600080fd5b50610170610421366004611b48565b6001600160a01b03918216600090815260056020908152604080832093909416825291909152205460ff1690565b6101ff61045d366004611b7b565b610b70565b34801561046e57600080fd5b506101ff61047d366004611994565b610c95565b60006001600160e01b031982166380ac58cd60e01b14806104b357506001600160e01b03198216635b5e139f60e01b145b806104ce57506301ffc9a760e01b6001600160e01b03198316145b92915050565b6060600080546104e390611bef565b80601f016020809104026020016040519081016040528092919081815260200182805461050f90611bef565b801561055c5780601f106105315761010080835404028352916020019161055c565b820191906000526020600020905b81548152906001019060200180831161053f57829003601f168201915b5050505050905090565b600061057182610d0b565b506000908152600460205260409020546001600160a01b031690565b6000610598826108dc565b9050806001600160a01b0316836001600160a01b03160361060a5760405162461bcd60e51b815260206004820152602160248201527f4552433732313a20617070726f76616c20746f2063757272656e74206f776e656044820152603960f91b60648201526084015b60405180910390fd5b336001600160a01b038216148061062657506106268133610421565b6106985760405162461bcd60e51b815260206004820152603d60248201527f4552433732313a20617070726f76652063616c6c6572206973206e6f7420746f60448201527f6b656e206f776e6572206f7220617070726f76656420666f7220616c6c0000006064820152608401610601565b6106a28383610d6a565b505050565b6106b13382610dd8565b6106cd5760405162461bcd60e51b815260040161060190611c29565b6106a2838383610e57565b6106e0610fbb565b604051600090339047908381818185875af1925050503d8060008114610722576040519150601f19603f3d011682016040523d82523d6000602084013e610727565b606091505b505090508061076a5760405162461bcd60e51b815260206004820152600f60248201526e151c985b9cd9995c8811985a5b1959608a1b6044820152606401610601565b50565b6106a283838360405180602001604052806000815250610b33565b6000610793826108dc565b90506001600160a01b0381166107e25760405162461bcd60e51b8152602060048201526014602482015273151bdad95b88191bd95cc81b9bdd08195e1a5cdd60621b6044820152606401610601565b6001600160a01b03811633036108305760405162461bcd60e51b815260206004820152601360248201527221b0b73737ba103830bc903cb7bab939b2b63360691b6044820152606401610601565b6000828152600860205260408120805461084990611bef565b9050116108905760405162461bcd60e51b8152602060048201526015602482015274141c9bda9958dd081d1a5d1b19481b9bdd081cd95d605a1b6044820152606401610601565b600061089d600234611c8c565b6040519091506001600160a01b0383169082156108fc029083906000818181858888f193505050501580156108d6573d6000803e3d6000fd5b50505050565b6000818152600260205260408120546001600160a01b0316806104ce5760405162461bcd60e51b8152602060048201526018602482015277115490cdcc8c4e881a5b9d985b1a59081d1bdad95b88125160421b6044820152606401610601565b60006001600160a01b0382166109a65760405162461bcd60e51b815260206004820152602960248201527f4552433732313a2061646472657373207a65726f206973206e6f7420612076616044820152683634b21037bbb732b960b91b6064820152608401610601565b506001600160a01b031660009081526003602052604090205490565b6109ca610fbb565b6109d46000611015565b565b6000805b600b54811015610a7257826040516020016109f59190611cae565b60408051601f198184030181528282528051602091820120600085815260088352929092209192610a27929101611cca565b6040516020818303038152906040528051906020012003610a60576000908152600960205260409020546001600160a01b031692915050565b80610a6a81611d65565b9150506109da565b50600092915050565b6060600180546104e390611bef565b60086020526000908152604090208054610aa390611bef565b80601f0160208091040260200160405190810160405280929190818152602001828054610acf90611bef565b8015610b1c5780601f10610af157610100808354040283529160200191610b1c565b820191906000526020600020905b815481529060010190602001808311610aff57829003601f168201915b505050505081565b610b2f338383611067565b5050565b610b3d3383610dd8565b610b595760405162461bcd60e51b815260040161060190611c29565b6108d684848484611135565b60606104ce82611168565b66b1a2bc2ec50000600a54610b859190611d7e565b341015610bca5760405162461bcd60e51b8152602060048201526013602482015272139bdd08195b9bdd59da08115512081cd95b9d606a1b6044820152606401610601565b6000610bd5600b5490565b9050610be5600b80546001019055565b610bef8482611270565b610bf9818461128a565b60008181526008602090815260409091208351610c18928501906117c2565b50600081815260096020526040902080546001600160a01b0386166001600160a01b0319909116179055610c546007546001600160a01b031690565b6040516001600160a01b03919091169060009066b1a2bc2ec500009082818181858883f19350505050158015610c8e573d6000803e3d6000fd5b5050505050565b610c9d610fbb565b6001600160a01b038116610d025760405162461bcd60e51b815260206004820152602660248201527f4f776e61626c653a206e6577206f776e657220697320746865207a65726f206160448201526564647265737360d01b6064820152608401610601565b61076a81611015565b6000818152600260205260409020546001600160a01b031661076a5760405162461bcd60e51b8152602060048201526018602482015277115490cdcc8c4e881a5b9d985b1a59081d1bdad95b88125160421b6044820152606401610601565b600081815260046020526040902080546001600160a01b0319166001600160a01b0384169081179091558190610d9f826108dc565b6001600160a01b03167f8c5be1e5ebec7d5bd14f71427d1e84f3dd0314c0f7b2291e5b200ac8c7c3b92560405160405180910390a45050565b600080610de4836108dc565b9050806001600160a01b0316846001600160a01b03161480610e2b57506001600160a01b0380821660009081526005602090815260408083209388168352929052205460ff165b80610e4f5750836001600160a01b0316610e4484610566565b6001600160a01b0316145b949350505050565b826001600160a01b0316610e6a826108dc565b6001600160a01b031614610e905760405162461bcd60e51b815260040161060190611d96565b6001600160a01b038216610ef25760405162461bcd60e51b8152602060048201526024808201527f4552433732313a207472616e7366657220746f20746865207a65726f206164646044820152637265737360e01b6064820152608401610601565b826001600160a01b0316610f05826108dc565b6001600160a01b031614610f2b5760405162461bcd60e51b815260040161060190611d96565b600081815260046020908152604080832080546001600160a01b03199081169091556001600160a01b0387811680865260038552838620805460001901905590871680865283862080546001019055868652600290945282852080549092168417909155905184937fddf252ad1be2c89b69c2b068fc378daa952ba7f163c4a11628f55a4df523b3ef91a4505050565b6007546001600160a01b031633146109d45760405162461bcd60e51b815260206004820181905260248201527f4f776e61626c653a2063616c6c6572206973206e6f7420746865206f776e65726044820152606401610601565b600780546001600160a01b038381166001600160a01b0319831681179093556040519116919082907f8be0079c531659141344cd1fd0a4f28419497f9722a3daafe3b4186f6b6457e090600090a35050565b816001600160a01b0316836001600160a01b0316036110c85760405162461bcd60e51b815260206004820152601960248201527f4552433732313a20617070726f766520746f2063616c6c6572000000000000006044820152606401610601565b6001600160a01b03838116600081815260056020908152604080832094871680845294825291829020805460ff191686151590811790915591519182527f17307eab39ab6107e8899845ad3d59bd9653f200f220920489ca2b5937696c31910160405180910390a3505050565b611140848484610e57565b61114c84848484611324565b6108d65760405162461bcd60e51b815260040161060190611ddb565b606061117382610d0b565b6000828152600660205260408120805461118c90611bef565b80601f01602080910402602001604051908101604052809291908181526020018280546111b890611bef565b80156112055780601f106111da57610100808354040283529160200191611205565b820191906000526020600020905b8154815290600101906020018083116111e857829003601f168201915b50505050509050600061122360408051602081019091526000815290565b90508051600003611235575092915050565b81511561126757808260405160200161124f929190611e2d565b60405160208183030381529060405292505050919050565b610e4f84611425565b610b2f828260405180602001604052806000815250611499565b6000828152600260205260409020546001600160a01b03166113055760405162461bcd60e51b815260206004820152602e60248201527f45524337323155524953746f726167653a2055524920736574206f66206e6f6e60448201526d32bc34b9ba32b73a103a37b5b2b760911b6064820152608401610601565b600082815260066020908152604090912082516106a2928401906117c2565b60006001600160a01b0384163b1561141a57604051630a85bd0160e11b81526001600160a01b0385169063150b7a0290611368903390899088908890600401611e5c565b6020604051808303816000875af19250505080156113a3575060408051601f3d908101601f191682019092526113a091810190611e99565b60015b611400573d8080156113d1576040519150601f19603f3d011682016040523d82523d6000602084013e6113d6565b606091505b5080516000036113f85760405162461bcd60e51b815260040161060190611ddb565b805181602001fd5b6001600160e01b031916630a85bd0160e11b149050610e4f565b506001949350505050565b606061143082610d0b565b600061144760408051602081019091526000815290565b905060008151116114675760405180602001604052806000815250611492565b80611471846114cc565b604051602001611482929190611e2d565b6040516020818303038152906040525b9392505050565b6114a3838361155f565b6114b06000848484611324565b6106a25760405162461bcd60e51b815260040161060190611ddb565b606060006114d9836116ea565b600101905060008167ffffffffffffffff8111156114f9576114f96119af565b6040519080825280601f01601f191660200182016040528015611523576020820181803683370190505b5090508181016020015b600019016f181899199a1a9b1b9c1cb0b131b232b360811b600a86061a8153600a850494508461152d57509392505050565b6001600160a01b0382166115b55760405162461bcd60e51b815260206004820181905260248201527f4552433732313a206d696e7420746f20746865207a65726f20616464726573736044820152606401610601565b6000818152600260205260409020546001600160a01b03161561161a5760405162461bcd60e51b815260206004820152601c60248201527f4552433732313a20746f6b656e20616c7265616479206d696e746564000000006044820152606401610601565b6000818152600260205260409020546001600160a01b03161561167f5760405162461bcd60e51b815260206004820152601c60248201527f4552433732313a20746f6b656e20616c7265616479206d696e746564000000006044820152606401610601565b6001600160a01b038216600081815260036020908152604080832080546001019055848352600290915280822080546001600160a01b0319168417905551839291907fddf252ad1be2c89b69c2b068fc378daa952ba7f163c4a11628f55a4df523b3ef908290a45050565b60008072184f03e93ff9f4daa797ed6e38ed64bf6a1f0160401b83106117295772184f03e93ff9f4daa797ed6e38ed64bf6a1f0160401b830492506040015b6d04ee2d6d415b85acef81000000008310611755576d04ee2d6d415b85acef8100000000830492506020015b662386f26fc10000831061177357662386f26fc10000830492506010015b6305f5e100831061178b576305f5e100830492506008015b612710831061179f57612710830492506004015b606483106117b1576064830492506002015b600a83106104ce5760010192915050565b8280546117ce90611bef565b90600052602060002090601f0160209004810192826117f05760008555611836565b82601f1061180957805160ff1916838001178555611836565b82800160010185558215611836579182015b8281111561183657825182559160200191906001019061181b565b50611842929150611846565b5090565b5b808211156118425760008155600101611847565b6001600160e01b03198116811461076a57600080fd5b60006020828403121561188357600080fd5b81356114928161185b565b60005b838110156118a9578181015183820152602001611891565b838111156108d65750506000910152565b600081518084526118d281602086016020860161188e565b601f01601f19169290920160200192915050565b60208152600061149260208301846118ba565b60006020828403121561190b57600080fd5b5035919050565b80356001600160a01b038116811461192957600080fd5b919050565b6000806040838503121561194157600080fd5b61194a83611912565b946020939093013593505050565b60008060006060848603121561196d57600080fd5b61197684611912565b925061198460208501611912565b9150604084013590509250925092565b6000602082840312156119a657600080fd5b61149282611912565b634e487b7160e01b600052604160045260246000fd5b600067ffffffffffffffff808411156119e0576119e06119af565b604051601f8501601f19908116603f01168101908282118183101715611a0857611a086119af565b81604052809350858152868686011115611a2157600080fd5b858560208301376000602087830101525050509392505050565b600082601f830112611a4c57600080fd5b611492838335602085016119c5565b600060208284031215611a6d57600080fd5b813567ffffffffffffffff811115611a8457600080fd5b610e4f84828501611a3b565b60008060408385031215611aa357600080fd5b611aac83611912565b915060208301358015158114611ac157600080fd5b809150509250929050565b60008060008060808587031215611ae257600080fd5b611aeb85611912565b9350611af960208601611912565b925060408501359150606085013567ffffffffffffffff811115611b1c57600080fd5b8501601f81018713611b2d57600080fd5b611b3c878235602084016119c5565b91505092959194509250565b60008060408385031215611b5b57600080fd5b611b6483611912565b9150611b7260208401611912565b90509250929050565b600080600060608486031215611b9057600080fd5b611b9984611912565b9250602084013567ffffffffffffffff80821115611bb657600080fd5b611bc287838801611a3b565b93506040860135915080821115611bd857600080fd5b50611be586828701611a3b565b9150509250925092565b600181811c90821680611c0357607f821691505b602082108103611c2357634e487b7160e01b600052602260045260246000fd5b50919050565b6020808252602d908201527f4552433732313a2063616c6c6572206973206e6f7420746f6b656e206f776e6560408201526c1c881bdc88185c1c1c9bdd9959609a1b606082015260800190565b634e487b7160e01b600052601160045260246000fd5b600082611ca957634e487b7160e01b600052601260045260246000fd5b500490565b60008251611cc081846020870161188e565b9190910192915050565b600080835481600182811c915080831680611ce657607f831692505b60208084108203611d0557634e487b7160e01b86526022600452602486fd5b818015611d195760018114611d2a57611d57565b60ff19861689528489019650611d57565b60008a81526020902060005b86811015611d4f5781548b820152908501908301611d36565b505084890196505b509498975050505050505050565b600060018201611d7757611d77611c76565b5060010190565b60008219821115611d9157611d91611c76565b500190565b60208082526025908201527f4552433732313a207472616e736665722066726f6d20696e636f72726563742060408201526437bbb732b960d91b606082015260800190565b60208082526032908201527f4552433732313a207472616e7366657220746f206e6f6e20455243373231526560408201527131b2b4bb32b91034b6b83632b6b2b73a32b960711b606082015260800190565b60008351611e3f81846020880161188e565b835190830190611e5381836020880161188e565b01949350505050565b6001600160a01b0385811682528416602082015260408101839052608060608201819052600090611e8f908301846118ba565b9695505050505050565b600060208284031215611eab57600080fd5b81516114928161185b56fea26469706673582212203bcc0fde0e419a6107be7a8535b9e5254ec460d32fe4576f6ae5b03c25682b5b64736f6c634300080d0033",
  "linkReferences": {},
  "deployedLinkReferences": {}
}