{
  "_format": "hh-sol-artifact-1",
  "contractName": "NftOnChainPayable12",
  "sourceName": "contracts/NftOnChainPayable12.sol",
  "abi": [
    {
      "inputs": [],
      "stateMutability": "nonpayable",
      "type": "constructor"
    },
    {
      "anonymous": false,
      "inputs": [
        {
          "indexed": true,
          "internalType": "address",
          "name": "owner",
          "type": "address"
        },
        {
          "indexed": true,
          "internalType": "address",
          "name": "approved",
          "type": "address"
        },
        {
          "indexed": true,
          "internalType": "uint256",
          "name": "tokenId",
          "type": "uint256"
        }
      ],
      "name": "Approval",
      "type": "event"
    },
    {
      "anonymous": false,
      "inputs": [
        {
          "indexed": true,
          "internalType": "address",
          "name": "owner",
          "type": "address"
        },
        {
          "indexed": true,
          "internalType": "address",
          "name": "operator",
          "type": "address"
        },
        {
          "indexed": false,
          "internalType": "bool",
          "name": "approved",
          "type": "bool"
        }
      ],
      "name": "ApprovalForAll",
      "type": "event"
    },
    {
      "anonymous": false,
      "inputs": [
        {
          "indexed": true,
          "internalType": "address",
          "name": "previousOwner",
          "type": "address"
        },
        {
          "indexed": true,
          "internalType": "address",
          "name": "newOwner",
          "type": "address"
        }
      ],
      "name": "OwnershipTransferred",
      "type": "event"
    },
    {
      "anonymous": false,
      "inputs": [
        {
          "indexed": true,
          "internalType": "address",
          "name": "from",
          "type": "address"
        },
        {
          "indexed": true,
          "internalType": "address",
          "name": "to",
          "type": "address"
        },
        {
          "indexed": true,
          "internalType": "uint256",
          "name": "tokenId",
          "type": "uint256"
        }
      ],
      "name": "Transfer",
      "type": "event"
    },
    {
      "inputs": [
        {
          "internalType": "address",
          "name": "to",
          "type": "address"
        },
        {
          "internalType": "uint256",
          "name": "tokenId",
          "type": "uint256"
        }
      ],
      "name": "approve",
      "outputs": [],
      "stateMutability": "nonpayable",
      "type": "function"
    },
    {
      "inputs": [
        {
          "internalType": "address",
          "name": "owner",
          "type": "address"
        }
      ],
      "name": "balanceOf",
      "outputs": [
        {
          "internalType": "uint256",
          "name": "",
          "type": "uint256"
        }
      ],
      "stateMutability": "view",
      "type": "function"
    },
    {
      "inputs": [],
      "name": "fees",
      "outputs": [
        {
          "internalType": "uint256",
          "name": "",
          "type": "uint256"
        }
      ],
      "stateMutability": "view",
      "type": "function"
    },
    {
      "inputs": [
        {
          "internalType": "uint256",
          "name": "tokenId",
          "type": "uint256"
        }
      ],
      "name": "getApproved",
      "outputs": [
        {
          "internalType": "address",
          "name": "",
          "type": "address"
        }
      ],
      "stateMutability": "view",
      "type": "function"
    },
    {
      "inputs": [
        {
          "internalType": "string",
          "name": "projectTitle",
          "type": "string"
        }
      ],
      "name": "getOwnerByProjectTitle",
      "outputs": [
        {
          "internalType": "address",
          "name": "",
          "type": "address"
        }
      ],
      "stateMutability": "view",
      "type": "function"
    },
    {
      "inputs": [],
      "name": "getPercentage",
      "outputs": [
        {
          "internalType": "uint256",
          "name": "",
          "type": "uint256"
        }
      ],
      "stateMutability": "view",
      "type": "function"
    },
    {
      "inputs": [
        {
          "internalType": "address",
          "name": "owner",
          "type": "address"
        }
      ],
      "name": "getProjectTitleByOwner",
      "outputs": [
        {
          "internalType": "string",
          "name": "",
          "type": "string"
        }
      ],
      "stateMutability": "view",
      "type": "function"
    },
    {
      "inputs": [
        {
          "internalType": "uint256",
          "name": "tokenId",
          "type": "uint256"
        },
        {
          "internalType": "address",
          "name": "erc20Token",
          "type": "address"
        }
      ],
      "name": "getTokenBalance",
      "outputs": [
        {
          "internalType": "uint256",
          "name": "",
          "type": "uint256"
        }
      ],
      "stateMutability": "view",
      "type": "function"
    },
    {
      "inputs": [
        {
          "internalType": "address",
          "name": "owner",
          "type": "address"
        },
        {
          "internalType": "address",
          "name": "operator",
          "type": "address"
        }
      ],
      "name": "isApprovedForAll",
      "outputs": [
        {
          "internalType": "bool",
          "name": "",
          "type": "bool"
        }
      ],
      "stateMutability": "view",
      "type": "function"
    },
    {
      "inputs": [],
      "name": "mintRate",
      "outputs": [
        {
          "internalType": "uint256",
          "name": "",
          "type": "uint256"
        }
      ],
      "stateMutability": "view",
      "type": "function"
    },
    {
      "inputs": [],
      "name": "name",
      "outputs": [
        {
          "internalType": "string",
          "name": "",
          "type": "string"
        }
      ],
      "stateMutability": "view",
      "type": "function"
    },
    {
      "inputs": [],
      "name": "owner",
      "outputs": [
        {
          "internalType": "address",
          "name": "",
          "type": "address"
        }
      ],
      "stateMutability": "view",
      "type": "function"
    },
    {
      "inputs": [
        {
          "internalType": "uint256",
          "name": "tokenId",
          "type": "uint256"
        }
      ],
      "name": "ownerOf",
      "outputs": [
        {
          "internalType": "address",
          "name": "",
          "type": "address"
        }
      ],
      "stateMutability": "view",
      "type": "function"
    },
    {
      "inputs": [
        {
          "internalType": "address",
          "name": "",
          "type": "address"
        }
      ],
      "name": "ownerToTokenId",
      "outputs": [
        {
          "internalType": "uint256",
          "name": "",
          "type": "uint256"
        }
      ],
      "stateMutability": "view",
      "type": "function"
    },
    {
      "inputs": [
        {
          "internalType": "uint256",
          "name": "tokenId",
          "type": "uint256"
        },
        {
          "internalType": "address",
          "name": "erc20Token",
          "type": "address"
        },
        {
          "internalType": "uint256",
          "name": "amount",
          "type": "uint256"
        }
      ],
      "name": "payTokenOwner",
      "outputs": [],
      "stateMutability": "payable",
      "type": "function"
    },
    {
      "inputs": [
        {
          "internalType": "string",
          "name": "",
          "type": "string"
        }
      ],
      "name": "projectTitleToTokenId",
      "outputs": [
        {
          "internalType": "uint256",
          "name": "",
          "type": "uint256"
        }
      ],
      "stateMutability": "view",
      "type": "function"
    },
    {
      "inputs": [],
      "name": "renounceOwnership",
      "outputs": [],
      "stateMutability": "nonpayable",
      "type": "function"
    },
    {
      "inputs": [
        {
          "internalType": "address",
          "name": "to",
          "type": "address"
        },
        {
          "internalType": "string",
          "name": "uri",
          "type": "string"
        },
        {
          "internalType": "string",
          "name": "projectTitle",
          "type": "string"
        }
      ],
      "name": "safeMint",
      "outputs": [],
      "stateMutability": "payable",
      "type": "function"
    },
    {
      "inputs": [
        {
          "internalType": "address",
          "name": "from",
          "type": "address"
        },
        {
          "internalType": "address",
          "name": "to",
          "type": "address"
        },
        {
          "internalType": "uint256",
          "name": "tokenId",
          "type": "uint256"
        }
      ],
      "name": "safeTransferFrom",
      "outputs": [],
      "stateMutability": "nonpayable",
      "type": "function"
    },
    {
      "inputs": [
        {
          "internalType": "address",
          "name": "from",
          "type": "address"
        },
        {
          "internalType": "address",
          "name": "to",
          "type": "address"
        },
        {
          "internalType": "uint256",
          "name": "tokenId",
          "type": "uint256"
        },
        {
          "internalType": "bytes",
          "name": "data",
          "type": "bytes"
        }
      ],
      "name": "safeTransferFrom",
      "outputs": [],
      "stateMutability": "nonpayable",
      "type": "function"
    },
    {
      "inputs": [
        {
          "internalType": "address",
          "name": "operator",
          "type": "address"
        },
        {
          "internalType": "bool",
          "name": "approved",
          "type": "bool"
        }
      ],
      "name": "setApprovalForAll",
      "outputs": [],
      "stateMutability": "nonpayable",
      "type": "function"
    },
    {
      "inputs": [
        {
          "internalType": "uint256",
          "name": "tax",
          "type": "uint256"
        }
      ],
      "name": "setTaxPercentage",
      "outputs": [],
      "stateMutability": "nonpayable",
      "type": "function"
    },
    {
      "inputs": [
        {
          "internalType": "bytes4",
          "name": "interfaceId",
          "type": "bytes4"
        }
      ],
      "name": "supportsInterface",
      "outputs": [
        {
          "internalType": "bool",
          "name": "",
          "type": "bool"
        }
      ],
      "stateMutability": "view",
      "type": "function"
    },
    {
      "inputs": [],
      "name": "symbol",
      "outputs": [
        {
          "internalType": "string",
          "name": "",
          "type": "string"
        }
      ],
      "stateMutability": "view",
      "type": "function"
    },
    {
      "inputs": [],
      "name": "taxPercentage",
      "outputs": [
        {
          "internalType": "uint256",
          "name": "",
          "type": "uint256"
        }
      ],
      "stateMutability": "view",
      "type": "function"
    },
    {
      "inputs": [
        {
          "internalType": "uint256",
          "name": "",
          "type": "uint256"
        },
        {
          "internalType": "address",
          "name": "",
          "type": "address"
        }
      ],
      "name": "tokenBalances",
      "outputs": [
        {
          "internalType": "uint256",
          "name": "",
          "type": "uint256"
        }
      ],
      "stateMutability": "view",
      "type": "function"
    },
    {
      "inputs": [
        {
          "internalType": "uint256",
          "name": "",
          "type": "uint256"
        }
      ],
      "name": "tokenIdToOwner",
      "outputs": [
        {
          "internalType": "address",
          "name": "",
          "type": "address"
        }
      ],
      "stateMutability": "view",
      "type": "function"
    },
    {
      "inputs": [
        {
          "internalType": "uint256",
          "name": "",
          "type": "uint256"
        }
      ],
      "name": "tokenIdToProjectTitle",
      "outputs": [
        {
          "internalType": "string",
          "name": "",
          "type": "string"
        }
      ],
      "stateMutability": "view",
      "type": "function"
    },
    {
      "inputs": [
        {
          "internalType": "uint256",
          "name": "tokenId",
          "type": "uint256"
        }
      ],
      "name": "tokenURI",
      "outputs": [
        {
          "internalType": "string",
          "name": "",
          "type": "string"
        }
      ],
      "stateMutability": "view",
      "type": "function"
    },
    {
      "inputs": [
        {
          "internalType": "address",
          "name": "from",
          "type": "address"
        },
        {
          "internalType": "address",
          "name": "to",
          "type": "address"
        },
        {
          "internalType": "uint256",
          "name": "tokenId",
          "type": "uint256"
        }
      ],
      "name": "transferFrom",
      "outputs": [],
      "stateMutability": "nonpayable",
      "type": "function"
    },
    {
      "inputs": [
        {
          "internalType": "address",
          "name": "newOwner",
          "type": "address"
        }
      ],
      "name": "transferOwnership",
      "outputs": [],
      "stateMutability": "nonpayable",
      "type": "function"
    },
    {
      "inputs": [],
      "name": "withdraw",
      "outputs": [],
      "stateMutability": "nonpayable",
      "type": "function"
    },
    {
      "inputs": [
        {
          "internalType": "address",
          "name": "erc20Token",
          "type": "address"
        },
        {
          "internalType": "uint256",
          "name": "amount",
          "type": "uint256"
        }
      ],
      "name": "withdrawToken",
      "outputs": [],
      "stateMutability": "nonpayable",
      "type": "function"
    }
  ],
  "bytecode": "0x60806040523480156200001157600080fd5b50604080518082018252601381527f4e66744f6e436861696e50617961626c653132000000000000000000000000006020808301918252835180850190945260058452642727a1989960d91b908401528151919291620000749160009162000108565b5080516200008a90600190602084019062000108565b505050620000a7620000a1620000b260201b60201c565b620000b6565b6001600855620001ea565b3390565b600780546001600160a01b038381166001600160a01b0319831681179093556040519116919082907f8be0079c531659141344cd1fd0a4f28419497f9722a3daafe3b4186f6b6457e090600090a35050565b8280546200011690620001ae565b90600052602060002090601f0160209004810192826200013a576000855562000185565b82601f106200015557805160ff191683800117855562000185565b8280016001018555821562000185579182015b828111156200018557825182559160200191906001019062000168565b506200019392915062000197565b5090565b5b8082111562000193576000815560010162000198565b600181811c90821680620001c357607f821691505b602082108103620001e457634e487b7160e01b600052602260045260246000fd5b50919050565b6127e480620001fa6000396000f3fe6080604052600436106101ee5760003560e01c8063715018a61161010d578063ae7b6d16116100a0578063cd99b0101161006f578063cd99b01014610595578063e985e9c5146105cd578063eca81d4214610616578063ef57e2d214610629578063f2fde38b1461066c57600080fd5b8063ae7b6d1614610524578063b88d4fde1461053a578063c87b56dd1461055a578063ca0dcf161461057a57600080fd5b80639af1d35a116100dc5780639af1d35a146104ae5780639e281a98146104c45780639f4a7c10146104e4578063a22cb4651461050457600080fd5b8063715018a6146104465780638da5cb5b1461045b57806391f7e3971461047957806395d89b411461049957600080fd5b80633ef636f911610185578063661d49b011610154578063661d49b014610398578063699abb3c146103d05780636e9e48ef146103f057806370a082311461042657600080fd5b80633ef636f91461031857806342842e0e1461032b5780634814f0351461034b5780636352211e1461037857600080fd5b80630b2accb2116101c15780630b2accb2146102a457806323b872dd146102c357806326594588146102e35780633ccfd60b1461030357600080fd5b806301ffc9a7146101f357806306fdde0314610228578063081812fc1461024a578063095ea7b314610282575b600080fd5b3480156101ff57600080fd5b5061021361020e366004612160565b61068c565b60405190151581526020015b60405180910390f35b34801561023457600080fd5b5061023d6106de565b60405161021f91906121d5565b34801561025657600080fd5b5061026a6102653660046121e8565b610770565b6040516001600160a01b03909116815260200161021f565b34801561028e57600080fd5b506102a261029d36600461221d565b610797565b005b3480156102b057600080fd5b506009545b60405190815260200161021f565b3480156102cf57600080fd5b506102a26102de366004612247565b6108b1565b3480156102ef57600080fd5b5061023d6102fe366004612283565b6108e2565b34801561030f57600080fd5b506102a26109b9565b6102a261032636600461229e565b610a4e565b34801561033757600080fd5b506102a2610346366004612247565b610fa8565b34801561035757600080fd5b506102b5610366366004612283565b600e6020526000908152604090205481565b34801561038457600080fd5b5061026a6103933660046121e8565b610fc3565b3480156103a457600080fd5b506102b56103b33660046122c3565b600a60209081526000928352604080842090915290825290205481565b3480156103dc57600080fd5b506102a26103eb3660046121e8565b611023565b3480156103fc57600080fd5b5061026a61040b3660046121e8565b600c602052600090815260409020546001600160a01b031681565b34801561043257600080fd5b506102b5610441366004612283565b611030565b34801561045257600080fd5b506102a26110b6565b34801561046757600080fd5b506007546001600160a01b031661026a565b34801561048557600080fd5b5061026a61049436600461239b565b6110ca565b3480156104a557600080fd5b5061023d61111d565b3480156104ba57600080fd5b506102b5600f5481565b3480156104d057600080fd5b506102a26104df36600461221d565b61112c565b3480156104f057600080fd5b5061023d6104ff3660046121e8565b6112f9565b34801561051057600080fd5b506102a261051f3660046123de565b611393565b34801561053057600080fd5b506102b560095481565b34801561054657600080fd5b506102a2610555366004612415565b6113a2565b34801561056657600080fd5b5061023d6105753660046121e8565b6113da565b34801561058657600080fd5b506102b5662386f26fc1000081565b3480156105a157600080fd5b506102b56105b036600461239b565b8051602081830181018051600d8252928201919093012091525481565b3480156105d957600080fd5b506102136105e8366004612491565b6001600160a01b03918216600090815260056020908152604080832093909416825291909152205460ff1690565b6102a26106243660046124bb565b6113e5565b34801561063557600080fd5b506102b56106443660046122c3565b6000918252600a602090815260408084206001600160a01b0393909316845291905290205490565b34801561067857600080fd5b506102a2610687366004612283565b61152b565b60006001600160e01b031982166380ac58cd60e01b14806106bd57506001600160e01b03198216635b5e139f60e01b145b806106d857506301ffc9a760e01b6001600160e01b03198316145b92915050565b6060600080546106ed9061252f565b80601f01602080910402602001604051908101604052809291908181526020018280546107199061252f565b80156107665780601f1061073b57610100808354040283529160200191610766565b820191906000526020600020905b81548152906001019060200180831161074957829003601f168201915b5050505050905090565b600061077b826115a1565b506000908152600460205260409020546001600160a01b031690565b60006107a282610fc3565b9050806001600160a01b0316836001600160a01b0316036108145760405162461bcd60e51b815260206004820152602160248201527f4552433732313a20617070726f76616c20746f2063757272656e74206f776e656044820152603960f91b60648201526084015b60405180910390fd5b336001600160a01b0382161480610830575061083081336105e8565b6108a25760405162461bcd60e51b815260206004820152603d60248201527f4552433732313a20617070726f76652063616c6c6572206973206e6f7420746f60448201527f6b656e206f776e6572206f7220617070726f76656420666f7220616c6c000000606482015260840161080b565b6108ac8383611600565b505050565b6108bb338261166e565b6108d75760405162461bcd60e51b815260040161080b90612569565b6108ac8383836116ed565b6001600160a01b0381166000908152600e602052604090205460609080156109a3576000818152600b60205260409020805461091d9061252f565b80601f01602080910402602001604051908101604052809291908181526020018280546109499061252f565b80156109965780601f1061096b57610100808354040283529160200191610996565b820191906000526020600020905b81548152906001019060200180831161097957829003601f168201915b5050505050915050919050565b5050604080516020810190915260008152919050565b6109c1611851565b604051600090339047908381818185875af1925050503d8060008114610a03576040519150601f19603f3d011682016040523d82523d6000602084013e610a08565b606091505b5050905080610a4b5760405162461bcd60e51b815260206004820152600f60248201526e151c985b9cd9995c8811985a5b1959608a1b604482015260640161080b565b50565b610a566118ab565b6000610a6184610fc3565b90506001600160a01b0381163303610ab15760405162461bcd60e51b815260206004820152601360248201527221b0b73737ba103830bc903cb7bab939b2b63360691b604482015260640161080b565b6000848152600b602052604081208054610aca9061252f565b905011610b115760405162461bcd60e51b8152602060048201526015602482015274141c9bda9958dd081d1a5d1b19481b9bdd081cd95d605a1b604482015260640161080b565b6000806103e860095485610b2591906125cc565b610b2f91906125eb565b90506001600160a01b038516610b875760405162461bcd60e51b815260206004820152601c60248201527f496e76616c6964204552432d323020746f6b656e206164647265737300000000604482015260640161080b565b846001600160a01b03811673301944751abb2f5000c71b050b139e31aeae472014610deb57610bb6828661260d565b604051636eb1769f60e11b815233600482015230602482015290935085906001600160a01b0383169063dd62ed3e90604401602060405180830381865afa158015610c05573d6000803e3d6000fd5b505050506040513d601f19601f82011682018060405250810190610c299190612624565b1015610c705760405162461bcd60e51b8152602060048201526016602482015275496e73756666696369656e7420616c6c6f77616e636560501b604482015260640161080b565b6040516323b872dd60e01b8152336004820152306024820152604481018390526001600160a01b038216906323b872dd906064016020604051808303816000875af1158015610cc3573d6000803e3d6000fd5b505050506040513d601f19601f82011682018060405250810190610ce7919061263d565b610d295760405162461bcd60e51b8152602060048201526013602482015272151c985b9cd9995c881d185e0819985a5b1959606a1b604482015260640161080b565b6040516323b872dd60e01b81523360048201526001600160a01b038581166024830152604482018590528216906323b872dd906064016020604051808303816000875af1158015610d7e573d6000803e3d6000fd5b505050506040513d601f19601f82011682018060405250810190610da2919061263d565b610de65760405162461bcd60e51b8152602060048201526015602482015274151c985b9cd9995c881d1bdd185b0819985a5b1959605a1b604482015260640161080b565b610f9a565b604051636eb1769f60e11b815233600482015230602482015285935083906001600160a01b0383169063dd62ed3e90604401602060405180830381865afa158015610e3a573d6000803e3d6000fd5b505050506040513d601f19601f82011682018060405250810190610e5e9190612624565b1015610ea55760405162461bcd60e51b8152602060048201526016602482015275496e73756666696369656e7420616c6c6f77616e636560501b604482015260640161080b565b6040516323b872dd60e01b81523360048201526001600160a01b038581166024830152604482018590528216906323b872dd906064016020604051808303816000875af1158015610efa573d6000803e3d6000fd5b505050506040513d601f19601f82011682018060405250810190610f1e919061263d565b610f625760405162461bcd60e51b8152602060048201526015602482015274151c985b9cd9995c881d1bdd185b0819985a5b1959605a1b604482015260640161080b565b6000878152600a602090815260408083206001600160a01b038a16845290915281208054859290610f9490849061265a565b90915550505b505050506108ac6001600855565b6108ac838383604051806020016040528060008152506113a2565b6000818152600260205260408120546001600160a01b0316806106d85760405162461bcd60e51b8152602060048201526018602482015277115490cdcc8c4e881a5b9d985b1a59081d1bdad95b88125160421b604482015260640161080b565b61102b611851565b600955565b60006001600160a01b03821661109a5760405162461bcd60e51b815260206004820152602960248201527f4552433732313a2061646472657373207a65726f206973206e6f7420612076616044820152683634b21037bbb732b960b91b606482015260840161080b565b506001600160a01b031660009081526003602052604090205490565b6110be611851565b6110c86000611904565b565b600080600d836040516110dd9190612672565b908152602001604051809103902054905080600014611114576000908152600c60205260409020546001600160a01b031692915050565b50600092915050565b6060600180546106ed9061252f565b611134611851565b6001600160a01b03821661118a5760405162461bcd60e51b815260206004820152601c60248201527f496e76616c6964204552432d323020746f6b656e206164647265737300000000604482015260640161080b565b6040516370a0823160e01b8152306004820152829082906001600160a01b038316906370a0823190602401602060405180830381865afa1580156111d2573d6000803e3d6000fd5b505050506040513d601f19601f820116820180604052508101906111f69190612624565b10156112445760405162461bcd60e51b815260206004820152601a60248201527f496e73756666696369656e7420746f6b656e2062616c616e6365000000000000604482015260640161080b565b60405163a9059cbb60e01b8152336004820152602481018390526001600160a01b0382169063a9059cbb906044016020604051808303816000875af1158015611291573d6000803e3d6000fd5b505050506040513d601f19601f820116820180604052508101906112b5919061263d565b6108ac5760405162461bcd60e51b8152602060048201526015602482015274151bdad95b881d1c985b9cd9995c8819985a5b1959605a1b604482015260640161080b565b600b60205260009081526040902080546113129061252f565b80601f016020809104026020016040519081016040528092919081815260200182805461133e9061252f565b801561138b5780601f106113605761010080835404028352916020019161138b565b820191906000526020600020905b81548152906001019060200180831161136e57829003601f168201915b505050505081565b61139e338383611956565b5050565b6113ac338361166e565b6113c85760405162461bcd60e51b815260040161080b90612569565b6113d484848484611a24565b50505050565b60606106d882611a57565b662386f26fc10000600f546113fa919061265a565b34101561143f5760405162461bcd60e51b8152602060048201526013602482015272139bdd08195b9bdd59da08115512081cd95b9d606a1b604482015260640161080b565b600061144a60105490565b905061145a601080546001019055565b6114648482611b5f565b61146e8184611b79565b6000818152600b60209081526040909120835161148d928501906120b1565b506000818152600c60205260409081902080546001600160a01b0319166001600160a01b038716179055518190600d906114c8908590612672565b9081526040805160209281900383018120939093556001600160a01b038781166000908152600e9093529082208490556007541691662386f26fc100009082818181858883f19350505050158015611524573d6000803e3d6000fd5b5050505050565b611533611851565b6001600160a01b0381166115985760405162461bcd60e51b815260206004820152602660248201527f4f776e61626c653a206e6577206f776e657220697320746865207a65726f206160448201526564647265737360d01b606482015260840161080b565b610a4b81611904565b6000818152600260205260409020546001600160a01b0316610a4b5760405162461bcd60e51b8152602060048201526018602482015277115490cdcc8c4e881a5b9d985b1a59081d1bdad95b88125160421b604482015260640161080b565b600081815260046020526040902080546001600160a01b0319166001600160a01b038416908117909155819061163582610fc3565b6001600160a01b03167f8c5be1e5ebec7d5bd14f71427d1e84f3dd0314c0f7b2291e5b200ac8c7c3b92560405160405180910390a45050565b60008061167a83610fc3565b9050806001600160a01b0316846001600160a01b031614806116c157506001600160a01b0380821660009081526005602090815260408083209388168352929052205460ff165b806116e55750836001600160a01b03166116da84610770565b6001600160a01b0316145b949350505050565b826001600160a01b031661170082610fc3565b6001600160a01b0316146117265760405162461bcd60e51b815260040161080b9061268e565b6001600160a01b0382166117885760405162461bcd60e51b8152602060048201526024808201527f4552433732313a207472616e7366657220746f20746865207a65726f206164646044820152637265737360e01b606482015260840161080b565b826001600160a01b031661179b82610fc3565b6001600160a01b0316146117c15760405162461bcd60e51b815260040161080b9061268e565b600081815260046020908152604080832080546001600160a01b03199081169091556001600160a01b0387811680865260038552838620805460001901905590871680865283862080546001019055868652600290945282852080549092168417909155905184937fddf252ad1be2c89b69c2b068fc378daa952ba7f163c4a11628f55a4df523b3ef91a4505050565b6007546001600160a01b031633146110c85760405162461bcd60e51b815260206004820181905260248201527f4f776e61626c653a2063616c6c6572206973206e6f7420746865206f776e6572604482015260640161080b565b6002600854036118fd5760405162461bcd60e51b815260206004820152601f60248201527f5265656e7472616e637947756172643a207265656e7472616e742063616c6c00604482015260640161080b565b6002600855565b600780546001600160a01b038381166001600160a01b0319831681179093556040519116919082907f8be0079c531659141344cd1fd0a4f28419497f9722a3daafe3b4186f6b6457e090600090a35050565b816001600160a01b0316836001600160a01b0316036119b75760405162461bcd60e51b815260206004820152601960248201527f4552433732313a20617070726f766520746f2063616c6c657200000000000000604482015260640161080b565b6001600160a01b03838116600081815260056020908152604080832094871680845294825291829020805460ff191686151590811790915591519182527f17307eab39ab6107e8899845ad3d59bd9653f200f220920489ca2b5937696c31910160405180910390a3505050565b611a2f8484846116ed565b611a3b84848484611c13565b6113d45760405162461bcd60e51b815260040161080b906126d3565b6060611a62826115a1565b60008281526006602052604081208054611a7b9061252f565b80601f0160208091040260200160405190810160405280929190818152602001828054611aa79061252f565b8015611af45780601f10611ac957610100808354040283529160200191611af4565b820191906000526020600020905b815481529060010190602001808311611ad757829003601f168201915b505050505090506000611b1260408051602081019091526000815290565b90508051600003611b24575092915050565b815115611b56578082604051602001611b3e929190612725565b60405160208183030381529060405292505050919050565b6116e584611d14565b61139e828260405180602001604052806000815250611d88565b6000828152600260205260409020546001600160a01b0316611bf45760405162461bcd60e51b815260206004820152602e60248201527f45524337323155524953746f726167653a2055524920736574206f66206e6f6e60448201526d32bc34b9ba32b73a103a37b5b2b760911b606482015260840161080b565b600082815260066020908152604090912082516108ac928401906120b1565b60006001600160a01b0384163b15611d0957604051630a85bd0160e11b81526001600160a01b0385169063150b7a0290611c57903390899088908890600401612754565b6020604051808303816000875af1925050508015611c92575060408051601f3d908101601f19168201909252611c8f91810190612791565b60015b611cef573d808015611cc0576040519150601f19603f3d011682016040523d82523d6000602084013e611cc5565b606091505b508051600003611ce75760405162461bcd60e51b815260040161080b906126d3565b805181602001fd5b6001600160e01b031916630a85bd0160e11b1490506116e5565b506001949350505050565b6060611d1f826115a1565b6000611d3660408051602081019091526000815290565b90506000815111611d565760405180602001604052806000815250611d81565b80611d6084611dbb565b604051602001611d71929190612725565b6040516020818303038152906040525b9392505050565b611d928383611e4e565b611d9f6000848484611c13565b6108ac5760405162461bcd60e51b815260040161080b906126d3565b60606000611dc883611fd9565b600101905060008167ffffffffffffffff811115611de857611de86122ef565b6040519080825280601f01601f191660200182016040528015611e12576020820181803683370190505b5090508181016020015b600019016f181899199a1a9b1b9c1cb0b131b232b360811b600a86061a8153600a8504945084611e1c57509392505050565b6001600160a01b038216611ea45760405162461bcd60e51b815260206004820181905260248201527f4552433732313a206d696e7420746f20746865207a65726f2061646472657373604482015260640161080b565b6000818152600260205260409020546001600160a01b031615611f095760405162461bcd60e51b815260206004820152601c60248201527f4552433732313a20746f6b656e20616c7265616479206d696e74656400000000604482015260640161080b565b6000818152600260205260409020546001600160a01b031615611f6e5760405162461bcd60e51b815260206004820152601c60248201527f4552433732313a20746f6b656e20616c7265616479206d696e74656400000000604482015260640161080b565b6001600160a01b038216600081815260036020908152604080832080546001019055848352600290915280822080546001600160a01b0319168417905551839291907fddf252ad1be2c89b69c2b068fc378daa952ba7f163c4a11628f55a4df523b3ef908290a45050565b60008072184f03e93ff9f4daa797ed6e38ed64bf6a1f0160401b83106120185772184f03e93ff9f4daa797ed6e38ed64bf6a1f0160401b830492506040015b6d04ee2d6d415b85acef81000000008310612044576d04ee2d6d415b85acef8100000000830492506020015b662386f26fc10000831061206257662386f26fc10000830492506010015b6305f5e100831061207a576305f5e100830492506008015b612710831061208e57612710830492506004015b606483106120a0576064830492506002015b600a83106106d85760010192915050565b8280546120bd9061252f565b90600052602060002090601f0160209004810192826120df5760008555612125565b82601f106120f857805160ff1916838001178555612125565b82800160010185558215612125579182015b8281111561212557825182559160200191906001019061210a565b50612131929150612135565b5090565b5b808211156121315760008155600101612136565b6001600160e01b031981168114610a4b57600080fd5b60006020828403121561217257600080fd5b8135611d818161214a565b60005b83811015612198578181015183820152602001612180565b838111156113d45750506000910152565b600081518084526121c181602086016020860161217d565b601f01601f19169290920160200192915050565b602081526000611d8160208301846121a9565b6000602082840312156121fa57600080fd5b5035919050565b80356001600160a01b038116811461221857600080fd5b919050565b6000806040838503121561223057600080fd5b61223983612201565b946020939093013593505050565b60008060006060848603121561225c57600080fd5b61226584612201565b925061227360208501612201565b9150604084013590509250925092565b60006020828403121561229557600080fd5b611d8182612201565b6000806000606084860312156122b357600080fd5b8335925061227360208501612201565b600080604083850312156122d657600080fd5b823591506122e660208401612201565b90509250929050565b634e487b7160e01b600052604160045260246000fd5b600067ffffffffffffffff80841115612320576123206122ef565b604051601f8501601f19908116603f01168101908282118183101715612348576123486122ef565b8160405280935085815286868601111561236157600080fd5b858560208301376000602087830101525050509392505050565b600082601f83011261238c57600080fd5b611d8183833560208501612305565b6000602082840312156123ad57600080fd5b813567ffffffffffffffff8111156123c457600080fd5b6116e58482850161237b565b8015158114610a4b57600080fd5b600080604083850312156123f157600080fd5b6123fa83612201565b9150602083013561240a816123d0565b809150509250929050565b6000806000806080858703121561242b57600080fd5b61243485612201565b935061244260208601612201565b925060408501359150606085013567ffffffffffffffff81111561246557600080fd5b8501601f8101871361247657600080fd5b61248587823560208401612305565b91505092959194509250565b600080604083850312156124a457600080fd5b6124ad83612201565b91506122e660208401612201565b6000806000606084860312156124d057600080fd5b6124d984612201565b9250602084013567ffffffffffffffff808211156124f657600080fd5b6125028783880161237b565b9350604086013591508082111561251857600080fd5b506125258682870161237b565b9150509250925092565b600181811c9082168061254357607f821691505b60208210810361256357634e487b7160e01b600052602260045260246000fd5b50919050565b6020808252602d908201527f4552433732313a2063616c6c6572206973206e6f7420746f6b656e206f776e6560408201526c1c881bdc88185c1c1c9bdd9959609a1b606082015260800190565b634e487b7160e01b600052601160045260246000fd5b60008160001904831182151516156125e6576125e66125b6565b500290565b60008261260857634e487b7160e01b600052601260045260246000fd5b500490565b60008282101561261f5761261f6125b6565b500390565b60006020828403121561263657600080fd5b5051919050565b60006020828403121561264f57600080fd5b8151611d81816123d0565b6000821982111561266d5761266d6125b6565b500190565b6000825161268481846020870161217d565b9190910192915050565b60208082526025908201527f4552433732313a207472616e736665722066726f6d20696e636f72726563742060408201526437bbb732b960d91b606082015260800190565b60208082526032908201527f4552433732313a207472616e7366657220746f206e6f6e20455243373231526560408201527131b2b4bb32b91034b6b83632b6b2b73a32b960711b606082015260800190565b6000835161273781846020880161217d565b83519083019061274b81836020880161217d565b01949350505050565b6001600160a01b0385811682528416602082015260408101839052608060608201819052600090612787908301846121a9565b9695505050505050565b6000602082840312156127a357600080fd5b8151611d818161214a56fea264697066735822122029cc70a07057356f560f814822fe4008b7ddaab78080d1708de3ad998c7992d664736f6c634300080d0033",
  "linkReferences": {},
  "deployedLinkReferences": {}
}