{
  "_format": "hh-sol-artifact-1",
  "contractName": "NftOnChainPayable8",
  "sourceName": "contracts/NftOnChainPayable8.sol",
  "abi": [
    {
      "inputs": [],
      "stateMutability": "nonpayable",
      "type": "constructor"
    },
    {
      "anonymous": false,
      "inputs": [
        {
          "indexed": true,
          "internalType": "address",
          "name": "owner",
          "type": "address"
        },
        {
          "indexed": true,
          "internalType": "address",
          "name": "approved",
          "type": "address"
        },
        {
          "indexed": true,
          "internalType": "uint256",
          "name": "tokenId",
          "type": "uint256"
        }
      ],
      "name": "Approval",
      "type": "event"
    },
    {
      "anonymous": false,
      "inputs": [
        {
          "indexed": true,
          "internalType": "address",
          "name": "owner",
          "type": "address"
        },
        {
          "indexed": true,
          "internalType": "address",
          "name": "operator",
          "type": "address"
        },
        {
          "indexed": false,
          "internalType": "bool",
          "name": "approved",
          "type": "bool"
        }
      ],
      "name": "ApprovalForAll",
      "type": "event"
    },
    {
      "anonymous": false,
      "inputs": [
        {
          "indexed": true,
          "internalType": "address",
          "name": "previousOwner",
          "type": "address"
        },
        {
          "indexed": true,
          "internalType": "address",
          "name": "newOwner",
          "type": "address"
        }
      ],
      "name": "OwnershipTransferred",
      "type": "event"
    },
    {
      "anonymous": false,
      "inputs": [
        {
          "indexed": true,
          "internalType": "address",
          "name": "from",
          "type": "address"
        },
        {
          "indexed": true,
          "internalType": "address",
          "name": "to",
          "type": "address"
        },
        {
          "indexed": true,
          "internalType": "uint256",
          "name": "tokenId",
          "type": "uint256"
        }
      ],
      "name": "Transfer",
      "type": "event"
    },
    {
      "inputs": [
        {
          "internalType": "address",
          "name": "to",
          "type": "address"
        },
        {
          "internalType": "uint256",
          "name": "tokenId",
          "type": "uint256"
        }
      ],
      "name": "approve",
      "outputs": [],
      "stateMutability": "nonpayable",
      "type": "function"
    },
    {
      "inputs": [
        {
          "internalType": "address",
          "name": "owner",
          "type": "address"
        }
      ],
      "name": "balanceOf",
      "outputs": [
        {
          "internalType": "uint256",
          "name": "",
          "type": "uint256"
        }
      ],
      "stateMutability": "view",
      "type": "function"
    },
    {
      "inputs": [],
      "name": "fees",
      "outputs": [
        {
          "internalType": "uint256",
          "name": "",
          "type": "uint256"
        }
      ],
      "stateMutability": "view",
      "type": "function"
    },
    {
      "inputs": [
        {
          "internalType": "uint256",
          "name": "tokenId",
          "type": "uint256"
        }
      ],
      "name": "getApproved",
      "outputs": [
        {
          "internalType": "address",
          "name": "",
          "type": "address"
        }
      ],
      "stateMutability": "view",
      "type": "function"
    },
    {
      "inputs": [
        {
          "internalType": "string",
          "name": "projectTitle",
          "type": "string"
        }
      ],
      "name": "getOwnerByProjectTitle",
      "outputs": [
        {
          "internalType": "address",
          "name": "",
          "type": "address"
        }
      ],
      "stateMutability": "view",
      "type": "function"
    },
    {
      "inputs": [
        {
          "internalType": "address",
          "name": "owner",
          "type": "address"
        }
      ],
      "name": "getProjectTitleByOwner",
      "outputs": [
        {
          "internalType": "string",
          "name": "",
          "type": "string"
        }
      ],
      "stateMutability": "view",
      "type": "function"
    },
    {
      "inputs": [
        {
          "internalType": "address",
          "name": "owner",
          "type": "address"
        },
        {
          "internalType": "address",
          "name": "operator",
          "type": "address"
        }
      ],
      "name": "isApprovedForAll",
      "outputs": [
        {
          "internalType": "bool",
          "name": "",
          "type": "bool"
        }
      ],
      "stateMutability": "view",
      "type": "function"
    },
    {
      "inputs": [],
      "name": "mintRate",
      "outputs": [
        {
          "internalType": "uint256",
          "name": "",
          "type": "uint256"
        }
      ],
      "stateMutability": "view",
      "type": "function"
    },
    {
      "inputs": [],
      "name": "name",
      "outputs": [
        {
          "internalType": "string",
          "name": "",
          "type": "string"
        }
      ],
      "stateMutability": "view",
      "type": "function"
    },
    {
      "inputs": [],
      "name": "owner",
      "outputs": [
        {
          "internalType": "address",
          "name": "",
          "type": "address"
        }
      ],
      "stateMutability": "view",
      "type": "function"
    },
    {
      "inputs": [
        {
          "internalType": "uint256",
          "name": "tokenId",
          "type": "uint256"
        }
      ],
      "name": "ownerOf",
      "outputs": [
        {
          "internalType": "address",
          "name": "",
          "type": "address"
        }
      ],
      "stateMutability": "view",
      "type": "function"
    },
    {
      "inputs": [
        {
          "internalType": "address",
          "name": "",
          "type": "address"
        }
      ],
      "name": "ownerToTokenId",
      "outputs": [
        {
          "internalType": "uint256",
          "name": "",
          "type": "uint256"
        }
      ],
      "stateMutability": "view",
      "type": "function"
    },
    {
      "inputs": [
        {
          "internalType": "uint256",
          "name": "tokenId",
          "type": "uint256"
        },
        {
          "internalType": "address",
          "name": "erc20Token",
          "type": "address"
        },
        {
          "internalType": "uint256",
          "name": "amount",
          "type": "uint256"
        }
      ],
      "name": "payTokenOwner",
      "outputs": [],
      "stateMutability": "payable",
      "type": "function"
    },
    {
      "inputs": [
        {
          "internalType": "string",
          "name": "",
          "type": "string"
        }
      ],
      "name": "projectTitleToTokenId",
      "outputs": [
        {
          "internalType": "uint256",
          "name": "",
          "type": "uint256"
        }
      ],
      "stateMutability": "view",
      "type": "function"
    },
    {
      "inputs": [],
      "name": "renounceOwnership",
      "outputs": [],
      "stateMutability": "nonpayable",
      "type": "function"
    },
    {
      "inputs": [
        {
          "internalType": "address",
          "name": "to",
          "type": "address"
        },
        {
          "internalType": "string",
          "name": "uri",
          "type": "string"
        },
        {
          "internalType": "string",
          "name": "projectTitle",
          "type": "string"
        }
      ],
      "name": "safeMint",
      "outputs": [],
      "stateMutability": "payable",
      "type": "function"
    },
    {
      "inputs": [
        {
          "internalType": "address",
          "name": "from",
          "type": "address"
        },
        {
          "internalType": "address",
          "name": "to",
          "type": "address"
        },
        {
          "internalType": "uint256",
          "name": "tokenId",
          "type": "uint256"
        }
      ],
      "name": "safeTransferFrom",
      "outputs": [],
      "stateMutability": "nonpayable",
      "type": "function"
    },
    {
      "inputs": [
        {
          "internalType": "address",
          "name": "from",
          "type": "address"
        },
        {
          "internalType": "address",
          "name": "to",
          "type": "address"
        },
        {
          "internalType": "uint256",
          "name": "tokenId",
          "type": "uint256"
        },
        {
          "internalType": "bytes",
          "name": "data",
          "type": "bytes"
        }
      ],
      "name": "safeTransferFrom",
      "outputs": [],
      "stateMutability": "nonpayable",
      "type": "function"
    },
    {
      "inputs": [
        {
          "internalType": "address",
          "name": "operator",
          "type": "address"
        },
        {
          "internalType": "bool",
          "name": "approved",
          "type": "bool"
        }
      ],
      "name": "setApprovalForAll",
      "outputs": [],
      "stateMutability": "nonpayable",
      "type": "function"
    },
    {
      "inputs": [
        {
          "internalType": "bytes4",
          "name": "interfaceId",
          "type": "bytes4"
        }
      ],
      "name": "supportsInterface",
      "outputs": [
        {
          "internalType": "bool",
          "name": "",
          "type": "bool"
        }
      ],
      "stateMutability": "view",
      "type": "function"
    },
    {
      "inputs": [],
      "name": "symbol",
      "outputs": [
        {
          "internalType": "string",
          "name": "",
          "type": "string"
        }
      ],
      "stateMutability": "view",
      "type": "function"
    },
    {
      "inputs": [
        {
          "internalType": "uint256",
          "name": "",
          "type": "uint256"
        }
      ],
      "name": "tokenIdToOwner",
      "outputs": [
        {
          "internalType": "address",
          "name": "",
          "type": "address"
        }
      ],
      "stateMutability": "view",
      "type": "function"
    },
    {
      "inputs": [
        {
          "internalType": "uint256",
          "name": "",
          "type": "uint256"
        }
      ],
      "name": "tokenIdToProjectTitle",
      "outputs": [
        {
          "internalType": "string",
          "name": "",
          "type": "string"
        }
      ],
      "stateMutability": "view",
      "type": "function"
    },
    {
      "inputs": [
        {
          "internalType": "uint256",
          "name": "tokenId",
          "type": "uint256"
        }
      ],
      "name": "tokenURI",
      "outputs": [
        {
          "internalType": "string",
          "name": "",
          "type": "string"
        }
      ],
      "stateMutability": "view",
      "type": "function"
    },
    {
      "inputs": [
        {
          "internalType": "address",
          "name": "from",
          "type": "address"
        },
        {
          "internalType": "address",
          "name": "to",
          "type": "address"
        },
        {
          "internalType": "uint256",
          "name": "tokenId",
          "type": "uint256"
        }
      ],
      "name": "transferFrom",
      "outputs": [],
      "stateMutability": "nonpayable",
      "type": "function"
    },
    {
      "inputs": [
        {
          "internalType": "address",
          "name": "newOwner",
          "type": "address"
        }
      ],
      "name": "transferOwnership",
      "outputs": [],
      "stateMutability": "nonpayable",
      "type": "function"
    },
    {
      "inputs": [],
      "name": "withdraw",
      "outputs": [],
      "stateMutability": "nonpayable",
      "type": "function"
    }
  ],
  "bytecode": "0x60806040523480156200001157600080fd5b50604080518082018252601281527109ccce89edc86d0c2d2dca0c2f2c2c4d8ca760731b60208083019182528351808501909452600484526309c9e86760e31b9084015281519192916200006891600091620000fc565b5080516200007e906001906020840190620000fc565b5050506200009b62000095620000a660201b60201c565b620000aa565b6001600855620001de565b3390565b600780546001600160a01b038381166001600160a01b0319831681179093556040519116919082907f8be0079c531659141344cd1fd0a4f28419497f9722a3daafe3b4186f6b6457e090600090a35050565b8280546200010a90620001a2565b90600052602060002090601f0160209004810192826200012e576000855562000179565b82601f106200014957805160ff191683800117855562000179565b8280016001018555821562000179579182015b82811115620001795782518255916020019190600101906200015c565b50620001879291506200018b565b5090565b5b808211156200018757600081556001016200018c565b600181811c90821680620001b757607f821691505b602082108103620001d857634e487b7160e01b600052602260045260246000fd5b50919050565b61248180620001ee6000396000f3fe60806040526004361061019c5760003560e01c8063715018a6116100ec578063b88d4fde1161008a578063cd99b01011610064578063cd99b010146104a4578063e985e9c5146104dc578063eca81d4214610525578063f2fde38b1461053857600080fd5b8063b88d4fde14610449578063c87b56dd14610469578063ca0dcf161461048957600080fd5b806395d89b41116100c657806395d89b41146103de5780639af1d35a146103f35780639f4a7c1014610409578063a22cb4651461042957600080fd5b8063715018a61461038b5780638da5cb5b146103a057806391f7e397146103be57600080fd5b80633ccfd60b116101595780634814f035116101335780634814f035146102da5780636352211e146103155780636e9e48ef1461033557806370a082311461036b57600080fd5b80633ccfd60b146102925780633ef636f9146102a757806342842e0e146102ba57600080fd5b806301ffc9a7146101a157806306fdde03146101d6578063081812fc146101f8578063095ea7b31461023057806323b872dd146102525780632659458814610272575b600080fd5b3480156101ad57600080fd5b506101c16101bc366004611e20565b610558565b60405190151581526020015b60405180910390f35b3480156101e257600080fd5b506101eb6105aa565b6040516101cd9190611e95565b34801561020457600080fd5b50610218610213366004611ea8565b61063c565b6040516001600160a01b0390911681526020016101cd565b34801561023c57600080fd5b5061025061024b366004611edd565b610663565b005b34801561025e57600080fd5b5061025061026d366004611f07565b61077d565b34801561027e57600080fd5b506101eb61028d366004611f43565b6107ae565b34801561029e57600080fd5b50610250610885565b6102506102b5366004611f5e565b61091a565b3480156102c657600080fd5b506102506102d5366004611f07565b610dd4565b3480156102e657600080fd5b506103076102f5366004611f43565b600c6020526000908152604090205481565b6040519081526020016101cd565b34801561032157600080fd5b50610218610330366004611ea8565b610def565b34801561034157600080fd5b50610218610350366004611ea8565b600a602052600090815260409020546001600160a01b031681565b34801561037757600080fd5b50610307610386366004611f43565b610e4f565b34801561039757600080fd5b50610250610ed5565b3480156103ac57600080fd5b506007546001600160a01b0316610218565b3480156103ca57600080fd5b506102186103d936600461202f565b610ee9565b3480156103ea57600080fd5b506101eb610f3c565b3480156103ff57600080fd5b50610307600d5481565b34801561041557600080fd5b506101eb610424366004611ea8565b610f4b565b34801561043557600080fd5b50610250610444366004612072565b610fe5565b34801561045557600080fd5b506102506104643660046120a9565b610ff4565b34801561047557600080fd5b506101eb610484366004611ea8565b61102c565b34801561049557600080fd5b5061030766b1a2bc2ec5000081565b3480156104b057600080fd5b506103076104bf36600461202f565b8051602081830181018051600b8252928201919093012091525481565b3480156104e857600080fd5b506101c16104f7366004612125565b6001600160a01b03918216600090815260056020908152604080832093909416825291909152205460ff1690565b610250610533366004612158565b611037565b34801561054457600080fd5b50610250610553366004611f43565b6111eb565b60006001600160e01b031982166380ac58cd60e01b148061058957506001600160e01b03198216635b5e139f60e01b145b806105a457506301ffc9a760e01b6001600160e01b03198316145b92915050565b6060600080546105b9906121cc565b80601f01602080910402602001604051908101604052809291908181526020018280546105e5906121cc565b80156106325780601f1061060757610100808354040283529160200191610632565b820191906000526020600020905b81548152906001019060200180831161061557829003601f168201915b5050505050905090565b600061064782611261565b506000908152600460205260409020546001600160a01b031690565b600061066e82610def565b9050806001600160a01b0316836001600160a01b0316036106e05760405162461bcd60e51b815260206004820152602160248201527f4552433732313a20617070726f76616c20746f2063757272656e74206f776e656044820152603960f91b60648201526084015b60405180910390fd5b336001600160a01b03821614806106fc57506106fc81336104f7565b61076e5760405162461bcd60e51b815260206004820152603d60248201527f4552433732313a20617070726f76652063616c6c6572206973206e6f7420746f60448201527f6b656e206f776e6572206f7220617070726f76656420666f7220616c6c00000060648201526084016106d7565b61077883836112c0565b505050565b610787338261132e565b6107a35760405162461bcd60e51b81526004016106d790612206565b6107788383836113ad565b6001600160a01b0381166000908152600c6020526040902054606090801561086f57600081815260096020526040902080546107e9906121cc565b80601f0160208091040260200160405190810160405280929190818152602001828054610815906121cc565b80156108625780601f1061083757610100808354040283529160200191610862565b820191906000526020600020905b81548152906001019060200180831161084557829003601f168201915b5050505050915050919050565b5050604080516020810190915260008152919050565b61088d611511565b604051600090339047908381818185875af1925050503d80600081146108cf576040519150601f19603f3d011682016040523d82523d6000602084013e6108d4565b606091505b50509050806109175760405162461bcd60e51b815260206004820152600f60248201526e151c985b9cd9995c8811985a5b1959608a1b60448201526064016106d7565b50565b61092261156b565b600061092d84610def565b90506001600160a01b03811661097c5760405162461bcd60e51b8152602060048201526014602482015273151bdad95b88191bd95cc81b9bdd08195e1a5cdd60621b60448201526064016106d7565b6001600160a01b03811633036109ca5760405162461bcd60e51b815260206004820152601360248201527221b0b73737ba103830bc903cb7bab939b2b63360691b60448201526064016106d7565b600084815260096020526040812080546109e3906121cc565b905011610a2a5760405162461bcd60e51b8152602060048201526015602482015274141c9bda9958dd081d1a5d1b19481b9bdd081cd95d605a1b60448201526064016106d7565b60008034600003610cde576001600160a01b038516610a8b5760405162461bcd60e51b815260206004820152601c60248201527f496e76616c6964204552432d323020746f6b656e20616464726573730000000060448201526064016106d7565b604051636eb1769f60e11b8152336004820152306024820152859085906001600160a01b0383169063dd62ed3e90604401602060405180830381865afa158015610ad9573d6000803e3d6000fd5b505050506040513d601f19601f82011682018060405250810190610afd9190612253565b1015610b445760405162461bcd60e51b8152602060048201526016602482015275496e73756666696369656e7420616c6c6f77616e636560501b60448201526064016106d7565b6040516370a0823160e01b815233600482015285906001600160a01b038316906370a0823190602401602060405180830381865afa158015610b8a573d6000803e3d6000fd5b505050506040513d601f19601f82011682018060405250810190610bae9190612253565b1015610bf35760405162461bcd60e51b8152602060048201526014602482015273496e73756666696369656e742062616c616e636560601b60448201526064016106d7565b6103e8610c0186600f612282565b610c0b91906122a1565b9150610c1782866122c3565b6040516323b872dd60e01b81523360048201526001600160a01b03868116602483015260448201839052919450908216906323b872dd906064016020604051808303816000875af1158015610c70573d6000803e3d6000fd5b505050506040513d601f19601f82011682018060405250810190610c9491906122da565b610cd85760405162461bcd60e51b8152602060048201526015602482015274151bdad95b881d1c985b9cd9995c8819985a5b1959605a1b60448201526064016106d7565b50610d8b565b6103e8610cec34600f612282565b610cf691906122a1565b9050610d0281346122c3565b9150838214610d535760405162461bcd60e51b815260206004820152601c60248201527f496e636f727265637420455448207061796d656e7420616d6f756e740000000060448201526064016106d7565b6040516001600160a01b0384169083156108fc029084906000818181858888f19350505050158015610d89573d6000803e3d6000fd5b505b6001600160a01b03851673301944751abb2f5000c71b050b139e31aeae472014610dc75780600d6000828254610dc191906122f7565b90915550505b5050506107786001600855565b61077883838360405180602001604052806000815250610ff4565b6000818152600260205260408120546001600160a01b0316806105a45760405162461bcd60e51b8152602060048201526018602482015277115490cdcc8c4e881a5b9d985b1a59081d1bdad95b88125160421b60448201526064016106d7565b60006001600160a01b038216610eb95760405162461bcd60e51b815260206004820152602960248201527f4552433732313a2061646472657373207a65726f206973206e6f7420612076616044820152683634b21037bbb732b960b91b60648201526084016106d7565b506001600160a01b031660009081526003602052604090205490565b610edd611511565b610ee760006115c4565b565b600080600b83604051610efc919061230f565b908152602001604051809103902054905080600014610f33576000908152600a60205260409020546001600160a01b031692915050565b50600092915050565b6060600180546105b9906121cc565b60096020526000908152604090208054610f64906121cc565b80601f0160208091040260200160405190810160405280929190818152602001828054610f90906121cc565b8015610fdd5780601f10610fb257610100808354040283529160200191610fdd565b820191906000526020600020905b815481529060010190602001808311610fc057829003601f168201915b505050505081565b610ff0338383611616565b5050565b610ffe338361132e565b61101a5760405162461bcd60e51b81526004016106d790612206565b611026848484846116e4565b50505050565b60606105a482611717565b66b1a2bc2ec50000600d5461104c91906122f7565b3410156110915760405162461bcd60e51b8152602060048201526013602482015272139bdd08195b9bdd59da08115512081cd95b9d606a1b60448201526064016106d7565b600b816040516110a1919061230f565b9081526020016040518091039020546000146110ff5760405162461bcd60e51b815260206004820152601c60248201527f50726f6a656374207469746c6520616c7265616479206578697374730000000060448201526064016106d7565b600061110a600e5490565b905061111a600e80546001019055565b611124848261181f565b61112e8184611839565b6000818152600960209081526040909120835161114d92850190611d71565b506000818152600a60205260409081902080546001600160a01b0319166001600160a01b038716179055518190600b9061118890859061230f565b9081526040805160209281900383018120939093556001600160a01b038781166000908152600c909352908220849055600754169166b1a2bc2ec500009082818181858883f193505050501580156111e4573d6000803e3d6000fd5b5050505050565b6111f3611511565b6001600160a01b0381166112585760405162461bcd60e51b815260206004820152602660248201527f4f776e61626c653a206e6577206f776e657220697320746865207a65726f206160448201526564647265737360d01b60648201526084016106d7565b610917816115c4565b6000818152600260205260409020546001600160a01b03166109175760405162461bcd60e51b8152602060048201526018602482015277115490cdcc8c4e881a5b9d985b1a59081d1bdad95b88125160421b60448201526064016106d7565b600081815260046020526040902080546001600160a01b0319166001600160a01b03841690811790915581906112f582610def565b6001600160a01b03167f8c5be1e5ebec7d5bd14f71427d1e84f3dd0314c0f7b2291e5b200ac8c7c3b92560405160405180910390a45050565b60008061133a83610def565b9050806001600160a01b0316846001600160a01b0316148061138157506001600160a01b0380821660009081526005602090815260408083209388168352929052205460ff165b806113a55750836001600160a01b031661139a8461063c565b6001600160a01b0316145b949350505050565b826001600160a01b03166113c082610def565b6001600160a01b0316146113e65760405162461bcd60e51b81526004016106d79061232b565b6001600160a01b0382166114485760405162461bcd60e51b8152602060048201526024808201527f4552433732313a207472616e7366657220746f20746865207a65726f206164646044820152637265737360e01b60648201526084016106d7565b826001600160a01b031661145b82610def565b6001600160a01b0316146114815760405162461bcd60e51b81526004016106d79061232b565b600081815260046020908152604080832080546001600160a01b03199081169091556001600160a01b0387811680865260038552838620805460001901905590871680865283862080546001019055868652600290945282852080549092168417909155905184937fddf252ad1be2c89b69c2b068fc378daa952ba7f163c4a11628f55a4df523b3ef91a4505050565b6007546001600160a01b03163314610ee75760405162461bcd60e51b815260206004820181905260248201527f4f776e61626c653a2063616c6c6572206973206e6f7420746865206f776e657260448201526064016106d7565b6002600854036115bd5760405162461bcd60e51b815260206004820152601f60248201527f5265656e7472616e637947756172643a207265656e7472616e742063616c6c0060448201526064016106d7565b6002600855565b600780546001600160a01b038381166001600160a01b0319831681179093556040519116919082907f8be0079c531659141344cd1fd0a4f28419497f9722a3daafe3b4186f6b6457e090600090a35050565b816001600160a01b0316836001600160a01b0316036116775760405162461bcd60e51b815260206004820152601960248201527f4552433732313a20617070726f766520746f2063616c6c65720000000000000060448201526064016106d7565b6001600160a01b03838116600081815260056020908152604080832094871680845294825291829020805460ff191686151590811790915591519182527f17307eab39ab6107e8899845ad3d59bd9653f200f220920489ca2b5937696c31910160405180910390a3505050565b6116ef8484846113ad565b6116fb848484846118d3565b6110265760405162461bcd60e51b81526004016106d790612370565b606061172282611261565b6000828152600660205260408120805461173b906121cc565b80601f0160208091040260200160405190810160405280929190818152602001828054611767906121cc565b80156117b45780601f10611789576101008083540402835291602001916117b4565b820191906000526020600020905b81548152906001019060200180831161179757829003601f168201915b5050505050905060006117d260408051602081019091526000815290565b905080516000036117e4575092915050565b8151156118165780826040516020016117fe9291906123c2565b60405160208183030381529060405292505050919050565b6113a5846119d4565b610ff0828260405180602001604052806000815250611a48565b6000828152600260205260409020546001600160a01b03166118b45760405162461bcd60e51b815260206004820152602e60248201527f45524337323155524953746f726167653a2055524920736574206f66206e6f6e60448201526d32bc34b9ba32b73a103a37b5b2b760911b60648201526084016106d7565b6000828152600660209081526040909120825161077892840190611d71565b60006001600160a01b0384163b156119c957604051630a85bd0160e11b81526001600160a01b0385169063150b7a02906119179033908990889088906004016123f1565b6020604051808303816000875af1925050508015611952575060408051601f3d908101601f1916820190925261194f9181019061242e565b60015b6119af573d808015611980576040519150601f19603f3d011682016040523d82523d6000602084013e611985565b606091505b5080516000036119a75760405162461bcd60e51b81526004016106d790612370565b805181602001fd5b6001600160e01b031916630a85bd0160e11b1490506113a5565b506001949350505050565b60606119df82611261565b60006119f660408051602081019091526000815290565b90506000815111611a165760405180602001604052806000815250611a41565b80611a2084611a7b565b604051602001611a319291906123c2565b6040516020818303038152906040525b9392505050565b611a528383611b0e565b611a5f60008484846118d3565b6107785760405162461bcd60e51b81526004016106d790612370565b60606000611a8883611c99565b600101905060008167ffffffffffffffff811115611aa857611aa8611f83565b6040519080825280601f01601f191660200182016040528015611ad2576020820181803683370190505b5090508181016020015b600019016f181899199a1a9b1b9c1cb0b131b232b360811b600a86061a8153600a8504945084611adc57509392505050565b6001600160a01b038216611b645760405162461bcd60e51b815260206004820181905260248201527f4552433732313a206d696e7420746f20746865207a65726f206164647265737360448201526064016106d7565b6000818152600260205260409020546001600160a01b031615611bc95760405162461bcd60e51b815260206004820152601c60248201527f4552433732313a20746f6b656e20616c7265616479206d696e7465640000000060448201526064016106d7565b6000818152600260205260409020546001600160a01b031615611c2e5760405162461bcd60e51b815260206004820152601c60248201527f4552433732313a20746f6b656e20616c7265616479206d696e7465640000000060448201526064016106d7565b6001600160a01b038216600081815260036020908152604080832080546001019055848352600290915280822080546001600160a01b0319168417905551839291907fddf252ad1be2c89b69c2b068fc378daa952ba7f163c4a11628f55a4df523b3ef908290a45050565b60008072184f03e93ff9f4daa797ed6e38ed64bf6a1f0160401b8310611cd85772184f03e93ff9f4daa797ed6e38ed64bf6a1f0160401b830492506040015b6d04ee2d6d415b85acef81000000008310611d04576d04ee2d6d415b85acef8100000000830492506020015b662386f26fc100008310611d2257662386f26fc10000830492506010015b6305f5e1008310611d3a576305f5e100830492506008015b6127108310611d4e57612710830492506004015b60648310611d60576064830492506002015b600a83106105a45760010192915050565b828054611d7d906121cc565b90600052602060002090601f016020900481019282611d9f5760008555611de5565b82601f10611db857805160ff1916838001178555611de5565b82800160010185558215611de5579182015b82811115611de5578251825591602001919060010190611dca565b50611df1929150611df5565b5090565b5b80821115611df15760008155600101611df6565b6001600160e01b03198116811461091757600080fd5b600060208284031215611e3257600080fd5b8135611a4181611e0a565b60005b83811015611e58578181015183820152602001611e40565b838111156110265750506000910152565b60008151808452611e81816020860160208601611e3d565b601f01601f19169290920160200192915050565b602081526000611a416020830184611e69565b600060208284031215611eba57600080fd5b5035919050565b80356001600160a01b0381168114611ed857600080fd5b919050565b60008060408385031215611ef057600080fd5b611ef983611ec1565b946020939093013593505050565b600080600060608486031215611f1c57600080fd5b611f2584611ec1565b9250611f3360208501611ec1565b9150604084013590509250925092565b600060208284031215611f5557600080fd5b611a4182611ec1565b600080600060608486031215611f7357600080fd5b83359250611f3360208501611ec1565b634e487b7160e01b600052604160045260246000fd5b600067ffffffffffffffff80841115611fb457611fb4611f83565b604051601f8501601f19908116603f01168101908282118183101715611fdc57611fdc611f83565b81604052809350858152868686011115611ff557600080fd5b858560208301376000602087830101525050509392505050565b600082601f83011261202057600080fd5b611a4183833560208501611f99565b60006020828403121561204157600080fd5b813567ffffffffffffffff81111561205857600080fd5b6113a58482850161200f565b801515811461091757600080fd5b6000806040838503121561208557600080fd5b61208e83611ec1565b9150602083013561209e81612064565b809150509250929050565b600080600080608085870312156120bf57600080fd5b6120c885611ec1565b93506120d660208601611ec1565b925060408501359150606085013567ffffffffffffffff8111156120f957600080fd5b8501601f8101871361210a57600080fd5b61211987823560208401611f99565b91505092959194509250565b6000806040838503121561213857600080fd5b61214183611ec1565b915061214f60208401611ec1565b90509250929050565b60008060006060848603121561216d57600080fd5b61217684611ec1565b9250602084013567ffffffffffffffff8082111561219357600080fd5b61219f8783880161200f565b935060408601359150808211156121b557600080fd5b506121c28682870161200f565b9150509250925092565b600181811c908216806121e057607f821691505b60208210810361220057634e487b7160e01b600052602260045260246000fd5b50919050565b6020808252602d908201527f4552433732313a2063616c6c6572206973206e6f7420746f6b656e206f776e6560408201526c1c881bdc88185c1c1c9bdd9959609a1b606082015260800190565b60006020828403121561226557600080fd5b5051919050565b634e487b7160e01b600052601160045260246000fd5b600081600019048311821515161561229c5761229c61226c565b500290565b6000826122be57634e487b7160e01b600052601260045260246000fd5b500490565b6000828210156122d5576122d561226c565b500390565b6000602082840312156122ec57600080fd5b8151611a4181612064565b6000821982111561230a5761230a61226c565b500190565b60008251612321818460208701611e3d565b9190910192915050565b60208082526025908201527f4552433732313a207472616e736665722066726f6d20696e636f72726563742060408201526437bbb732b960d91b606082015260800190565b60208082526032908201527f4552433732313a207472616e7366657220746f206e6f6e20455243373231526560408201527131b2b4bb32b91034b6b83632b6b2b73a32b960711b606082015260800190565b600083516123d4818460208801611e3d565b8351908301906123e8818360208801611e3d565b01949350505050565b6001600160a01b038581168252841660208201526040810183905260806060820181905260009061242490830184611e69565b9695505050505050565b60006020828403121561244057600080fd5b8151611a4181611e0a56fea2646970667358221220a317a7078d623247c7fe2d57a5b1e6c9414f9df131411b0422f8f5029ebd581c64736f6c634300080d0033",
  "linkReferences": {},
  "deployedLinkReferences": {}
}