{
  "_format": "hh-sol-artifact-1",
  "contractName": "TokenTransferContract",
  "sourceName": "contracts/transfer/TokenTransferContract.sol",
  "abi": [
    {
      "inputs": [],
      "stateMutability": "nonpayable",
      "type": "constructor"
    },
    {
      "inputs": [],
      "name": "owner",
      "outputs": [
        {
          "internalType": "address",
          "name": "",
          "type": "address"
        }
      ],
      "stateMutability": "view",
      "type": "function"
    },
    {
      "inputs": [
        {
          "internalType": "address",
          "name": "tokenAddress",
          "type": "address"
        },
        {
          "internalType": "address",
          "name": "to",
          "type": "address"
        },
        {
          "internalType": "uint256",
          "name": "amount",
          "type": "uint256"
        }
      ],
      "name": "transferTokens",
      "outputs": [],
      "stateMutability": "nonpayable",
      "type": "function"
    }
  ],
  "bytecode": "0x608060405234801561001057600080fd5b50600080546001600160a01b03191633179055610211806100326000396000f3fe608060405234801561001057600080fd5b50600436106100365760003560e01c80638da5cb5b1461003b578063a64b6e5f1461006a575b600080fd5b60005461004e906001600160a01b031681565b6040516001600160a01b03909116815260200160405180910390f35b61007d610078366004610176565b61007f565b005b6000546001600160a01b031633146100dd5760405162461bcd60e51b815260206004820181905260248201527f4f6e6c79206f776e65722063616e20696e697469617465207472616e73666572604482015260640160405180910390fd5b60405163a9059cbb60e01b81526001600160a01b0383811660048301526024820183905284919082169063a9059cbb906044016020604051808303816000875af115801561012f573d6000803e3d6000fd5b505050506040513d601f19601f8201168201806040525081019061015391906101b2565b5050505050565b80356001600160a01b038116811461017157600080fd5b919050565b60008060006060848603121561018b57600080fd5b6101948461015a565b92506101a26020850161015a565b9150604084013590509250925092565b6000602082840312156101c457600080fd5b815180151581146101d457600080fd5b939250505056fea26469706673582212207657d7051f88db7ad51a1a09e7bec88f303d6e0ec87bcb388c65c71328eda95e64736f6c634300080d0033",
  "linkReferences": {},
  "deployedLinkReferences": {}
}